:020000040800F2
:1000000078070020290200082D170008FD140008B9
:100010002917000821040008A518000800000000A6
:10002000000000000000000000000000351700087C
:1000300025040008000000003117000839170008E7
:10004000430200084302000843020008430200087C
:10005000430200084302000843020008430200086C
:10006000430200084302000843020008430200085C
:10007000430200084302000843020008430200084C
:10008000430200084302000843020008430200083C
:100090004302000843020008430200082904000844
:1000A000430200084302000843020008430200081C
:1000B000430200084302000843020008430200080C
:1000C00043020008430200084302000843020008FC
:1000D00043020008430200084302000843020008EC
:1000E00043020008430200084302000843020008DC
:1000F00043020008430200084302000843020008CC
:1001000043020008430200084302000843020008BB
:100110004302000843020008511700085D17000859
:10012000430200084302000843020008430200089B
:10013000430200084302000843020008430200088B
:10014000430200084302000843020008430200087B
:10015000430200084302000843020008430200086B
:10016000430200084302000843020008430200085B
:100170004302000843020008430200080000000098
:10018000430200084302000800F002F800F03CF8C7
:100190000AA090E8000C82448344AAF10107DA45E2
:1001A00001D100F031F8AFF2090EBAE80F0013F0F8
:1001B000010F18BFFB1A43F001031847F024000099
:1001C00010250000103A24BF78C878C1FAD8520729
:1001D00024BF30C830C144BF04680C6070470000C1
:1001E0000023002400250026103A28BF78C1FBD840
:1001F000520728BF30C148BF0B6070471FB502F0DF
:1002000018FA1FBD10B510BD00F0D0F81146FFF769
:10021000F5FF01F049FB00F0EEF803B4FFF7F2FF41
:1002200003BC00F0F5F80000094880470948004782
:10023000FEE7FEE7FEE7FEE7FEE7FEE7FEE7FEE796
:10024000FEE7FEE704480549054A064B70470000F3
:100250003D17000889010008780100207807002078
:10026000780300207803002053EA020C00F0698034
:100270002DE9F04B4FF00006002B1FBFB3FA83F5BA
:1002800003FA05F424FA05F65E4012BF1643B2FAEB
:1002900082F502FA05F4C5F120051EBF22FA05FC1D
:1002A00044EA0C04203556EA044C4FEA144418BFC3
:1002B000641C4FF000084FF00009904271EB030CF2
:1002C00039D3002919BFB1FA81F701FA07F6B0FA5C
:1002D00080F700FA07F6C7F120071EBF20FA07FCD7
:1002E00046EA0C062037B6FBF4FCA7EB0507103FE7
:1002F00007F01F0BCBF120062CFA06F60CFA0BFBCD
:1003000044BFB3460026202FA4BF5E464FF0000B2B
:100310005BEA060C08BF4FF0010B19EB0B0948EB29
:100320000608ABFB027C06FB02CC0BFB03CCC01B1C
:1003300071EB0C01C1E70B46024641464846BDE859
:10034000F08B13B5084318BF4FF0FF300146AFF3F1
:100350000080BDE81C4070474FF0000200B5134616
:1003600094469646203922BFA0E80C50A0E80C50D5
:10037000B1F12001BFF4F7AF090728BFA0E80C5086
:1003800048BF0CC05DF804EB890028BF40F8042B7F
:1003900008BF704748BF20F8022B11F0804F18BFEC
:1003A00000F8012B7047704770477047754600F0A2
:1003B0002BF8AE4605006946534620F007008546F7
:1003C00018B020B5FFF73EFFBDE820404FF0000613
:1003D0004FF000074FF000084FF0000BAC46ACE8C0
:1003E000C009ACE8C009ACE8C009ACE8C00921F01C
:1003F00007018D46704710B50446AFF300802046D4
:10040000BDE81040FFF709BF00487047100000200A
:1004100001491820ABBEFEE726000200704700002D
:10042000FEE70000704700004FF4807000F094B9C0
:10043000EFF3108072B600BFFEE7000070B581B028
:100440000022009290F83C20012A03D102210846A4
:1004500001B070BD0E6801220A2E80F83C2009D33D
:10046000B2B25200D0F800E012FA86F21E3A0EF153
:100470000C0305E0D0F800E006EB46020EF1100395
:100480004FF0070C1D680CFA02F4A5431D608D683F
:100490001C6805FA02F222431A60496806290FD83F
:1004A00001EB81014A1F71461F2351F8345F9340CD
:1004B00025EA03030B60B3B203FA02F214E000BFB3
:1004C00001EB81030C29B2B204D8714651F8304FC8
:1004D000233B03E0714651F82C4F413B1F259D40C3
:1004E00024EA05059A400D600B6842F2043CC4F210
:1004F000010C1A43ACF541739E450A603BD1122EA4
:1005000006D1DCF8001041F48001CCF8001032E094
:1005100026F0010110292ED1DCF80010102E41F434
:100520000001CCF8001026D140F20801C2F200010F
:1005300009684DF68362C4F21B32A1FB0212910CD2
:1005400001EB8101490000910099A1B100990139A5
:100550000091009979B1009901390091009951B148
:10056000009901390091009929B100990139009150
:1005700000990029EAD1002180F83C10084601B01A
:1005800070BD0000002804BF0120704710B504466C
:10059000006C00283ED0206CC00645D4206C41F28F
:1005A00002118843023042F204312064C4F2010196
:1005B000086820F4403008600A6894E809101A437B
:1005C000D4F810E00A604168012321F48071416091
:1005D0004168C0F6007341EA0E214160416821F094
:1005E00040714160416841EA0C014160816821F439
:1005F00000618160E168826811438160A16A82685C
:10060000994222F070628260826813D122F04051D8
:1006100019E000BF204600F065F80020606484F80F
:100620003C00206CC006B9D50120002184F83C10A4
:1006300010BD00BF11438160816821F0405181608D
:10064000E16A826811438160816821F00201816062
:100650008168227E94F8203041EA4201816041683D
:1006600083B141F40061416041684EF2000221F41F
:1006700060414160616ACFF6FF72436802EB41312D
:10068000194301E021F400614160C16A40F2000CAD
:1006900021F47001C162E2696169CFF6F07CC36A3E
:1006A0000CEB02521A43C262826822F4007282602A
:1006B00094F83020836843EA42228260826822F400
:1006C00080628260826842EA8121816000206064E9
:1006D000216C012262F301012164002184F83C10A5
:1006E00010BD000080B586B042F200010068C4F27F
:1006F0000101002288420592049201D006B080BD1B
:1007000043F630000092C4F20200436943F4807360
:100710004361436903F480730093009B0092036874
:1007200043F001030360006800F0010000900098AE
:10073000012001900320CDE9020201F5604001A9EA
:1007400000F016F806B080BD40F27000C2F2000062
:10075000416801314160704743F61441C4F2010120
:100760000A68024214BF08607047FFF7EDBF00003F
:100770002DE9F04F82B000F13E4241F6004502F112
:10078000FF77C4F20205082243F6004E4FEAB7266F
:10079000A84208BF0722C4F2010E072E38BF4FEA55
:1007A000B7220125002600274FF00008009208E03C
:1007B00008F101080437B8F1100F06F1020600F045
:1007C000A7800C6805FA08F914EA090FF0D0D1F8EF
:1007D00004B003220BF0030CACF10104B240012C75
:1007E0006FEA020A10D88268CC6802EA0A02B440B2
:1007F000224382604268CBF3001422EA090204FA21
:1008000008F42243426005E0BCF1030F02D14FF02F
:10081000030C20E0C2688C6802EA0A02B44022435A
:10082000BCF1020FC26016D16FF0030202EA580257
:100830000244D2F820C007F01C050F230C69AB401E
:100840002CEA030304FA05F52B431362D1F804B034
:1008500001250BF0030C02680CFA06F302EA0A0207
:100860001A431BF4403F0260A2D0002243F6440327
:100870000192C4F202031A684FF6084C42F4804217
:100880001A601A68CFF6FF7C02F480420192019A46
:1008900028F00302724452F80C3007F00C050F24C4
:1008A000AC40A343009C04FA05F52B4342F80C30FE
:1008B000DEF808204B6842EA090543F60C4CDC02DE
:1008C00058BF22EA0905CEF80850C4F2010CDCF842
:1008D00000209C0242EA090558BF22EA0905CCF82B
:1008E0000050DEF804209C0342EA090558BF22EAC2
:1008F0000905CEF80450DEF80020DB0342EA0905C2
:1009000058BF22EA0905CEF80050012550E700BF84
:1009100002B0BDE8F08F00000069084018BF012058
:1009200070470000002A08BF090481617047000079
:1009300040F27010C2F200000068704740F2000000
:1009400040F27011C2F20000C2F2000100780A68A1
:10095000104408607047000080B543F60040C4F2C0
:100960000200016841F400710160016841F4806196
:100970000160016841F480710160032000F088F893
:100980000F2000F005F800F027F8002080BD0000DF
:1009900070B540F20006C2F2000640F2080132785B
:1009A000C2F200014FF47A730968B3FBF2F2044615
:1009B000B1FBF2F1084600F01BFB0F2C4FF00105D4
:1009C00008D838B94FF0FF3021460022002500F04A
:1009D00033F87460284670BD82B0002043F64001B1
:1009E0000190C4F202014A6842F480424A604A68B7
:1009F00002F480420192019A0090086840F0805011
:100A00000860086800F080500090009802B07047BD
:100A1000002848BF7047C1B200F01F00012202FA4F
:100A200000F04EF20012CEF2000242EAD10121F0B3
:100A3000030108607047000010B54EF60C5CCEF262
:100A4000000CDCF80030C3F3022E8EF00704042CF7
:100A500028BF0424BEF103034FF0FF3E0EFA04F456
:100A600038BF0023A14399400EFA03F39A43114380
:100A700000F00F0200F160430901043A03F56443FA
:100A80006244002848BF02F10C03197010BD000039
:100A90004EF60C51CEF200010A684FF6FF031A40E1
:100AA00060F30A2242F0806040F0FD7008607047F9
:100AB0002DE9F041002800F08B8043F60808C4F2CD
:100AC00002080446D8F8F8030D4600F007008842F3
:100AD00007D288F8F853D8F8F80300F00700A842C6
:100AE00076D12068810717D5410705D5D8F80010C1
:100AF00041F4E051C8F80010010705D5D8F80010FE
:100B000041F46041C8F80010D8F80010A26821F044
:100B1000F0011143C8F80010C0073FD1D8F8F8031E
:100B200000F00700A84207D988F8F853D8F8F8036E
:100B300000F00700A8424BD12068410707D5D8F83C
:100B40000010E26821F4E0511143C8F800100007DA
:100B500008D5D8F80000216920F4604040EAC100BF
:100B6000C8F8000000F054F8D8F8001042F29C6277
:100B7000C1F30311C0F60002515C40F2080220FAF2
:100B800001F140F20400C2F200000068C2F200026B
:100B90001160FFF7FDFE0020BDE8F0816068811E56
:100BA000022907D258F8081C89015CBF0120BDE862
:100BB000F08111E0012807D158F8081C89035CBFB7
:100BC0000120BDE8F08107E058F8081C890703D42C
:100BD0000120BDE8F08100BFD8F8001021F003012A
:100BE0000843C8F80000FFF7A3FE064641F2883725
:100BF000D8F80000616800F00C00B0EB810F8DD0D8
:100C0000FFF796FE801BB842F2D90320BDE8F081C1
:100C100010B543F60404C4F20204606800F00C004E
:100C200008280BD0042819BF42F20040C0F2F4009B
:100C300047F64000C0F27D1010BD00BF206821685B
:100C40002368490247F64001C0F27D1100F03F02DF
:100C5000C3F388105CBF42F20041C0F2F401A1FB73
:100C600000010023FFF700FB21680222C1F30141CC
:100C700002EB4101B0FBF1F010BD00002DE9F041A5
:100C800082B0002868D00446007843F60006C0070A
:100C9000C4F202060BD0B06800F00C00042840F04B
:100CA0009F803068800302D56068002854D0207887
:100CB00080071AD5B06810F00C0F09D0B06800F0AA
:100CC0000C00082840F0A6807068400200F1A28065
:100CD0003068800702D5E06801283DD1306821697D
:100CE00020F0F80040EAC10030602078000737D4D7
:100CF000207840074CD4A56955B3B06800F00C00CB
:100D0000082840F0BB80012D26D07068E16900F40E
:100D100080028A4220D1216A00F03F028A421BD120
:100D200047F6C071626A0140B1EB821F14D1A16A1B
:100D30004FF6FF73C903994300F44032A1F58031A7
:100D40008A4209D1E16A00F07060B0EB016F03D113
:100D5000002002B0BDE8F081012002B0BDE8F081C2
:100D60006069002840F20000C4F2472076D00121DB
:100D7000C0F8801EFFF7DCFD054600BF706F8007DE
:100D8000B6D4FFF7D5FD401B0228F7D9DDE000BF40
:100D9000306C10F080580AD100200190306C40F087
:100DA00080503064306C00F080500190019847F220
:100DB0000007C4F200073868C00541D4386840F421
:100DC00080703860FFF7B4FD054600BF3868C00585
:100DD00036D4FFF7ADFD401B0228F7D9B5E000BFC0
:100DE000B06800F00C00082803D1706840023FF59D
:100DF00058AF6068B0F5803F07D0B0F5A02F40F045
:100E00008D80306840F480203060306840F480305D
:100E100030608DE0E068002852D00020C4F2472006
:100E200001210160FFF784FD054600BF306880079F
:100E30003FF554AFFFF77CFD401B0228F6D984E054
:100E4000A068012805D005284ED1306F40F004007D
:100E50003067306F40F0010030674FE00021C0F88C
:100E6000801EFFF765FD0546706F80077FF540AF78
:100E7000FFF75EFD401B0228F6D966E00027C4F2AA
:100E8000472700203866FFF753FD022D05460BD19A
:100E9000306880015ED5FFF74BFD401B02284FF004
:100EA0000300F5D955E700BF306880017FF550AFEA
:100EB000FFF73EFD401B02284FF00300F4D948E73E
:100EC0000020C4F2472000210160FFF731FD0546F4
:100ED000306880077FF509AFFFF72AFD401B022825
:100EE0004FF00300F4D934E7316F002821F00101FD
:100EF0003167316F21F0040131674DD0FFF718FDE4
:100F0000054641F2883700BF306F800756D4FFF79F
:100F10000FFD401BB842F7D917E000BF3168002829
:100F200021F480313160316821F4802131604FD06B
:100F3000FFF7FEFC054600BF306880033FF5B7AE03
:100F4000FFF7F6FC401B6428F6D9032002B0BDE889
:100F5000F08100BF04F11C052FCD084340EA821048
:100F6000D9034FF6FF729143A1F5803140EA056045
:100F70000843706001203866FFF7DAFC044600BFC2
:100F8000306880013FF5E4AEFFF7D2FC001B022879
:100F90004FF00300F4D9DCE6FFF7CAFC054641F246
:100FA000883700BF306F800708D5FFF7C1FC401BB2
:100FB000B8424FF00300F5D9CBE600BFB8F1000FFF
:100FC0007FF499AE306C20F08050306493E600BF1F
:100FD000FFF7AEFC054600BF306880037FF567AEC3
:100FE000FFF7A6FC401B64284FF00300F4D9B0E6DD
:100FF000411E0020B0EB116F1CBF012070474EF264
:101000001002CEF2000251604EF62351CEF20001E2
:10101000F0230B700721906011607047704700004B
:101020007047000010B590F83C20012A4FF00202F2
:1010300051D080F83D200268D2F804E0D2F808C010
:101040000C682EF07003234341F2FF74C4F20004D5
:10105000A24253600EDC40F2FF73C4F200039A42D6
:1010600016DCB2F1804F2BD040F20043C4F20003F3
:1010700024E000BF40F2FF33C4F201039A4213DCC4
:1010800041F60003C4F200039A4219D0002313E092
:1010900040F60003C4F200039A4211D040F6004328
:1010A000C4F200030AE000BF44F20003C4F20103EB
:1010B0009A4205D040F20043C4F201039A4204D19F
:1010C00049682CF08003194391600121002280F8C7
:1010D0003D1080F83C20104610BD0000002804BFE1
:1010E0000120704710B5044690F83D0028B9002053
:1010F00084F83C00204600F01FF8022084F83D00F0
:101100002068211D00F030FB012084F8460084F89F
:101110003E0084F83F0084F8400084F8410084F8E1
:10112000420084F8430084F8440084F8450084F8C1
:101130003D00002010BD000010B582B0006841F2F3
:101140000041C4F20001884216D041F20001C4F20D
:10115000000188422CD10020019043F64000C4F2E7
:1011600002000168362441F010010160006800F0BF
:101170001000019001980FE00020009043F640001D
:10118000C4F202000168372441F0200101600068C8
:1011900000F0200000900098204600210022FFF778
:1011A0004BFC204602B0BDE81040FFF731BC00BF49
:1011B00002B010BD90F83D1001291CBF01207047FE
:1011C000022180F83D10006841F2FF72C168C4F24C
:1011D0000002904241F00101C1600DDC40F2FF715C
:1011E000C4F20001884215DCB0F1804F2AD040F2F1
:1011F0000041C4F2000123E040F2FF31C4F20101DA
:10120000884213DC41F60001C4F20001884219D083
:10121000002113E040F60001C4F20001884211D021
:1012200040F60041C4F200010AE000BF44F20001B0
:10123000C4F20101884205D040F20041C4F201012C
:10124000884206D1816801F00701062904BF002009
:101250007047016841F00101016000207047000003
:101260000146006841F21113026A1A4204D00122B9
:10127000002081F83D207047026A40F244431A4240
:10128000F5D1026822F0010202600122002081F8FB
:101290003D2070477047000010B50168044608699A
:1012A000800744BFC8685FEA807039D40869400786
:1012B00044BFC8685FEA40703ED40869000744BF75
:1012C000C8685FEA007045D40869C00644BFC868B2
:1012D0005FEAC0604AD40869C0071CBFC8685FEAFB
:1012E000C07051D10869000644BFC8685FEA006059
:1012F00052D40869400644BFC8685FEA406053D4CE
:101300000869800646BFC8685FEA806010BD6FF05C
:10131000200220460A61BDE81040FFF781BE00BFF1
:101320006FF002000861012020778869800743D0B0
:101330002046FFF7AFFF45E06FF004000861022090
:101340002077886910F4407F40D02046FFF7A2FF45
:1013500042E000BF6FF00800086104202077C869F0
:1013600080073DD02046FFF795FF3FE06FF010006B
:10137000086108202077C86910F4407F3AD02046E1
:10138000FFF788FF3CE000BF6FF0010008612046D6
:1013900000F03EF82168A5E76FF080000861204664
:1013A000FFF73CFE2168A4E76FF04000086120468B
:1013B00000F0A2F82168A3E7204600F025F82046B7
:1013C00000F024F82168002020776FE7204600F025
:1013D0001BF8204600F01AF82168002020776CE7FF
:1013E000204600F011F8204600F010F82168002097
:1013F000207769E7204600F007F8204600F006F85D
:1014000021680020207766E77047000070470000E1
:1014100010B5006841F20041C4F2000188421DD0BD
:1014200041F20001C4F20001884258D140F2700438
:10143000C2F20004606801F091F89FED2D0B53ECAF
:10144000102B00F031FF00F0FDFE40F20C01C2F263
:10145000000108600020606010BD00BF41F2000084
:10146000C4F202004FF40071FFF756FA40F2700424
:10147000C2F200040146A060D4E90403012900F18E
:101480000100206108BF002B06D0E268002908BFD8
:10149000012B06D1002101E0E26801210132E26066
:1014A0006161032A18BF10BD01F058F89FED0C0BC5
:1014B00002460B4651EC100B00F0F6FE9FED0A0BB6
:1014C00053EC102B00F0F0FE00F0BCFE40F20C01DB
:1014D000C2F20001086000200121C4E9031010BD20
:1014E0000000000000408F40F6285C8FC2F5F03FFE
:1014F000295C8FC2F528004070470000FEE700001D
:10150000B0B584B040F2980042F2000101220024FC
:10151000C2F20000C4F20101C0F60072012503947A
:10152000047680F82040C0E90A24C56180F8304084
:10153000C0E90014C0E90244C0E90445FFF722F8FD
:10154000002818BFFEF774FF40F29800C2F20000B6
:101550006946CDE900450294FEF770FF002818BFE8
:10156000FEF766FF04B0B0BD2DE9F04F87B000254F
:1015700043F63000CDE905550195C4F2020001683B
:10158000002641F0010101600168C4F2020601F089
:1015900001010191019901950168002241F01001BA
:1015A000016001684FF4806A01F010010191019916
:1015B0000195016841F004010160016801F0040136
:1015C000019101990195016841F0080101600068ED
:1015D0004FF4806100F00800019001983046FFF759
:1015E000A1F906F5006948464FF4E0510022FFF7E3
:1015F00099F906F540684046FF210022FFF792F96D
:101600004FF4807002904FF4881006F5805402AFBA
:1016100003904FF0010B20463946CDF810B0FFF78C
:10162000A7F84FF40070CDE902052046394604952D
:10163000FFF79EF830463946CDE902ABCDE90455B7
:10164000FFF796F84FF4E050CDE9020B48463946D3
:10165000CDE90455FFF78CF8FF20CDE9020B404699
:101660003946CDE90455FFF783F8172002210022FF
:10167000FFF7E2F91720FFF7CBF907B0BDE8F08FCD
:1016800080B582B040F2E00041F200020021C2F2D7
:101690000000C4F2000241F63F7340F69F7CCDE9A2
:1016A0000011C0E90023C0E9021C8161FFF716FDAB
:1016B000002818BFFEF7BCFE40F2E000C2F20000B6
:1016C0006946FFF7AFFC002818BFFEF7B1FE02B075
:1016D00080BD000080B582B040F2281041F2004287
:1016E0000021C2F20000C4F2000240F247334FF082
:1016F000130CCDE90011C0E90023C0E9021C81618F
:10170000FFF7ECFC002818BFFEF792FE40F228100D
:10171000C2F200006946FFF785FC002818BFFEF7FB
:1017200087FE02B080BD0000FEE70000FEE700007B
:101730007047000070470000FFF700B94EF6885070
:10174000CEF20000016841F47001016070470000B2
:1017500040F2E000C2F20000FFF79EBD40F2281008
:10176000C2F20000FFF798BD10B540F6FF3E0368D7
:10177000C4F2000E40F2004C7045C4F2010C27DCAC
:10178000B0F1804F31D040F20042C4F200029042EA
:101790002BD040F60002C4F20002904225D041F660
:1017A000FF72C4F20002904229DC70453CDCB0F1CB
:1017B000804F5FD040F20042C4F20002904259D004
:1017C00040F60002C4F20002904253D056E000BF3F
:1017D00040F60042C4F20002904206D0604504D0B8
:1017E0000022C4F201029042D9D14A6823F070036A
:1017F000134341F6FF72C4F200029042D5DD43F676
:10180000FF72C4F20102904222DC42F20002C4F2F2
:10181000000290422ED00022C4F20102904229D050
:10182000604527D02AE000BF40F60042C4F2000223
:1018300090421FD041F60002C4F20002904219D03B
:1018400041F60042C4F20002904213D016E000BFFD
:1018500044F20002C4F2010290420BD044F60002AE
:10186000C4F20102904205D044F20042C4F20102E7
:10187000904203D1CA6823F44073134323F08002DB
:101880004B69D1F800E08C681A430260C46240F4EE
:101890008062C0F828E0624504BF09690163012144
:1018A000416110BDFEE7000096B040F60044C4F26E
:1018B0000204FFF751F80AAD281D2C21FEF74CFD5C
:1018C000002643F640000996CDE90766CDE9056696
:1018D0000496C4F20200016841F080510160006882
:1018E00000F080500490049846F200400496CFF631
:1018F000FE70215841F480412150205800F480406E
:101900000490049802200A9001200D9010200E905F
:1019100028461096FFF7B2F920B1EFF3108072B6A7
:10192000FEE700BF0F20CDE9050605A80021CDE99F
:1019300007660996FFF7BCF830B1EFF3108072B676
:10194000FEE700BF0000C842FFF70EFEFFF798FE5B
:10195000FFF7C0FEFFF7D4FD40F2E000C2F2000046
:10196000FFF728FC40F20C051FED0A8AC2F20005C1
:10197000A4F5806BA4F54060CDE9020B7AE000BFCE
:1019800042F28860C0F6000010F8019042F27E60DA
:10199000C0F6000010F801A042F27460C0F600002A
:1019A000455C42F26A60C0F60000465C42F260604C
:1019B000C0F60000475C42F25660C0F60000425C90
:1019C00042F29260C0F6000010F8018020468021AB
:1019D000FEF7A8FF204640213A46FEF7A3FF204627
:1019E00020213246FEF79EFF204610212A46FEF7B0
:1019F00099FF204608215246FEF794FF2046042115
:101A00004A46FEF78FFF204602214246FEF78AFF34
:101A100058464FF480510022FEF784FF2046802173
:101A20000022FEF77FFF204640210022FEF77AFFCA
:101A3000204620210022FEF775FF204610210022BB
:101A4000FEF770FF204608210022FEF76BFF2046BC
:101A500004210022FEF766FF204602210022FEF745
:101A600061FF204601210022FEF75CFF40F20C05D9
:101A7000C2F2000595ED000AB4EE480AF1EE10FA44
:101A800080F2FC8140F22810C2F20000FFF792FBC6
:101A900040F2E000C2F20000FFF7E2FB95ED000A21
:101AA00044F6D35120EE080ABDEEC00A10EE100A2B
:101AB000C1F2620150FB01F18A1102EBD17948F2C7
:101AC0001F51C5F2EB1150FB01F14A1146F2676557
:101AD00002EBD171C6F2666551FB05F2931003EB80
:101AE000D27202EB8202A1EB420750FB05F18A1091
:101AF00002EBD17151FB05F2931003EBD27202EBB2
:101B0000820240F27006A1EB420801EB8101C2F2B1
:101B10000006A0EB41000190706258464FF48051DE
:101B2000012286ED000AC6F81890F761C6F82080F9
:101B3000FEF7F8FE204601210122FEF7F3FE58468B
:101B40004FF480510022FEF7EDFE204601210022D5
:101B5000FEF7E8FE02984FF480610122FEF7E2FEF4
:101B6000B9F1090F4ED842F25660C0F6000010F8E5
:101B7000092042F26060C0F6000010F8096042F2ED
:101B80006A60C0F6000010F8095042F27460C0F6B6
:101B9000000010F809B042F27E60C0F6000010F8B4
:101BA00009A042F28860C0F6000010F80900802108
:101BB000009042F29260C0F6000010F809902046B2
:101BC000FEF7B0FE204640213246FEF7ABFE20462F
:101BD00020212A46FEF7A6FE204610215A46DDF8AF
:101BE0000CB0FEF79FFE204608215246FEF79AFEF3
:101BF000009A20460421FEF795FE204602214A461F
:101C0000FEF790FE02984FF480610022FEF78AFEF4
:101C1000204680210022FEF785FE2046402100223A
:101C2000FEF780FE204620210022FEF77BFE2046A4
:101C300010210022FEF776FE204608210022FEF742
:101C400071FE204604210022FEF76CFE2046022190
:101C50000022FEF767FE204601210022FEF762FE09
:101C600058464FF480610122FEF75CFE092F49D8E7
:101C700042F25660C0F60000C25D42F26060C0F6FB
:101C80000000C65D42F26A60C0F60000C55D42F227
:101C90007460C0F6000010F807B042F27E60C0F633
:101CA000000010F807A042F28860C0F6000010F8AB
:101CB000079042F29260C0F60000C75D2046802186
:101CC000FEF730FE204640213246FEF72BFE20462E
:101CD00020212A46FEF726FE204610215A46DDF82E
:101CE0000CB0FEF71FFE204608215246FEF71AFEF2
:101CF000204604214A46FEF715FE204602213A46B8
:101D0000FEF710FE58464FF480610022FEF70AFEEF
:101D1000204680210022FEF705FE204640210022B9
:101D2000FEF700FE204620210022FEF7FBFD2046A4
:101D300010210022FEF7F6FD204608210022FEF7C2
:101D4000F1FD204604210022FEF7ECFD2046022191
:101D50000022FEF7E7FD204601210022FEF7E2FD0A
:101D600058464FF400610122FEF7DCFDB8F1090F7F
:101D70004BD842F25660C0F6000010F8082042F23C
:101D80006060C0F6000010F8086042F26A60C0F6B9
:101D9000000010F8085042F27460C0F6000010F81D
:101DA000087042F27E60C0F6000010F808A042F20F
:101DB0008860C0F6000010F8089042F29260C0F609
:101DC000000010F8088020468021FEF7ABFD204679
:101DD00040213246FEF7A6FD204620212A46FEF786
:101DE000A1FD204610213A46FEF79CFD2046082121
:101DF0005246FEF797FD204604214A46FEF792FD23
:101E0000204602214246FEF78DFD58464FF4006100
:101E10000022FEF787FD204680210022FEF782FD8A
:101E2000204640210022FEF77DFD20462021002291
:101E3000FEF778FD204610210022FEF773FD2046B4
:101E400008210022FEF76EFD204604210022FEF745
:101E500069FD204602210022FEF764FD2046012193
:101E60000022FEF75FFD58464FF480510122FEF735
:101E700059FD019909297FF683ADC9E540F2E000DB
:101E8000C2F20000FFF796F940F22810C2F20000FB
:101E9000FFF7E6F995ED000A44F6D351BDEEC00A0E
:101EA00010EE100AC1F2620150FB01F18A1102EB3F
:101EB000D17548F21F51C5F2EB1150FB01F14A11E7
:101EC00046F2676702EBD171C6F2666751FB07F213
:101ED000931003EBD27202EB8202A1EB420A50FB99
:101EE00007F18A1002EBD17151FB07F2931003EB5B
:101EF000D27202EB820240F27006A1EB420B01EBC0
:101F00008101C2F20006A0EB4100019070620298CC
:101F10004FF48061012286ED000AB561C6F81CA06D
:101F2000C6F820B0FEF7FEFC092D47D842F25660F5
:101F3000C0F60000425D42F26060C0F6000010F89A
:101F4000058042F26A60C0F6000010F8059042F287
:101F50007460C0F60000475D42F27E60C0F600008B
:101F6000465D42F28860C0F60000405D802100902E
:101F700042F29260C0F60000455D2046FEF7D2FCBA
:101F8000204640214246FEF7CDFC204620214A460D
:101F9000FEF7C8FC204610213A46FEF7C3FC204657
:101FA00008213246FEF7BEFC009A20460421FEF7C7
:101FB000B9FC204602212A46FEF7B4FC02984FF4F1
:101FC00080610022FEF7AEFC204680210022FEF751
:101FD000A9FC204640210022FEF7A4FC2046202137
:101FE0000022FEF79FFC204610210022FEF79AFCFB
:101FF000204608210022FEF795FC204604210022FD
:10200000FEF790FC204602210022FEF78BFC2046C2
:1020100001210022FEF786FC03984FF48061012223
:10202000FEF780FCBAF1090F4BD842F25660C0F6B9
:10203000000010F80A2042F26060C0F6000010F8BC
:102040000A6042F26A60C0F6000010F80A5042F2DC
:102050007460C0F6000010F80A8042F27E60C0F69C
:10206000000010F80A7042F28860C0F6000010F814
:102070000A9042F29260C0F6000010F80AA02046D2
:102080008021FEF74FFC204640213246FEF74AFCF5
:10209000204620212A46FEF745FC204610214246D4
:1020A000FEF740FC204608213A46FEF73BFC20465E
:1020B00004214A46FEF736FC204602215246FEF72E
:1020C00031FC039D4FF4806128460022FEF72AFC74
:1020D000204680210022FEF725FC204640210022D8
:1020E000FEF720FC204620210022FEF71BFC2046A4
:1020F00010210022FEF716FC204608210022FEF7E0
:1021000011FC204604210022FEF70CFC204602218F
:102110000022FEF707FC204601210022FEF702FC08
:1021200028464FF400610122FEF7FCFBBBF1090FCA
:102130004BD842F25660C0F6000010F80B2042F275
:102140006060C0F6000010F80B6042F26A60C0F6F2
:10215000000010F80B5042F27460C0F6000010F856
:102160000B7042F27E60C0F6000010F80BA042F245
:102170008860C0F6000010F80B9042F29260C0F642
:10218000000010F80B8020468021FEF7CBFB204694
:1021900040213246FEF7C6FB204620212A46FEF7A4
:1021A000C1FB204610213A46FEF7BCFB2046082121
:1021B0005246FEF7B7FB204604214A46FEF7B2FB23
:1021C000204602214246FEF7ADFBDDF80CB04FF48D
:1021D000006158460022FEF7A5FB20468021002220
:1021E000FEF7A0FB204640210022FEF79BFB204685
:1021F00020210022FEF796FB204610210022FEF748
:1022000091FB204608210022FEF78CFB204604218A
:102210000022FEF787FB204602210022FEF782FB08
:10222000204601210022FEF77DFB58464FF48051E5
:102230000122FEF777FB01990A29FFF4A1ABFFF712
:10224000E7BB000021F0004201F00043A2F1605220
:10225000B2F5801F28BFD2F17F6C0BD95FEA001C5A
:1022600043EAC20242EB507018BF704728BF20F00B
:1022700001007047B2F5801FBCBF184670474FEA97
:10228000410C1CF5001F02D2084600F0DFB970B502
:1022900000F07BF900000089FFF7F6BF4FF0004027
:1022A000A0F58000704700002DE9C04130B4DFF890
:1022B000A4C23CEA111418BF3CEA131400F0ED80EC
:1022C0001CEA111481EA030544EAD57418BF1CEA1C
:1022D000131500F0C880A4EB050404F17F7404F525
:1022E00000344FF0004545EAC12145EAC32341EAE5
:1022F000505143EA52534FEAC0204FEAC22299425A
:1023000008BF904200F09D804FEA13650FF244161B
:10231000765D4FEA134506FB05F7C7F1807706FBAC
:1023200007F74FEAD737A7FB03687642A7FB06CE2D
:10233000C8F5803838BFA8F1010807FB08E6A6FBFE
:10234000028C4FF0000EE6FB03CEDCF1000CCEF168
:10235000004E38BFAEF1010EA6FB0C584FF000073F
:10236000E6FB0E87A1FB08C6A0FB07CE16EB0E0608
:102370004FF0000545F10005E1FB076515F1E04E62
:102380007EBFA4F580345FEA46066D4116F18007F2
:1023900045F100054FEA172747EA05674FEA15257B
:1023A0004FEA0666A6F1DE46B6F1805F20D93846D0
:1023B00005EBC47124F0010C01EB0C11BCF1FE6FB4
:1023C00002D8F0BCBDE8008124425CBF01F5801E4C
:1023D0009EEAC47F02D4F0BCBDE80081244200F133
:1023E0003980A1F1C041F0BCBDE8004100F01BB94B
:1023F0004FEAD02040EA41504FEAD1214FEAD222A1
:1024000042EA43524FEAD323A7FB028607FB036647
:1024100005FB02661EEA0E0F58BFA6EB0056B6EB90
:1024200000564FEA520E4EEAC37E18EB0E0E56EBE4
:10243000530EBCD518EB02085E417F1C55F1000518
:10244000B5E74FF480154FF000074FF000064FF04E
:102450000008ACE701F1C04101F000414FF000007D
:10246000F0BCBDE800810CEA131511EA0C1F00D086
:102470000CE013EA0C1F00F026804FF0000081EA08
:10248000030101F00041F0BCBDE80081F0BCBDE8F3
:10249000004181EA030100F0C6B8F0BCBDE800418C
:1024A00070B500F072F800BF097EFC3E00F007B87E
:1024B0004FF0000081EA030101F00041704781EA1A
:1024C000030100F0B0B8F0BCBDE8004122494FF074
:1024D00000007047FFFDFBF9F7F5F4F2F0EEEDEBCD
:1024E000E9E8E6E4E3E1E0DEDDDBDAD8D7D5D4D312
:1024F000D1D0CFCDCCCBCAC8C7C6C5C4C2C1C0BF5E
:10250000BEBDBCBBBAB9B8B7B6B5B4B3B2B1B0AF63
:10251000AEADACABAAA9A8A8A7A6A5A4A3A3A2A147
:10252000A09F9F9E9D9C9C9B9A9999989797969502
:1025300095949393929191908F8F8E8E8D8C8C8B9E
:102540008B8A898988888787868585848483838226
:10255000828181800000FF070000F87F10F00042B8
:1025600048BF4042B0FA80F310FA03F10AD0C3F139
:102570001D0303F5806302EB03524FEA415002EB67
:10258000D12170474FF0000070470EF1020E2EF07F
:10259000030E5EF8046B364205D4012A43EB0305B3
:1025A00015F5001F12D8012841EB010C1CF5001F86
:1025B0000CD80ED14FEAD17C0CEB4C0C0CF1020C78
:1025C00015F5001F08BF4CEBD37C04E04FF0080C5E
:1025D00001E04FEAD37C0CEB4C0526FA05F606F039
:1025E0000706B6F1040C06D20EEB860CBDE870406F
:1025F0004CF0010C6047DFE80CF0090B02024FF0D1
:102600000041A1F500214FF0000070BD19461046B1
:10261000012851EB010418BFD4F5001484BF002039
:1026200001F0004170BD0808A0F500114FEA31012A
:102630007047F1EE100A4FF6FF71C0F2C03120EA88
:10264000010040F04070E1EE100A7047FF2141EABE
:10265000D050C005704701000101000101010101D6
:10266000010101010100000101010101000101015D
:10267000010101010100010100010100010101004E
:102680000100000001000100010000000101010043
:102690000101000001010101010001010000000031
:1026A000000000000102030406070809D026000804
:1026B0000000002010000000C4010008E02600080F
:1026C0001000002068070000E00100080000000082
:1026D00001000000100000000024F40000007A4413
:040000050800018965
:00000001FF
