:020000040800F2
:10000000F008002029020008A91C0008B91A0008FD
:10001000A51C000841040008091E0008000000009B
:10002000000000000000000000000000B11C0008FB
:10003000B104000800000000AD1C0008B51C000859
:10004000430200084302000843020008430200087C
:10005000430200084302000843020008430200086C
:10006000430200084302000843020008430200085C
:10007000430200084302000843020008430200084C
:10008000A5040008430200084302000843020008D8
:10009000430200084302000843020008D504000898
:1000A000430200084302000843020008430200081C
:1000B000430200084302000843020008430200080C
:1000C00043020008430200084302000843020008FC
:1000D00043020008430200084302000843020008EC
:1000E000B504000843020008430200084302000868
:1000F00043020008430200084302000843020008CC
:1001000043020008430200084302000843020008BB
:1001100043020008430200084302000843020008AB
:10012000430200084302000843020008430200089B
:10013000430200084302000843020008430200088B
:10014000430200084302000843020008430200087B
:10015000430200084302000843020008430200086B
:10016000430200084302000843020008430200085B
:100170004302000843020008430200080000000098
:10018000430200084302000800F002F800F03CF8C7
:100190000AA090E8000C82448344AAF10107DA45E2
:1001A00001D100F031F8AFF2090EBAE80F0013F0F8
:1001B000010F18BFFB1A43F001031847FC3B000076
:1001C0001C3C0000103A24BF78C878C1FAD8520706
:1001D00024BF30C830C144BF04680C6070470000C1
:1001E0000023002400250026103A28BF78C1FBD840
:1001F000520728BF30C148BF0B6070471FB503F0DE
:1002000027FD1FBD10B510BD00F0E4F81146FFF743
:10021000F5FF02F089F800F002F903B4FFF7F2FFEE
:1002200003BC00F005F90000094880470948004771
:10023000FEE7FEE7FEE7FEE7FEE7FEE7FEE7FEE796
:10024000FEE7FEE704480549054A064B70470000F3
:10025000B91C000889010008F0020020F008002005
:10026000F0040020F004002053EA020C00F0698042
:100270002DE9F04B4FF00006002B1FBFB3FA83F5BA
:1002800003FA05F424FA05F65E4012BF1643B2FAEB
:1002900082F502FA05F4C5F120051EBF22FA05FC1D
:1002A00044EA0C04203556EA044C4FEA144418BFC3
:1002B000641C4FF000084FF00009904271EB030CF2
:1002C00039D3002919BFB1FA81F701FA07F6B0FA5C
:1002D00080F700FA07F6C7F120071EBF20FA07FCD7
:1002E00046EA0C062037B6FBF4FCA7EB0507103FE7
:1002F00007F01F0BCBF120062CFA06F60CFA0BFBCD
:1003000044BFB3460026202FA4BF5E464FF0000B2B
:100310005BEA060C08BF4FF0010B19EB0B0948EB29
:100320000608ABFB027C06FB02CC0BFB03CCC01B1C
:1003300071EB0C01C1E70B46024641464846BDE859
:10034000F08B13B5084318BF4FF0FF300146AFF3F1
:100350000080BDE81C4070474FF0000200B5134616
:1003600094469646203922BFA0E80C50A0E80C50D5
:10037000B1F12001BFF4F7AF090728BFA0E80C5086
:1003800048BF0CC05DF804EB890028BF40F8042B7F
:1003900008BF704748BF20F8022B11F0804F18BFEC
:1003A00000F8012B704770477047704710B500F098
:1003B00009F8006810BD10B5044600F003F80460A9
:1003C00010BD00000048704728000020004870471A
:1003D000280000207546FFF7F9FFAE460500694684
:1003E000534620F00700854618B020B5FFF72AFFD6
:1003F000BDE820404FF000064FF000074FF0000826
:100400004FF0000BAC46ACE8C009ACE8C009ACE862
:10041000C009ACE8C00921F007018D46704710B54E
:100420000446AFF300802046BDE81040FFF7F5BE5C
:1004300001491820ABBEFEE726000200704700000D
:10044000FEE7000010B5846B204600F081F8012023
:10045000207110BD10B5846B204600F04DF80120CE
:10046000207110BD10B5846B206940F0040020613C
:10047000204600F071F80120207110BD10B5846B8A
:10048000206940F004002061204600F039F8012086
:10049000207110BD806B00F05DB80000806B00F033
:1004A0002DB8000040F2B400C2F2000000F0BAB96A
:1004B0007047000080B54FF4806000F039FD4FF4C4
:1004C000006000F035FD4FF48050BDE8804000F042
:1004D0002FBD000080B54FF4807000F029FD4FF46F
:1004E0000070BDE8804000F023BD0000EFF31080F5
:1004F00072B600BFFEE700007047000070470000C2
:100500007047000010B54379012B4FF002031DD056
:100510000371036802F0100ED3F800C0D1E9004166
:1005200040F6FE7202FA0EF221432CEA020201FAB0
:100530000EF111431960C0211A6801FA0EF122EA86
:10054000010119600121002301714371184610BD9A
:10055000704700007047000070470000002804BF8B
:100560000120704710B50446007920B90020607161
:10057000204600F007F802202071002001212061B0
:10058000217110BDF0B587B0044647F200402168E4
:10059000C4F20000002681420696059602D007B0FC
:1005A000F0BD00BF43F630010196C4F202010A69B2
:1005B00000F5C63042F000520A610A6902F00052AA
:1005C0000192019A01960A6842F001020A600968E4
:1005D00001F0010101910199102102910321CDE95E
:1005E000031602A900F0B0FC40F2B40546F2880000
:1005F000C2F20005C4F202004FF0606140224FF4E5
:10060000806385E8470005F110004FF4006C4FF45B
:10061000005E4FF4807780E808502846C5E90776E9
:100620006E6200F0DFF9002818BFFFF75FFFA560DA
:10063000AC6307B0F0BD00002DE9F04104464079FD
:1006400001284FF0020008BFBDE8F08188460699F6
:100650000126B8F1000F667120711FD0E06840F2EA
:10066000554540F29D47C0F60005C0F60007C0E9B9
:100670000F5740F27D472668C0F60007C764376809
:10068000082947F08057376028D004292AD000294C
:100690000CBF06F11405002526E000BFA06840F25B
:1006A000454640F2954CC0F60006C0F6000CC0E985
:1006B0000F6C40F265462568C0F60006C6642E68D9
:1006C000082946F480562E6016D0042918D0002937
:1006D0000CBF05F1080C4FF0000C13E006F11C05EF
:1006E00002E000BF06F11805316841F000513160A9
:1006F00011462A460CE000BF05F1100C02E000BFD5
:1007000005F10C0C296841F400512960114662463C
:1007100000F01AFA0021617140B104F110010422C5
:100720000B681A430A60BDE8F08100BF08F01002B0
:100730000123216803FA02F20B681A430A60BDE83C
:10074000F081000070B50446226801F010004FF4FB
:10075000805CD2F800E00CFA00F32EEA0303136089
:100760000125136805FA00F023EA000010600C2050
:10077000002908BF082020586FF0005608BF6FF40A
:10078000005600F007F82068016831400160002041
:10079000257170BD70B5866D044600F0AFFC94F80D
:1007A0003510022928D105462068216C026822F004
:1007B00016020260426922F08002426109B9A16C0E
:1007C00019B1016821F008010160016821F00101FF
:1007D000016000BF20680068C00715D000F08EFCE3
:1007E000401B0628F6D320206065032084F83500DE
:1007F000002184F8341070BD802060650120002144
:1008000084F8341070BD00BFE06D3F2101FA00F0A4
:10081000B060012084F835000020002184F83410F5
:1008200070BD0000F0B581B004460020009040F299
:100830002000C2F200000268D4E9166048F2B51345
:1008400037680821C1F64E3381403942A2FB0325A7
:100850000CD0226813685B0708D5136823F00403E3
:100860001360B160616D41F001016165012181405A
:10087000394208D022685269120604D5B160616D10
:1008800041F00201616504218140394208D02268AB
:100890001268920704D5B160616D41F00401616591
:1008A00010218140394217D020680268120713D501
:1008B000B16002680168520308D4C90508D4016810
:1008C00021F008010160216C21B905E008033FD443
:1008D000216C09B120468847E16D202000FA01F221
:1008E0003A4241D020680368DB063DD5B26094F8F7
:1008F00035300268052B1BD122F0160202604269D6
:1009000022F080024261226C0AB9A26C1AB102681C
:1009100022F0080202603F208840B060012084F885
:100920003500216D0020002984F8340052D157E0B1
:100930000168520310D4C90512D4016821F01001D6
:100940000160012084F83500002084F8340007E0BD
:10095000A16C0029BED1BFE7080301D4616C00E09F
:10096000E16B09B120468847606DC8B3606DC00770
:100970002ED0052084F835002068A90A026822F0EC
:1009800001020260009A01328A4200921AD802687B
:10099000D20717D0009A01328A42009212D8026818
:1009A000D2070FD0009A01328A4200920AD8026818
:1009B000D20707D0009A01328A42009202D8026818
:1009C000D207DFD1012084F83500002084F83400FC
:1009D000E16C29B1204601B0BDE8F040084700BFF6
:1009E00001B0F0BD2DE9F041044600F087FBECB109
:1009F0000546022084F835000020216884F8340080
:100A0000086820F00100086021680868C00711D05C
:100A100000F074FB401B0528F6D903252023032092
:100A2000636584F83550BDE8F08100BF0120BDE862
:100A3000F08100BF086848F23F02CFF21002D4E90B
:100A4000013500EA020C04F10C0898E8C10143EA00
:100A50000C032B431843D4E9072E3043384310438B
:100A6000626A40EA0E00042A40EA08031CD1206BA7
:100A7000D4E90A2E40EA0E00184308604869BEF126
:100A8000000F20F0030040EA020040F0040C11D0F7
:100A9000B8F5005F36D0B8F1000F45D1022A46D034
:100AA000012A3BD032B942E00B60486920F00700D0
:100AB00040EA020C01F0F8004AF6AB221038CAF600
:100AC000AA22A0FB02231A0943F6B053C0F6000382
:100AD0009A5C40F2FF335F284FF03F00C1F814C02A
:100AE00021EA030100FA02F088BF0431C4E91612BA
:100AF0008860002301250020636584F83550BDE837
:100B0000F08100BF032AD5D8012540230120DFE86A
:100B100002F0030E030500BF82E700BFAEF1C07014
:100B2000B0FA80F0400904E0032A04D3C2D1CEF326
:100B300000600028BED0012540230120636584F8B1
:100B40003550BDE8F081000070B590F834C0BCF1BC
:100B5000010F46D04FF0010C80F834C0D0F858E0B7
:100B600090F835C0BCF1010F38D14FF0020C80F87D
:100B700035C04FF0000CC0F854C0D0F800C08468F5
:100B8000056CC06DDCF80060402C26F48026CCF8A3
:100B90000060CCF804300B4604BF13460A463F21E0
:100BA00001FA00F0CCF80830CCF80C20CEF80800A0
:100BB000DCF8000040F01600CCF800002DB1DCF8A5
:100BC000000040F00800CCF80000DCF8000040F025
:100BD0000100CCF80000002070BD00BF002180F8AB
:100BE0003410022070BD00002DE9F04381B00446AE
:100BF00000F084FA40F28805C2F200052968401A24
:100C0000B0F5967F40F284802869B4F5806F00F1DA
:100C10000100286110DBB4F5806F41D0B4F5006F9E
:100C20006ED0B4F5805F73D16868022840F0A4806C
:100C30000020C5E901006BE0B4F5807F6ED0B4F50B
:100C4000007F65D1A868022800F0A680012800F086
:100C5000C780002840F03D8140F20007C2F2000743
:100C600097ED020B9FEDAE1B51EC100B53EC112BCB
:100C700002F0B0FA9FEDA40B044653EC102B0E4685
:100C800002F0CAFF9FEDA20B002851EC102B04BF0D
:100C90003146224641EC102B87ED020B19E100BFD3
:100CA000A868022800F0AA80012800F0CD8078BB57
:100CB00040F20007C2F2000797ED020B9FED9A1B6E
:100CC00051EC100B53EC112B02F084FA9FED8E0BBC
:100CD000044653EC102B0E4602F09EFF9FED8C0B4A
:100CE000002851EC102B04BF3146224641EC102B5A
:100CF00087ED020B00F002FA286001B0BDE8F08336
:100D0000A868002840D0012802D100203DE000BFA3
:100D100000F0F4F9286001B0BDE8F083A86802286B
:100D200000F0A680012800F0C780002840F0D180A4
:100D300040F20007C2F2000797ED020B9FED701B17
:100D400051EC100B53EC112B02F044FA9FED6E0B9B
:100D5000044653EC102B0E4602F05EFF9FED6C0B29
:100D6000002851EC102B04BF3146224641EC102BD9
:100D700087ED020BADE000BF01300228686014BFB0
:100D80000020022001E000BF0120A86000F0B6F9B9
:100D9000286001B0BDE8F08340F20007C2F200070E
:100DA00097ED040B9FED5C1B51EC100B53EC112BDA
:100DB00002F010FA9FED4E0B044653EC102B0E463A
:100DC00002F02AFF9FED4C0B002851EC102B04BFC2
:100DD0003146224641EC102B87ED040B79E000BF31
:100DE00040F20000C2F20000016801F16402B1F5B6
:100DF000486FC8BF642202606BE000BF40F2000988
:100E0000C2F200099FED3C1B99ED040B54EC118BD1
:100E100051EC100B4246234602F0DCF99FED340BF7
:100E2000064653EC102B0F4602F0F6FE00281CBFBE
:100E30002746464647EC106B89ED040B00F05EF93F
:100E4000286001B0BDE8F08340F20000C2F200006B
:100E5000016840F6FC0301F57A729942C8BF64222A
:100E6000026000F04BF9286001B0BDE8F08300BFDC
:100E700040F20007C2F2000797ED040B9FED1A1B2A
:100E800051EC100B53EC112B02F0A4F99FED180B51
:100E9000044653EC102B0E4602F0BEFE9FED160BDF
:100EA000002851EC102B04BF3146224641EC102B98
:100EB00087ED040B0DE000BF40F20000C2F200001D
:100EC000016840F6DA4301F10A029942C8BF642280
:100ED000026001F0C5FA00F011F9286001B0BDE828
:100EE000F08300BF00BF00BF7B14AE47E17A843FB0
:100EF000CDCCCCCCCCCCEC3F9A9999999999B93F6F
:100F00000000000000002440000000000088C340F2
:100F1000000000000000E03F9A9999999999A93F33
:100F200000000000000059400000000000408F4019
:100F300043F61441C4F201010A68024214BF08607A
:100F40007047FFF751BE00002DE9F04F82B000F16D
:100F50003E4241F6004502F1FF77C4F20205082245
:100F600043F6004E4FEAB726A84208BF0722C4F254
:100F7000010E072E38BF4FEAB722012500260027B1
:100F80004FF00008009208E008F101080437B8F1BA
:100F9000100F06F1020600F0A7800C6805FA08F9A8
:100FA00014EA090FF0D0D1F804B003220BF0030CBF
:100FB000ACF10104B240012C6FEA020A10D8826839
:100FC000CC6802EA0A02B440224382604268CBF352
:100FD000001422EA090204FA08F42243426005E000
:100FE000BCF1030F02D14FF0030C20E0C2688C6803
:100FF00002EA0A02B4402243BCF1020FC26016D1D9
:101000006FF0030202EA58020244D2F820C007F04F
:101010001C050F230C69AB402CEA030304FA05F509
:101020002B431362D1F804B001250BF0030C0268C6
:101030000CFA06F302EA0A021A431BF4403F02606C
:10104000A2D0002243F644030192C4F202031A68BC
:101050004FF6084C42F480421A601A68CFF6FF7CC3
:1010600002F480420192019A28F00302724452F87D
:101070000C3007F00C050F24AC40A343009C04FA8D
:1010800005F52B4342F80C30DEF808204B6842EAA5
:10109000090543F60C4CDC0258BF22EA0905CEF8DC
:1010A0000850C4F2010CDCF800209C0242EA090559
:1010B00058BF22EA0905CCF80050DEF804209C0352
:1010C00042EA090558BF22EA0905CEF80450DEF8C5
:1010D0000020DB0342EA090558BF22EA0905CEF8E1
:1010E0000050012550E700BF02B0BDE8F08F0000BE
:1010F000002A08BF090481617047000040F2EC201B
:10110000C2F200000068704740F2180040F2EC2183
:10111000C2F20000C2F2000100780A6810440860C0
:101120007047000080B543F60040C4F20200016839
:1011300041F400710160016841F48061016001685F
:1011400041F480710160032000F088F80F2000F066
:1011500005F800F027F8002080BD000070B540F2CF
:101160001806C2F2000640F220013278C2F20001F5
:101170004FF47A730968B3FBF2F20446B1FBF2F163
:10118000084600F01BFB0F2C4FF0010508D838B9BA
:101190004FF0FF3021460022002500F033F8746044
:1011A000284670BD82B0002043F640010190C4F291
:1011B00002014A6842F480424A604A6802F480426E
:1011C0000192019A0090086840F080500860086819
:1011D00000F080500090009802B07047002848BF8F
:1011E0007047C1B200F01F00012202FA00F04EF277
:1011F0000012CEF2000242EAD10121F003010860A0
:101200007047000010B54EF60C5CCEF2000CDCF816
:101210000030C3F3022E8EF00704042C28BF0424F0
:10122000BEF103034FF0FF3E0EFA04F438BF002373
:10123000A14399400EFA03F39A43114300F00F02C1
:1012400000F160430901043A03F564436244002855
:1012500048BF02F10C03197010BD00004EF60C518E
:10126000CEF200010A684FF6FF031A4060F30A222B
:1012700042F0806040F0FD70086070472DE9F04159
:10128000002800F08B8043F60808C4F202080446E8
:10129000D8F8F8030D4600F00700884207D288F816
:1012A000F853D8F8F80300F00700A84276D1206878
:1012B000810717D5410705D5D8F8001041F4E05152
:1012C000C8F80010010705D5D8F8001041F46041B6
:1012D000C8F80010D8F80010A26821F0F0011143FE
:1012E000C8F80010C0073FD1D8F8F80300F0070095
:1012F000A84207D988F8F853D8F8F80300F0070097
:10130000A8424BD12068410707D5D8F80010E26801
:1013100021F4E0511143C8F80010000708D5D8F8AF
:101320000000216920F4604040EAC100C8F80000D4
:1013300000F054F8D8F8001043F6A052C1F303119E
:10134000C0F60002515C40F2200220FA01F140F2A6
:101350001C00C2F200000068C2F200021160FFF738
:10136000FDFE0020BDE8F0816068811E022907D2E1
:1013700058F8081C89015CBF0120BDE8F08111E02C
:10138000012807D158F8081C89035CBF0120BDE87B
:10139000F08107E058F8081C890703D40120BDE854
:1013A000F08100BFD8F8001021F003010843C8F80D
:1013B0000000FFF7A3FE064641F28837D8F8000088
:1013C000616800F00C00B0EB810F8DD0FFF796FE46
:1013D000801BB842F2D90320BDE8F08110B543F676
:1013E0000404C4F20204606800F00C0008280BD06A
:1013F000042819BF42F20040C0F2F40047F6400052
:10140000C0F27D1010BD00BF20682168236849022A
:1014100047F64001C0F27D1100F03F02C3F388108F
:101420005CBF42F20041C0F2F401A1FB00010023C5
:10143000FEF71AFF21680222C1F3014102EB4101CC
:10144000B0FBF1F010BD00002DE9F04182B00028A2
:1014500068D00446007843F60006C007C4F20206CE
:101460000BD0B06800F00C00042840F09F8030687A
:10147000800302D56068002854D0207880071AD5F0
:10148000B06810F00C0F09D0B06800F00C0008280C
:1014900040F0A6807068400200F1A28030688007AA
:1014A00002D5E06801283DD13068216920F0F800BC
:1014B00040EAC10030602078000737D42078400728
:1014C0004CD4A56955B3B06800F00C00082840F072
:1014D000BB80012D26D07068E16900F480028A4249
:1014E00020D1216A00F03F028A421BD147F6C07129
:1014F000626A0140B1EB821F14D1A16A4FF6FF73FB
:10150000C903994300F44032A1F580318A4209D1E0
:10151000E16A00F07060B0EB016F03D1002002B00F
:10152000BDE8F081012002B0BDE8F08160690028CB
:1015300040F20000C4F2472076D00121C0F8801E9E
:10154000FFF7DCFD054600BF706F8007B6D4FFF7DC
:10155000D5FD401B0228F7D9DDE000BF306C10F04C
:1015600080580AD100200190306C40F080503064E7
:10157000306C00F080500190019847F20007C4F2EF
:1015800000073868C00541D4386840F4807038607E
:10159000FFF7B4FD054600BF3868C00536D4FFF735
:1015A000ADFD401B0228F7D9B5E000BFB06800F0E0
:1015B0000C00082803D1706840023FF558AF6068FE
:1015C000B0F5803F07D0B0F5A02F40F08D80306897
:1015D00040F480203060306840F4803030608DE02E
:1015E000E068002852D00020C4F2472001210160A9
:1015F000FFF784FD054600BF306880073FF554AF14
:10160000FFF77CFD401B0228F6D984E0A068012882
:1016100005D005284ED1306F40F004003067306FA0
:1016200040F0010030674FE00021C0F8801EFFF756
:1016300065FD0546706F80077FF540AFFFF75EFDE3
:10164000401B0228F6D966E00027C4F24727002095
:101650003866FFF753FD022D05460BD13068800137
:101660005ED5FFF74BFD401B02284FF00300F5D974
:1016700055E700BF306880017FF550AFFFF73EFDB2
:10168000401B02284FF00300F4D948E70020C4F2C1
:10169000472000210160FFF731FD054630688007D3
:1016A0007FF509AFFFF72AFD401B02284FF003002A
:1016B000F4D934E7316F002821F001013167316F2F
:1016C00021F0040131674DD0FFF718FD054641F2C6
:1016D000883700BF306F800756D4FFF70FFD401BDF
:1016E000B842F7D917E000BF3168002821F48031F3
:1016F0003160316821F4802131604FD0FFF7FEFC6A
:10170000054600BF306880033FF5B7AEFFF7F6FC33
:10171000401B6428F6D9032002B0BDE8F08100BF69
:1017200004F11C052FCD084340EA8210D9034FF67F
:10173000FF729143A1F5803140EA05600843706073
:1017400001203866FFF7DAFC044600BF30688001EC
:101750003FF5E4AEFFF7D2FC001B02284FF0030078
:10176000F4D9DCE6FFF7CAFC054641F2883700BF32
:10177000306F800708D5FFF7C1FC401BB8424FF01F
:101780000300F5D9CBE600BFB8F1000F7FF499AEA6
:10179000306C20F08050306493E600BFFFF7AEFC61
:1017A000054600BF306880037FF567AEFFF7A6FCF3
:1017B000401B64284FF00300F4D9B0E6411E00201E
:1017C000B0EB116F1CBF012070474EF21002CEF239
:1017D000000251604EF62351CEF20001F0230B704F
:1017E000072190601160704710B590F83C20012AE5
:1017F0004FF0020251D080F83D200268D2F804E098
:10180000D2F808C00C682EF07003234341F2FF7435
:10181000C4F20004A24253600EDC40F2FF73C4F233
:1018200000039A4216DCB2F1804F2BD040F2004305
:10183000C4F2000324E000BF40F2FF33C4F201030E
:101840009A4213DC41F60003C4F200039A4219D015
:10185000002313E040F60003C4F200039A4211D0C3
:1018600040F60043C4F200030AE000BF44F2000364
:10187000C4F201039A4205D040F20043C4F20103CE
:101880009A4204D149682CF08003194391600121E8
:10189000002280F83D1080F83C20104610BD00006A
:1018A000002804BF0120704710B5044690F83D00A1
:1018B00028B9002084F83C00204600F01FF80220E0
:1018C00084F83D002068211D00F000FA012084F812
:1018D000460084F83E0084F83F0084F8400084F815
:1018E000410084F8420084F8430084F8440084F8FE
:1018F000450084F83D00002010BD000081B0006864
:1019000041F20001C4F20001884201D001B07047E9
:101910000020009043F64000C4F20200016841F04C
:1019200010010160006800F010000090009801B004
:101930007047000090F83D1001291CBF012070473E
:10194000022180F83D10006841F2FF71C4F20001ED
:1019500088420DDC40F2FF71C4F20001884215DCC0
:10196000B0F1804F2AD040F20041C4F2000123E0E0
:1019700040F2FF31C4F20101884213DC41F600015C
:10198000C4F20001884219D0002113E040F60001A2
:10199000C4F20001884211D040F60041C4F20001B7
:1019A0000AE000BF44F20001C4F20101884205D000
:1019B00040F20041C4F20101884206D1816801F081
:1019C0000701062904BF00207047016841F00101AA
:1019D000016000207047000090F83D1001291CBFF5
:1019E00001207047022180F83D10006841F2FF722B
:1019F000C168C4F20002904241F00101C1600DDCF7
:101A000040F2FF71C4F20001884215DCB0F1804F52
:101A10002AD040F20041C4F2000123E040F2FF313D
:101A2000C4F20101884213DC41F60001C4F2000156
:101A3000884219D0002113E040F60001C4F20001F1
:101A4000884211D040F60041C4F200010AE000BF14
:101A500044F20001C4F20101884205D040F2004185
:101A6000C4F20101884206D1816801F0070106290C
:101A700004BF00207047016841F0010101600020AF
:101A8000704700000146006841F21113026A1A42D1
:101A900004D00122002081F83D207047026A40F204
:101AA00044431A42F5D1026822F001020260012289
:101AB000002081F83D207047FEE7000080B582B02D
:101AC000022001900420009040F2A00047F2004163
:101AD000C2F20000C4F200010160FEF73FFD0028E1
:101AE00018BFFEF703FD40F2A000C2F200006946F5
:101AF0000022FEF707FD002818BFFEF7F7FC02B032
:101B000080BD000080B582B00020019043F6300017
:101B1000C4F202000168002241F400110160006873
:101B2000002100F40010019001981020FFF76AFBDB
:101B3000102002B0BDE88040FFF750BB2DE9F04F08
:101B400087B0002443F63000CDE905440194C4F287
:101B50000200016840F6004841F00401016001689C
:101B6000C4F2020801F00401019101990194016895
:101B7000A8F5806641F0800101600168002201F053
:101B8000800101910199019401684FF4E85B41F0F3
:101B900001010160016801F00101019101990194C5
:101BA000016841F00801016000684FF4E85100F05D
:101BB0000800019001983046FFF79AFAA8F54065B1
:101BC00028464FF4806100224FF4806AFFF790FAB4
:101BD0004046FF210022FFF78BFA4FF4F8500290A5
:101BE0004FF4041002AF03904FF00109404639460C
:101BF000CDF81090FFF7A8F930463946CDE902B983
:101C0000CDE90444FFF7A0F928463946CDE902A9F9
:101C1000CDE90444FFF798F9FF20CDE902094046D9
:101C20003946CDE90444FFF78FF91720002100223F
:101C3000FFF7E8FA1720FFF7D1FA28200021002249
:101C4000FFF7E0FA2820FFF7C9FA07B0BDE8F08FE8
:101C500080B582B02020009040F214100021C2F222
:101C6000000041F200024FF0040C0191C4F20002A6
:101C70001823C0E9021C8021C0E900238161FFF71D
:101C80000FFE002818BFFEF731FC40F21410C2F21C
:101C900000006946FFF7A8FD002818BFFEF726FCE4
:101CA00002B080BDFEE70000FEE7000070470000C4
:101CB00070470000FFF728BA4EF68850CEF20000B9
:101CC000016841F4700101607047000010B540F6F2
:101CD000FF3E0368C4F2000E40F2004C7045C4F2AF
:101CE000010C27DCB0F1804F31D040F20042C4F249
:101CF000000290422BD040F60002C4F20002904253
:101D000025D041F6FF72C4F20002904229DC7045F2
:101D10003CDCB0F1804F5FD040F20042C4F20002E0
:101D2000904259D040F60002C4F20002904253D0D3
:101D300056E000BF40F60042C4F20002904206D0D6
:101D4000604504D00022C4F201029042D9D14A6811
:101D500023F07003134341F6FF72C4F20002904275
:101D6000D5DD43F6FF72C4F20102904222DC42F25A
:101D70000002C4F2000290422ED00022C4F20102FE
:101D8000904229D0604527D02AE000BF40F60042AB
:101D9000C4F2000290421FD041F60002C4F20002D9
:101DA000904219D041F60042C4F20002904213D092
:101DB00016E000BF44F20002C4F2010290420BD0D0
:101DC00044F60002C4F20102904205D044F20042FF
:101DD000C4F20102904203D1CA6823F44073134352
:101DE00023F080024B69D1F800E08C681A4302604E
:101DF000C46240F48062C0F828E0624504BF09690B
:101E000001630121416110BDFEE7000000000000F8
:101E10002DE9F04F81B02DED048B92B0054640F2D4
:101E20005C100C46C2F200004FF4C871FEF794FA41
:101E3000204601F048FC9FEDF40B02460B4651ECA6
:101E4000100B01F07BFA012C0C900B91C0F2D681A3
:101E5000284601F038FC0246601E032804F0030007
:101E600001900392109101D2002612E19FEDEA0B3E
:101E700024F003009FEDEA1B029053EC100B0A9331
:101E80000F9053EC110B9FEDE81B9FEDE10B9FEDC5
:101E9000EA8A9FEDE79BDDF830B000260E930990AB
:101EA00053EC110B6FF0010508930D9011960B9EEA
:101EB00053EC102B584631460595CDE9062301F029
:101EC000A5FC41EC100B00F0C3FC0F9A0A9B51ECEF
:101ED000100B01F07FF9DDF80CA0109B524601F0C9
:101EE00095FC099CDDF838802246434601F026FA2D
:101EF000DDF83490089B4A4601F088FC01F038F97F
:101F000000EE100AB4EE480AF1EE10FAC8BFB0EEC7
:101F1000480A40F25C11BDEEC00AC2F2000110EEA8
:101F2000100A2944488011980491013001F0CBFB3C
:101F300002460B465846314601F068FC41EC100B56
:101F400000F086FC0F9FDDF828B051EC100B3A46EC
:101F50005B4601F03FF9109D52462B4601F056FCBE
:101F60002246434601F0EAF9089C4A46234601F01E
:101F70004DFC01F0FDF800EE100AB4EE480AF1EE57
:101F800010FAC8BFB0EE480A119940F25C12BDEEDB
:101F9000C00AC2F2000210EE100A02EB4108A8F8D3
:101FA00002001198023001F08EFB02460C980B469D
:101FB000314601F02BFC41EC100B00F049FC51ECD8
:101FC000100B3A465B465F4601F004F9119E5246FB
:101FD0002B46D14601F01AFCDDF824A00E9B524698
:101FE00001F0ACF90D9A234601F010FC01F0C0F8A5
:101FF00000EE100AB4EE480AF1EE10FAC8BFB0EED7
:10200000480ABDEEC00A10EE100AA8F80400DDF878
:1020100030B0F01C01F057FB0B460B9902465846B6
:1020200001F0F4FB41EC100B00F012FC0F9A51ECA4
:10203000100B059D3B4601F0CDF8109B4A4601F080
:10204000E5FB0E9B524601F079F90D9A234601F00B
:10205000DDFB01F08DF800EE100AB4EE480AF1EE57
:1020600010FAC8BFB0EE480ABDEEC00A049910EEDF
:10207000100A0881DDE9060153EC192B01F0AAF8DA
:1020800041EC100B02980436B04205F108057FF4CC
:102090000DAF019C002C00F0B180304601F013FB25
:1020A00002460B46DDE90B1001F0B0FB41EC100BD2
:1020B00000F0CEFB51EC100B9FED570B58EC109B32
:1020C0004A46434601F086F8039A109B01F09EFBB6
:1020D0009FED530B5AEC10BB5A46534601F02EF9B4
:1020E0009FED510B55EC107B3A462B4601F08EFBD1
:1020F00001F03EF89FED508A00EE100AB4EE480A57
:10210000F1EE10FAC8BFB0EE480ABDEEC00A40F2C8
:102110005C1110EE100A012CC2F2000121F8160029
:102120006CD0741C204601F0CEFA02460B46DDE965
:102130000B1001F06BFB41EC100B00F089FB51EC34
:10214000100B4A46434601F045F8039A109B01F0F4
:102150005DFB5A46534601F0F1F83A462B4601F032
:1021600055FB01F005F800EE100AB4EE480AF1EE56
:1021700010FAC8BFB0EE480A0199BDEEC00A0229A4
:1021800040F25C1110EE100AC2F2000121F81400B6
:1021900034D0B41C204601F096FA02460B46DDE925
:1021A0000B1001F033FB41EC100B00F051FB51EC34
:1021B000100B4A46434601F00DF8039A109B01F0BC
:1021C00025FB5A46534601F0B9F83A462B4601F032
:1021D0001DFB00F0CDFF00EE100AB4EE480AF1EE50
:1021E00010FAC8BFB0EE480ABDEEC00A40F25C115A
:1021F00010EE100AC2F2000121F8140012B0BDEC7A
:10220000048B01B0BDE8F08F4AD8124DFB21194074
:102210000000000000000000000000000000F03F8F
:102220000000000000C8A940000000000000A0401D
:10223000000000000000104000F07F45000000009A
:1022400070B5064608460C4601F03DFA9FED300B8E
:1022500053EC102B01F0DAFA01F006FA0546A0B3B0
:10226000304601F030FA9FED2C0B53EC102B01F0AF
:1022700065F89FED2B0B53EC102B01F0C7FA01F022
:10228000F3F96A1E40F25C1C05F00301032AC2F256
:10229000000C01D200230DE0ACF1080605F0FC02B1
:1022A000002300BF043326F8080F9A427080B080E4
:1022B000F080F7D149B101292CF8130005D00CEBBF
:1022C00043020229508018BF9080A5421FDA40F2D5
:1022D0005C10C2F2000000212A460CE0EB1CDBB2CD
:1022E000A34220F81210A8BF70BD0435EAB2A24282
:1022F00020F813100BDA6B1CDBB2A34220F812108B
:1023000005DAAA1CD2B2A24220F81310E6DB70BD97
:10231000000000000000E03F0000000000C8A940ED
:102320000000000000FEAF4094B0FEF7FBFE08ACDA
:1023300004F108002821FEF70FF8002543F64000BD
:102340000795CDE90555CDE903550295C4F2020084
:102350000168012641F080510160006800F0805062
:102360000290029847F200000295C4F20000016852
:1023700041F480410160006800F4804002900298BE
:102380004FF480300990204608960E95FFF75CF8D0
:1023900020B1EFF3108072B6FEE700BF0F20CDE949
:1023A000030603A80021CDE905550795FEF766FF52
:1023B00020B1EFF3108072B6FEE700BFFFF7BEFB5F
:1023C000FFF7A0FBFFF744FCFFF778FB40F20004A7
:1023D000C2F2000494ED020B9FED1D1B53EC102B79
:1023E00051EC110B00F0AAFF9FED1B0B53EC102BCF
:1023F00001F00CFA01F038F9014640F28807206834
:10240000C2F20007F960FFF703FD40F2141840F232
:10241000A00540F25C16C2F200080024C2F20005DA
:10242000C2F200060AE000BF4046FFF7D5FAFB689B
:102430002846002132460094FEF7FEF8D7E9040151
:102440008142F1D000F00CF838697861ECE700BF08
:102450000000000000408F400000000000006940C4
:102460002DE9F04F81B02DED028B96B040F2A00027
:1024700043F6400A41F2000BC2F200000021C4F210
:10248000020AC4F2000BFEF75DF940F21410C2F22A
:102490000000FFF7F7FA40F20000C2F2000090EDF2
:1024A000020B9FEDCF1B56EC107B58EC119B38466E
:1024B00031464A46434601F0B6FBD8BB9FEDCA0BF6
:1024C000384653EC102B314601F0BBFB90BB48461D
:1024D00041463A46334600F031FF9FEDCB0B53ECBB
:1024E000102B01F093F99FEDC60B53EC102B00F06D
:1024F00071FE01F0B9F804AC054604F11000382172
:10250000FDF72AFF00202021039002910190DAF8C4
:10251000001041F01001CAF80010DAF8001001F0C4
:10252000100101910199A9B2CDE905100420CDF85F
:1025300010B03EE09FEDAC0B384654EC105B3146DA
:102540002A46234601F06FFB00284DD1284621463C
:102550003A46334600F0F2FE9FEDA70B53EC102BEA
:1025600001F054F99FEDA60B53EC102B00F032FE56
:1025700001F07AF804AC054604F110003821FDF7AB
:10258000EBFE00202021039002910190DAF8001068
:1025900041F01001CAF80010DAF8001001F0100143
:1025A0000191019946F2A711CDF810B0CDE90510BF
:1025B000A8B2079080200A902046FFF771F902A97F
:1025C0002046FFF711F92046FFF7B4F940F2A000CA
:1025D000C2F200000021FEF7B5F840F20006C82064
:1025E000C2F2000645E000BF04AE06F1100038213B
:1025F000FDF7B2FE00202021039002910190DAF84D
:10260000001041F01001CAF80010DAF8001001F0D3
:102610001001019101991821CDE9051004200790BE
:1026200080200A903046CDF810B0FFF739F902A9A2
:102630003046FFF7D9F83046FFF77CF940F2A000AA
:10264000C2F200000021FEF77DF840F20006C2F25F
:10265000000696ED020B484653EC102B414600F065
:102660006DFE9FED630B53EC102B01F0CFF800F0E3
:10267000FBFF40F28808C2F20008C8F80C0040F2E4
:10268000A000C2F200000021FEF75CF840F2141036
:10269000C2F20000FFF7F6F9D8F80400012807D0CD
:1026A00060B93068D8F80C10FFF7B2FB7AE000BFD1
:1026B0003068D8F80C10FFF7C3FD73E0D8F80C4071
:1026C00096ED048B204600F0FEFF02460B4651ECCF
:1026D000180B01F09BF800F0C7FF012834DB05461A
:1026E000306800F0F0FF9FED4A0B53EC102B00F028
:1026F00025FE9FED490B53EC102B01F087F800F0FD
:10270000B3FF40F25C120023C2F20002002100BFBE
:1027100041F00106F7B2AF4222F813001ADA41F095
:102720000206F3B2AB4222F8170019DA41F00306B1
:10273000F7B2AF4222F813000CDA0431CBB2AB424D
:1027400022F81700E4DB0CE00021CBB29C4229DD2B
:102750000AE000BF3146CBB29C4223DD04E000BF5B
:102760003146CBB29C421DDD40F25C10C2F200004B
:10277000002200BF4F1CFFB2BC4220F8132011DD25
:102780008B1CDBB29C4220F817200BDDCF1CFFB264
:10279000BC4220F8132005DD0431CBB29C4220F866
:1027A0001720E7DC40F21410C2F20000FFF714F922
:1027B000D8F80C3040F2A00040F25C120027C2F2C0
:1027C0000000C2F2000200210097FDF735FF16B0AD
:1027D000BDEC028B01B0BDE8F08F00BF00BF00BFB1
:1027E0000000000000408F40000000000000F03FAB
:1027F00000000000000069400000000000001440DC
:10280000000000000000F0BF0000000000003940A0
:102810000000000000C8A9400000000000FEAF401A
:1028200003B401984100009850EAC12018BF042069
:102830004A0D18BF40F0010040F2FF72B2EB515F49
:1028400008BF40F00200012808BF052002B0704711
:1028500010B52F499FED2C1B2DED020B84B0059870
:1028600020F000408842DCBF00209DED040B32DDEB
:102870002849884209D1049840B94FF00100FDF77A
:102880009AFD00F03DFC06B010BD05DB9DED040B8C
:1028900000F02AFC06B010BD68469DED040B00F068
:1028A0003BF810F0030011D0012818D09DED021B59
:1028B0009DED000B02281AD000F04AFA51EC100BE3
:1028C00000F04AFC06B041EC100B10BD9DED021B60
:1028D0009DED000B012000F06FFB06B010BD9DEDDB
:1028E000021B9DED000B00F033FA06B010BD012075
:1028F00000F062FB51EC100B00F02EFC06B041EC36
:10290000100B10BD000000000000000000000000DF
:10291000FB21E93F0000F07F2DE9F14F04462DED4A
:10292000020B2DED088B8AB09FEDE70B80ED020BBB
:10293000139EE74826F0004585420ADC9DED120B08
:10294000002084ED000B0AB0BDEC088B03B0BDE89D
:10295000F08FE0489FEDE0AB9FEDE1BBA84247DD83
:10296000E14F9FEDE39B9FEDE48B9DED120B53EC4C
:102970001A2B51EC100B002E1CDD01F051F841EC2C
:10298000100BBD4208D053EC1B2B51EC100B01F087
:1029900047F8C4E900010BE053EC192B51EC100B84
:1029A00001F03EF853EC182B01F03AF8C4E90001AD
:1029B0000120C8E700F00EFC41EC100BBD4208D02E
:1029C00053EC1B2B51EC100B00F004FCC4E900018C
:1029D0000BE053EC192B51EC100B00F0FBFB53EC0C
:1029E000182B00F0F7FBC4E900014FF0FF30AAE715
:1029F000C348A84279DB9DED120B51EC100B00F09F
:102A00009FFB41EC180B9FEDC00B53EC102B00F01B
:102A1000FDFE9FEDBF1B53EC112B00F0DBFB00F024
:102A200023FE074600F04FFE41EC190B53EC1A2B26
:102A300000F0ECFE53EC182B00F0E6FF41EC180B15
:102A400053EC1B2B51EC190B00F0E0FEDFF8C8A291
:102A500041EC100B4FEA15580125FA4453EC102BAA
:102A600051EC180B00F0DCFF032DC4E900013DD050
:102A7000C1F30A5005EB4511A8EB00001139814262
:102A800034DA0AEB051BB0EE48AA9BED000BF0EE22
:102A900068AA53EC102B51EC190B00F0B7FE41EC77
:102AA0001B0B51EC1A0B53EC1B2B00F0B9FF41EC44
:102AB000180B51EC1A0B53EC182B00F0B1FF53EC30
:102AC0001B2B00F0ADFF9BED020B41EC1A0B53ECFE
:102AD000102B51EC190B00F099FE53EC1A2B00F05F
:102AE0009FFF41EC100B6D1CB8E70EE0002EA8BF55
:102AF0003846BFF628AF94ED000B51EC100B00F0F8
:102B00002BFBC4E9000178421DE7C6F3130040F433
:102B1000801EC6F30A50A0F2F530471100F01F05E1
:102B2000C5F12000DDF848B008900020069007901D
:102B30000520EC467949002D07EB0002794408BFD7
:102B400051F8221009D051F8223001EB8201AB403C
:102B50004A68089922FA01F11943A1FB0E26A1FB4C
:102B60000B131A449A4234BF0123002303EB0608D7
:102B70000CEB8003D3E901A60E448E4234BF012141
:102B8000002192448A4411B1924502D903E0924552
:102B900001D2012100E00021C3E901A641444CF823
:102BA0002010011EA0F10100C4DC029800F10050C9
:102BB000850F0298DDE903678000DDF8148000F0DE
:102BC00082FD41EC1A0B304600F094FD9FED541B42
:102BD00053EC112B00F01AFE41EC1B0B384600F0B1
:102BE00089FD9FED511B53EC112B00F00FFE41ECC2
:102BF000180B404600F07EFD9FED4D1B53EC112B52
:102C000000F004FE41EC190B51EC180B53EC192B9E
:102C100000F0E0FA53EC1B2B00F0DCFA53EC1A2B1B
:102C200000F0D8FACDE90801002008909DED080BCE
:102C300053EC1A2B51EC100B00F0F2FE53EC1B2B53
:102C400000F0EEFE53EC182B00F0EAFE53EC192BCB
:102C500000F0DAFE9FED381B53EC112B00F0D6FD8F
:102C60009FED370B41EC180B53EC102B9DED080B2F
:102C700051EC100B00F0CAFD53EC182B00F0AAFA2F
:102C80009FED310B41EC180B53EC102B9DED080B15
:102C900051EC100B00F0BAFD53EC182B00F09AFA2F
:102CA00041EC100B139810F0004F06D06D4251EC20
:102CB000100B00F051FA41EC100B284684ED000B8C
:102CC00041E60000000000000000000000000000DD
:102CD000FB21E93F7CD9024000004054FB21F93F31
:102CE0003163621A61B4D03DFB21F93F000000005E
:102CF0000000601A61B4D03D7370032E8A19A33BA3
:102D0000FB2139410000000083C8C96D305FE43FFA
:102D1000000000000000E03F4A120000981100008F
:102D2000000000000000103E000000000000103C09
:102D3000000000000000103A182D4454FB21F93D1A
:102D40003326A611460B113C00000054FB21F93D2F
:102D500010B52DED040B2DED088B82B0B0EE419A2D
:102D6000F0EE619A0B9820F000449FED4BABB4F16C
:102D7000795F11DA9DED0A0B51EC100B00F074FC39
:102D8000002801BFB0EE4A0AF0EE6A0A02B0BDECBC
:102D9000088B04BF04B010BD9DED0A0B53EC102B43
:102DA00051EC100B00F032FD41EC180B3C480621B1
:102DB000B0EE480AF0EE680A784400F081F853EC6F
:102DC000182B51EC100B00F021FD9DED0A0B41EC8E
:102DD0001B0B53EC192B51EC100B00F017FD41ECC1
:102DE000190B53EC1B2B51EC180B00F00FFD53EC9F
:102DF000192B00F015FE9FED2C0B41EC190B53EC39
:102E0000102B51EC180B00F001FD41EC100B284881
:102E1000844210DA53EC192B51EC100B00F000FE39
:102E200053EC1A2B00F0F0FD41EC100B02B0BDEC9E
:102E3000088B04B010BD1F48A042BCBF9FED1E1BF5
:102E40008DED001B06DBA4F5001001900020009022
:102E50009DED001B51EC100B53EC112B00F0E0FD2D
:102E60009DED000B41EC180B53EC102B51EC1A0BA1
:102E700000F0D6FD41EC1A0B53EC192B51EC180B5A
:102E800000F0CEFD53EC1A2B00F0BEFD41EC100B10
:102E9000CCE7000000000000000000000000F03F50
:102EA000BC0E000000000000000000000000E03F39
:102EB0003333D33F0000E93F000000000000D23F61
:102EC00070B504462DED028B4D1E00EBC500B0EE33
:102ED000408AF0EE608A90ED000B35F0060017D0C6
:102EE00053EC182B51EC100B00F090FC41EC100B44
:102EF0006D1E04EBC50090ED001B51EC100B53EC64
:102F0000112B00F067F941EC100B35F00600E7D10A
:102F1000022D36D0042D1CD0062D1CBFBDEC028B1B
:102F200070BD53EC182B51EC100B00F06FFC94EDBE
:102F30000A1B53EC112B00F04DF953EC182B00F049
:102F400065FC94ED081B53EC112B00F043F941ECA8
:102F5000100B53EC182B51EC100B00F057FC94EDB8
:102F6000061B53EC112B00F035F953EC182B00F035
:102F70004DFC94ED040B53EC102B00F02BF941ECBD
:102F8000100B53EC182B51EC100B00F03FFC94EDA0
:102F9000021B53EC112B00F01DF953EC182B00F021
:102FA00035FC94ED001B53EC112B00F013F9BDEC34
:102FB000028B41EC100B70BD31B504462DED040BB6
:102FC0002DED0A8BB0EE41BAF0EE61BA0B989DED93
:102FD0000A0B20F00040B0F1795F0DDA51EC100BD4
:102FE000FFF71EFC042808BF00F09AF89DED0A0BBD
:102FF000BDEC0A8B05B030BD53EC102B51EC100B1F
:1030000000F004FC41EC180B9DED0A0B53EC182B5F
:1030100051EC100B00F0FAFB41EC190B2C48B0EE10
:10302000480AF0EE680A05217844FFF749FF9FED52
:103030002ACBB0EE40AAF0EE60AA9CB353EC1C2B56
:1030400051EC190B00F0E2FB41EC1C0B53EC1A2B7A
:1030500051EC190B00F0DAFB9FED210B41EC190B41
:1030600053EC102B51EC1B0B00F0D0FB53EC192B45
:1030700000F0D6FC53EC182B00F0C8FB53EC1B2BD4
:1030800000F0CEFC53EC1C2B00F0CAFC9DED0A1B9B
:1030900053EC112B00F0B8FCBDEC0A8B05B041ECF1
:1030A000100B30BDFFE753EC1A2B51EC180B00F05E
:1030B000ADFB53EC1C2B00F08DF853EC192B00F0FA
:1030C000A5FB9DED0A1B53EC112B00F083F8E3E701
:1030D0004C0D000000000000495555555555C5BF21
:1030E000000000000000E03F10B553EC102B51EC45
:1030F000100B00F06FF841EC100B10BD0000000049
:103100009FED050B10B553EC102B51EC100B00F09C
:1031100015F941EC100B10BD00000000000000008C
:103120009FED050B10B553EC102B51EC100B00F07C
:103130006DFB41EC100B10BD000000000000001002
:1031400082B0CDE9000121F0004001909DED000B1F
:1031500002B051EC100B704781F00041704780F0D5
:103160000040704721F00041704720F00040704758
:1031700021F0004201F00043A2F16052B2F5801F3D
:1031800028BFD2F17F6C0BD95FEA001C43EAC20270
:1031900042EB507018BF704728BF20F00100704705
:1031A000B2F5801FBCBF184670474FEA410C1CF5B2
:1031B000001F02D2084600F058BD70B500F0D0FBE9
:1031C00000000089FFF7F6BF4FF00040A0F5800037
:1031D0007047000010B591EA030F48BF83F0004329
:1031E00000F12684841A71EB030C05D2121943EB0B
:1031F0000C03001B61EB0C014FEA1154A4EB135CB0
:10320000DFF81CE11EEA430F18BF9EEA445F00F09E
:10321000748021EA045123EA0E0343F48013DCF1A5
:10322000200E32D322FA0CFE10EB0E0023FA0CFE15
:1032300041EB0E01CCF1200E03FA0EFE10EB0E0056
:10324000CCF1200E51F10001B1F5801F32D201EB1B
:10325000045112FA0EF2BDE8104058BF7047401CEE
:1032600038BF5FEA420218BF7047002814BF20F041
:10327000010041F100014FEA410313F5001F38BF7F
:103280007047A1F1C04100F0B9BB012A43EB030232
:10329000ACF1200CDCF11F0E32BF4FF0000E23FA10
:1032A0000CF310EB030041EB0451B4EB115FD0D0F1
:1032B000A1EB045101F58011490801EB04515FEACB
:1032C00030000ED350F1000038BF12FA0EFE08D1C4
:1032D000BDE81040C9E7401C38BF5FEA4202CAD1CE
:1032E000C3E7BDE810404FEA410313F5001F38BFA4
:1032F0007047A1F1C04100F081BB9EEA445F08D055
:1033000011EA5E0FBDE8104004BF01F0004100204B
:103310007047BDE8104070B500F022FB64FBBE3E74
:103320000000E0FF491058BFC1F140415B1058BF99
:10333000C3F140438B42EFF3008070472DE9C04159
:1033400030B4DFF8A4C23CEA111418BF3CEA1314ED
:1033500000F0ED801CEA111481EA030544EAD574FB
:1033600018BF1CEA131500F0C880A4EB050404F193
:103370007F7404F500344FF0004545EAC12145EA69
:10338000C32341EA505143EA52534FEAC0204FEA67
:10339000C222994208BF904200F09D804FEA136517
:1033A0000FF24416765D4FEA134506FB05F7C7F1A9
:1033B000807706FB07F74FEAD737A7FB036876420B
:1033C000A7FB06CEC8F5803838BFA8F1010807FB77
:1033D00008E6A6FB028C4FF0000EE6FB03CEDCF104
:1033E000000CCEF1004E38BFAEF1010EA6FB0C581A
:1033F0004FF00007E6FB0E87A1FB08C6A0FB07CE37
:1034000016EB0E064FF0000545F10005E1FB0765E0
:1034100015F1E04E7EBFA4F580345FEA46066D41AB
:1034200016F1800745F100054FEA172747EA0567BF
:103430004FEA15254FEA0666A6F1DE46B6F1805F33
:1034400020D9384605EBC47124F0010C01EB0C11B6
:10345000BCF1FE6F02D8F0BCBDE8008124425CBF25
:1034600001F5801E9EEAC47F02D4F0BCBDE8008155
:10347000244200F13980A1F1C041F0BCBDE8004117
:1034800000F0BCBA4FEAD02040EA41504FEAD121C7
:103490004FEAD22242EA43524FEAD323A7FB0286E5
:1034A00007FB036605FB02661EEA0E0F58BFA6EB7C
:1034B0000056B6EB00564FEA520E4EEAC37E18EBAA
:1034C0000E0E56EB530EBCD518EB02085E417F1C66
:1034D00055F10005B5E74FF480154FF000074FF0A8
:1034E00000064FF00008ACE701F1C04101F00041D7
:1034F0004FF00000F0BCBDE800810CEA131511EAA2
:103500000C1F00D00CE013EA0C1F00F026804FF0D7
:10351000000081EA030101F00041F0BCBDE8008138
:10352000F0BCBDE8004181EA030100F067BAF0BCDD
:10353000BDE8004170B500F013FA00BF097EFC3E03
:1035400000F007B84FF0000081EA030101F00041EC
:10355000704781EA030100F051BAF0BCBDE80041B8
:1035600022494FF000007047FFFDFBF9F7F5F4F238
:10357000F0EEEDEBE9E8E6E4E3E1E0DEDDDBDAD80E
:10358000D7D5D4D3D1D0CFCDCCCBCAC8C7C6C5C46C
:10359000C2C1C0BFBEBDBCBBBAB9B8B7B6B5B4B383
:1035A000B2B1B0AFAEADACABAAA9A8A8A7A6A5A46E
:1035B000A3A3A2A1A09F9F9E9D9C9C9B9A99999832
:1035C0009797969595949393929191908F8F8E8ED5
:1035D0008D8C8C8B8B8A8989888887878685858462
:1035E00084838382828181800000FF070000F87F4E
:1035F00051EA030C17D41CF5801F58BFBCF5801F7F
:1036000000F10680994218BF704708BF904270478A
:1036100007D711F5801F58BF13F5801F19D49942A1
:103620007047894270471CF5801F08D5BCF5801F84
:10363000F7D58B4218BF704708BF824270474FF4DE
:10364000001C1CEB410F38BF1CEB430F01D28B4217
:10365000704770B500F084F9922449004FF0005192
:103660004FF08053FFF75EBE4FEA41034FEA5353DA
:10367000A3F58063D3F11E03C8BFD3F1210C0CDD89
:103680004FF0004242EAC12242EA505232FA03FCB1
:103690008CEAE17CACEBE1707047102BC4BF0020DA
:1036A000704703F5787CBCF1FF3F04D06FF0004217
:1036B00082EA2100704770B500F052F949922480E7
:1036C00000207047F2E710F0004248BF4042B0FAD5
:1036D00080F310FA03F10AD0C3F11D0303F58063F0
:1036E00002EB03524FEA415002EBD12170474FF0F9
:1036F00000007047B0FA80F310FA03F10AD0C3F16A
:103700001D0303F580634FEA03524FEA415002EB79
:10371000D12170474FF000007047000051EA030CC0
:1037200017D41CF5801F58BFBCF5801F00F1068020
:10373000994218BF704708BF9042704707D711F5EC
:10374000801F58BF13F5801F19D4994270478942D2
:1037500070471CF5801F08D5BCF5801FF7D58B423C
:1037600018BF704708BF824270474FF4001C1CEB23
:10377000410F38BF1CEB430F01D28B42704770B52D
:1037800000F0EEF8922449004FF080514FF00053C2
:10379000FFF7C8BD51EA030C17D41CF5801F58BFB2
:1037A000BCF5801F00F10680994218BF704708BF22
:1037B0009042704707D711F5801F58BF13F5801F3F
:1037C00019D499427047894270471CF5801F08D56B
:1037D000BCF5801FF7D58B4218BF704708BF8242E7
:1037E00070474FF4001C1CEB410F38BF1CEB430F1C
:1037F00001D28B42704770B500F0B2F892244900B4
:103800004FF000514FF08053FFF78CBD70B5DFF8DB
:1038100048C11CEA111E1EBF1CEA13159EEA0C0FBC
:1038200095EA0C0F00F06F8081EA03044EEAD47E23
:10383000AE4421EA4C1123EA4C1341F4801143F4C5
:103840008013AEF17F7EA1FB024CA0FB036536190D
:1038500055EB0C05A1FB034C4CF10003A0FB021C33
:1038600016EB0C06654153F10003094218BF46F000
:10387000010613F4007F0BD14FEA03314FEA053004
:1038800041EA155140EA165034036FF003020AE092
:103890004FEAC3214FEAC52041EA555140EA56504C
:1038A000F4026FF0020202EB2E4201EB025585EAB0
:1038B000CE710AD05FEA440C18BF24F0004450F1E6
:1038C000000041F1000120EAD47040F2FE7C624524
:1038D00000D270BDA84214BF4FF080444FF0404466
:1038E000002E08BF0024BEF1806FA8BFA1F1C04127
:1038F000BDE8704080F2828001F1C04101F00041DA
:103900004FF0000070470CEA13159EEA0C0F18BF29
:1039100095EA0C0F06D081EA030E4FF000000EF07E
:10392000004170BD00F01CF88900013E00F007B8AE
:1039300000F009B84FEA430C5FEA5C5C08D081EA0A
:10394000030100F05BB84FEA410C5FEA5C5CF6D122
:1039500002494FF0000070470000FF070000F87FA9
:103960000EF1020E2EF0030E5EF8046B364205D403
:10397000012A43EB030515F5001F12D8012841EB7E
:10398000010C1CF5001F0CD80ED14FEAD17C0CEBBA
:103990004C0C0CF1020C15F5001F08BF4CEBD37C4E
:1039A00004E04FF0080C01E04FEAD37C0CEB4C052F
:1039B00026FA05F606F00706B6F1040C06D20EEB61
:1039C000860CBDE870404CF0010C6047DFE80CF05D
:1039D000090B02024FF00041A1F500214FF0000059
:1039E00070BD19461046012851EB010418BFD4F5EB
:1039F000001484BF002001F0004170BD0808A0F54C
:103A000000114FEA3101704710B591EA030F81F0C0
:103A100000413FF5E7AB83F0004300F009B8000038
:103A200010B591EA030F48BF83F000433FF5DAABCE
:103A3000841A71EB030C07D28CF0004C121943EB83
:103A40000C03001B61EB0C014FEA1154A4EB135C57
:103A5000DFF8A4E11EEA430F18BF9EEA445F00F0BE
:103A6000B48021EA045123EA6E035242C3EB6E0391
:103A700038BF5B1EDCF1200E25D322FA0CFE10EBC2
:103A80000E0043FA0CFE41EB0E01CCF1200E03FABE
:103A90000EFE10EB0E00CCF1200E51F1000129D4E6
:103AA00001EB045112FA0EF2BDE8104058BF704706
:103AB000401C1CBFB2F1004F704700280CBF491CCE
:103AC00020F00100704712EB020E43EB030218BF17
:103AD0004FF0010E4EEA4202ACF1200CDCF11E0E5A
:103AE00056D943FA0CFE10EB0E00CCF11E0E51F12C
:103AF000FF31D5D50EF1010E12FA0EFE404141EB19
:103B0000010101EB445C5FEA5C5C10D901EB0451FC
:103B100010EBDE7038BFBEF1004FBDE8104018BF9B
:103B2000704700280CBF491C20F00100704734D2B8
:103B30004FEAD42C24F4006411F500111BD0B1FA23
:103B400081F20B3AA41AA41ED2F12003914030FA5C
:103B500003F31943904001EBCC7101EB0451002CAD
:103B6000BDE81040A8BF704701F1C04101F000411D
:103B70004FF000007047B0FA80F310FA03F102D161
:103B8000BDE810407047E41A173C4805C90AE2E74F
:103B900001EB0451BDE81040704749104FEA300076
:103BA00001EB0451BDE8104002E04FF00001704706
:103BB0004A0008BF0042F8D0B2F5001F28BF704786
:103BC00001F000414FF0000070479EEA445F07D0CB
:103BD00011EA5E0FBDE8104004BF002100207047CD
:103BE000BDE8104070B5FFF7BBFE00BF40DFF63EFA
:103BF000104683F0004170470000E0FF10B5FFF76A
:103C0000F7FC0CBF0120002010BD10B5FFF7F0FC41
:103C100014BF0120002010BD10B5FFF77FFD8CBF41
:103C20000120002010BD10B5FFF778FD2CBF01204A
:103C3000002010BD10B5FFF7ADFD94BF012000209E
:103C400010BD10B5FFF7A6FD34BF0120002010BD48
:103C5000F1EE100A4FF6FF71C0F2C03120EA010008
:103C600040F04070E1EE100A7047FF2141EAD05069
:103C7000C0057047000000004C5555555555A53FEF
:103C80007751C1166CC156BF9015CB19A001FA3EF1
:103C9000AD529C804F7E92BEC4B1B4BD9EEE213E1B
:103CA000D43888BEE9FAA8BD00004054FB21F93F92
:103CB0003163621A61B4D03D0000601A61B4D03D36
:103CC0007370032E8A19A33B0000002E8A19A33BB0
:103CD000C14920259A837B390000000000000000C4
:103CE0006E83F9A22915444ED15727FCC0DD34F567
:103CF000999562DB4190433CAB6351FE61C5BBDEED
:103D00003A6E24B7E0D24D42EA2E49061C92D10900
:103D10001CEB1DFE3EA729B1F53582E88444BB2E7D
:103D200026709CE9417E5FB439D69139F4395383CA
:103D30008B5F849C3B28F9BDFF97F81F0F9805DE29
:103D40008B112FEF1F6D0A5ACF7E366DB709CB2727
:103D5000663F464F2DEA5F9EC7BA27757BF1E5EBBC
:103D6000F739073DEA92528AB15FFB6B085D8D1F00
:103D70004630035600000000A6F810111111813FD3
:103D8000D561C119A0012ABF7DFEB157E31DC73E11
:103D9000EB9C2B8AE6E55ABE7CD5CF5A3AD9E53D55
:103DA00000000000000000000102030406070809EB
:103DB0000006101600061016D83D0008000000206E
:103DC00028000000C4010008003E00082800002070
:103DD000C8080000E0010008E8030000000000003F
:103DE0000000000000408F409A9999999999B93F35
:103DF00001000000100000000024F400000000009A
:040000050800018965
:00000001FF
