:020000040800F2
:10000000D006002029020008392D0008011100083F
:10001000352D000821040008412E000800000000D2
:10002000000000000000000000000000252E000875
:1000300025040008000000003D2D0008292E0008BE
:10004000430200084302000843020008430200087C
:10005000430200084302000843020008430200086C
:10006000430200084302000843020008430200085C
:10007000430200084302000843020008430200084C
:10008000430200084302000843020008430200083C
:100090004302000843020008430200084904000824
:1000A000430200084302000843020008430200081C
:1000B000430200084302000843020008430200080C
:1000C00043020008430200084302000843020008FC
:1000D00043020008430200084302000843020008EC
:1000E00029040008430200084302000843020008F4
:1000F00043020008430200084302000843020008CC
:1001000043020008430200084302000843020008BB
:1001100043020008430200084302000843020008AB
:10012000430200084302000843020008430200089B
:10013000430200084302000843020008430200088B
:10014000430200084302000843020008430200087B
:10015000430200084302000843020008430200086B
:10016000430200084302000843020008430200085B
:100170004302000843020008430200080000000098
:10018000430200084302000800F002F800F03CF8C7
:100190000AA090E8000C82448344AAF10107DA45E2
:1001A00001D100F031F8AFF2090EBAE80F0013F0F8
:1001B000010F18BFFB1A43F001031847A8330000D2
:1001C000C8330000103A24BF78C878C1FAD8520763
:1001D00024BF30C830C144BF04680C6070470000C1
:1001E0000023002400250026103A28BF78C1FBD840
:1001F000520728BF30C148BF0B6070471FB502F0DF
:10020000A4FE1FBD10B510BD00F0D0F81146FFF7D9
:10021000F5FF02F017FE00F0EEF803B4FFF7F2FF6F
:1002200003BC00F0F5F80000094880470948004782
:10023000FEE7FEE7FEE7FEE7FEE7FEE7FEE7FEE796
:10024000FEE7FEE704480549054A064B70470000F3
:100250002D2E000889010008D0000020D0060020C3
:10026000D0020020D002002053EA020C00F0698086
:100270002DE9F04B4FF00006002B1FBFB3FA83F5BA
:1002800003FA05F424FA05F65E4012BF1643B2FAEB
:1002900082F502FA05F4C5F120051EBF22FA05FC1D
:1002A00044EA0C04203556EA044C4FEA144418BFC3
:1002B000641C4FF000084FF00009904271EB030CF2
:1002C00039D3002919BFB1FA81F701FA07F6B0FA5C
:1002D00080F700FA07F6C7F120071EBF20FA07FCD7
:1002E00046EA0C062037B6FBF4FCA7EB0507103FE7
:1002F00007F01F0BCBF120062CFA06F60CFA0BFBCD
:1003000044BFB3460026202FA4BF5E464FF0000B2B
:100310005BEA060C08BF4FF0010B19EB0B0948EB29
:100320000608ABFB027C06FB02CC0BFB03CCC01B1C
:1003300071EB0C01C1E70B46024641464846BDE859
:10034000F08B13B5084318BF4FF0FF300146AFF3F1
:100350000080BDE81C4070474FF0000200B5134616
:1003600094469646203922BFA0E80C50A0E80C50D5
:10037000B1F12001BFF4F7AF090728BFA0E80C5086
:1003800048BF0CC05DF804EB890028BF40F8042B7F
:1003900008BF704748BF20F8022B11F0804F18BFEC
:1003A00000F8012B7047704770477047754600F0A2
:1003B0002BF8AE4605006946534620F007008546F7
:1003C00018B020B5FFF73EFFBDE820404FF0000613
:1003D0004FF000074FF000084FF0000BAC46ACE8C0
:1003E000C009ACE8C009ACE8C009ACE8C00921F01C
:1003F00007018D46704710B50446AFF300802046D4
:10040000BDE81040FFF709BF00487047100000200A
:1004100001491820ABBEFEE726000200704700002D
:10042000FEE700007047000080B54FF4806000F0E8
:1004300051F84FF4006000F04DF84FF48050BDE8E3
:10044000804000F047B800004FF4007000F042B860
:10045000EFF3108072B600BFFEE70000F0B581B088
:1004600040F60007C4F2020715460E460246A7F5FD
:1004700000604FF480611C4601F0C4F838464FF428
:100480008061324601F0BEF838464FF400612A46DA
:1004900001F0B8F838464FF48051224601B0BDE86B
:1004A000F04001F0AFB80000B0B5044600F0F8F835
:1004B000054640F20000C2F200000078611C18BF3F
:1004C000044400BF00F0ECF8401BA042FAD3B0BDDA
:1004D0007047000043F61441C4F201010A68024269
:1004E00014BF08607047FFF7F3BF00002DE9F04F1D
:1004F00082B000F13E4241F6004502F1FF77C4F2BE
:100500000205082243F6004E4FEAB726A84208BF6C
:100510000722C4F2010E072E38BF4FEAB722012589
:10052000002600274FF00008009208E008F10108BB
:100530000437B8F1100F06F1020600F0A7800C682E
:1005400005FA08F914EA090FF0D0D1F804B0032233
:100550000BF0030CACF10104B240012C6FEA020A6B
:1005600010D88268CC6802EA0A02B4402243826052
:100570004268CBF3001422EA090204FA08F4224389
:10058000426005E0BCF1030F02D14FF0030C20E004
:10059000C2688C6802EA0A02B4402243BCF1020F2E
:1005A000C26016D16FF0030202EA58020244D2F888
:1005B00020C007F01C050F230C69AB402CEA030395
:1005C00004FA05F52B431362D1F804B001250BF0B2
:1005D000030C02680CFA06F302EA0A021A431BF43F
:1005E000403F0260A2D0002243F644030192C4F2CD
:1005F00002031A684FF6084C42F480421A601A68E7
:10060000CFF6FF7C02F480420192019A28F00302A7
:10061000724452F80C3007F00C050F24AC40A34391
:10062000009C04FA05F52B4342F80C30DEF8082054
:100630004B6842EA090543F60C4CDC0258BF22EA3B
:100640000905CEF80850C4F2010CDCF800209C0229
:1006500042EA090558BF22EA0905CCF80050DEF845
:1006600004209C0342EA090558BF22EA0905CEF896
:100670000450DEF80020DB0342EA090558BF22EAF5
:100680000905CEF80050012550E700BF02B0BDE8D3
:10069000F08F0000002A08BF090481617047000044
:1006A00040F2CC00C2F200000068704740F2000047
:1006B00040F2CC01C2F20000C2F2000100780A68E8
:1006C000104408607047000080B543F60040C4F253
:1006D0000200016841F400710160016841F4806129
:1006E0000160016841F480710160032000F088F826
:1006F0000F2000F005F800F027F8002080BD000072
:1007000070B540F20006C2F2000640F208013278ED
:10071000C2F200014FF47A730968B3FBF2F20446A7
:10072000B1FBF2F1084600F0D5FC0F2C4FF00105AB
:1007300008D838B94FF0FF3021460022002500F0DC
:1007400033F87460284670BD82B0002043F6400143
:100750000190C4F202014A6842F480424A604A6849
:1007600002F480420192019A0090086840F08050A3
:100770000860086800F080500090009802B0704750
:10078000002848BF7047C1B200F01F00012202FAE2
:1007900000F04EF20012CEF2000242EAD10121F046
:1007A000030108607047000010B54EF60C5CCEF2F5
:1007B000000CDCF80030C3F3022E8EF00704042C8A
:1007C00028BF0424BEF103034FF0FF3E0EFA04F4E9
:1007D00038BF0023A14399400EFA03F39A43114313
:1007E00000F00F0200F160430901043A03F564438D
:1007F0006244002848BF02F10C03197010BD0000CC
:100800004EF60C51CEF200010A684FF6FF031A4073
:1008100060F30A2242F0806040F0FD70086070478B
:100820002DE9F041002800F08B8043F60808C4F25F
:1008300002080446D8F8F8030D4600F00700884285
:1008400007D288F8F853D8F8F80300F00700A84258
:1008500076D12068810717D5410705D5D8F8001053
:1008600041F4E051C8F80010010705D5D8F8001090
:1008700041F46041C8F80010D8F80010A26821F0D7
:10088000F0011143C8F80010C0073FD1D8F8F803B1
:1008900000F00700A84207D988F8F853D8F8F80301
:1008A00000F00700A8424BD12068410707D5D8F8CF
:1008B0000010E26821F4E0511143C8F8001000076D
:1008C00008D5D8F80000216920F4604040EAC10052
:1008D000C8F8000000F054F8D8F8001042F664722E
:1008E000C1F30311C0F60002515C40F2080220FA85
:1008F00001F140F20400C2F200000068C2F20002FE
:100900001160FFF7FDFE0020BDE8F0816068811EE8
:10091000022907D258F8081C89015CBF0120BDE8F4
:10092000F08111E0012807D158F8081C89035CBF49
:100930000120BDE8F08107E058F8081C890703D4BE
:100940000120BDE8F08100BFD8F8001021F00301BC
:100950000843C8F80000FFF7A3FE064641F28837B7
:10096000D8F80000616800F00C00B0EB810F8DD06A
:10097000FFF796FE801BB842F2D90320BDE8F08154
:1009800010B543F60404C4F20204606800F00C00E1
:1009900008280BD0042819BF42F20040C0F2F4002E
:1009A00047F64000C0F27D1010BD00BF20682168EE
:1009B0002368490247F64001C0F27D1100F03F0272
:1009C000C3F388105CBF42F20041C0F2F401A1FB06
:1009D00000010023FFF748FC21680222C1F3014116
:1009E00002EB4101B0FBF1F010BD00002DE9F04138
:1009F00082B0002868D00446007843F60006C0079D
:100A0000C4F202060BD0B06800F00C00042840F0DD
:100A10009F803068800302D56068002854D0207819
:100A200080071AD5B06810F00C0F09D0B06800F03C
:100A30000C00082840F0A6807068400200F1A280F7
:100A40003068800702D5E06801283DD1306821690F
:100A500020F0F80040EAC10030602078000737D469
:100A6000207840074CD4A56955B3B06800F00C005D
:100A7000082840F0BB80012D26D07068E16900F4A1
:100A800080028A4220D1216A00F03F028A421BD1B3
:100A900047F6C071626A0140B1EB821F14D1A16AAE
:100AA0004FF6FF73C903994300F44032A1F580313A
:100AB0008A4209D1E16A00F07060B0EB016F03D1A6
:100AC000002002B0BDE8F081012002B0BDE8F08155
:100AD0006069002840F20000C4F2472076D001216E
:100AE000C0F8801EFFF7DCFD054600BF706F800771
:100AF000B6D4FFF7D5FD401B0228F7D9DDE000BFD3
:100B0000306C10F080580AD100200190306C40F019
:100B100080503064306C00F080500190019847F2B2
:100B20000007C4F200073868C00541D4386840F4B3
:100B300080703860FFF7B4FD054600BF3868C00517
:100B400036D4FFF7ADFD401B0228F7D9B5E000BF52
:100B5000B06800F00C00082803D1706840023FF52F
:100B600058AF6068B0F5803F07D0B0F5A02F40F0D7
:100B70008D80306840F480203060306840F48030F0
:100B800030608DE0E068002852D00020C4F2472099
:100B900001210160FFF784FD054600BF3068800732
:100BA0003FF554AFFFF77CFD401B0228F6D984E0E7
:100BB000A068012805D005284ED1306F40F0040010
:100BC0003067306F40F0010030674FE00021C0F81F
:100BD000801EFFF765FD0546706F80077FF540AF0B
:100BE000FFF75EFD401B0228F6D966E00027C4F23D
:100BF000472700203866FFF753FD022D05460BD12D
:100C0000306880015ED5FFF74BFD401B02284FF096
:100C10000300F5D955E700BF306880017FF550AF7C
:100C2000FFF73EFD401B02284FF00300F4D948E7D0
:100C30000020C4F2472000210160FFF731FD054686
:100C4000306880077FF509AFFFF72AFD401B0228B7
:100C50004FF00300F4D934E7316F002821F001018F
:100C60003167316F21F0040131674DD0FFF718FD76
:100C7000054641F2883700BF306F800756D4FFF732
:100C80000FFD401BB842F7D917E000BF31680028BC
:100C900021F480313160316821F4802131604FD0FE
:100CA000FFF7FEFC054600BF306880033FF5B7AE96
:100CB000FFF7F6FC401B6428F6D9032002B0BDE81C
:100CC000F08100BF04F11C052FCD084340EA8210DB
:100CD000D9034FF6FF729143A1F5803140EA0560D8
:100CE0000843706001203866FFF7DAFC044600BF55
:100CF000306880013FF5E4AEFFF7D2FC001B02280C
:100D00004FF00300F4D9DCE6FFF7CAFC054641F2D8
:100D1000883700BF306F800708D5FFF7C1FC401B44
:100D2000B8424FF00300F5D9CBE600BFB8F1000F91
:100D30007FF499AE306C20F08050306493E600BFB1
:100D4000FFF7AEFC054600BF306880037FF567AE55
:100D5000FFF7A6FC401B64284FF00300F4D9B0E66F
:100D600070B538B10446406A30B10020206104F10A
:100D7000140007E0012070BD6068B0F5827F03D0E9
:100D800004F11C00002101600026A66294F85100C5
:100D900020B9204684F8506000F03CF8022084F826
:100DA000510094E80F0001F48271056802F40442D6
:100DB00025F040050560114403F4006223691144E5
:100DC00003F002026369114403F00102A369E569BB
:100DD000114403F40072114405F03802256A1144ED
:100DE00005F08002A56A114305F400521143016029
:100DF000626A042101EA134102F0100211444160C9
:100E0000C16921F40061C1610120666584F8510067
:100E1000304670BD80B586B0016843F60000C4F26C
:100E20000000814202D006B080BD00BF002143F621
:100E300030020191C4F20202136900F5E63043F476
:100E400080431361136903F480430193019B019173
:100E5000136843F002031360126802F00202019269
:100E6000019A4FF4604201920222CDE9022103214E
:100E700004910521059101A9FFF738FB06B080BD5B
:100E80002DE9F04383B0044690F85000012803D1C7
:100E9000022003B0BDE8F0834FF001091D4616465D
:100EA0000F4684F85090FFF7FBFB94F8511001298E
:100EB00044D18046002F4FF0010018BF002E00F0F3
:100EC000D6800320002184F8510061652763A6863F
:100ED000E686A163A187E187A0682164B0F5004F91
:100EE0002068616407D1016821F040010160016858
:100EF00041F4804101600168490603D4016841F072
:100F0000400101606168731EE268B1FA81F1B3FAD1
:100F100083F349095B09B2F5006F41EA03013DD152
:100F200031B137F8021BC1602763E08E0138E086DB
:100F3000E08E00286CD0681C0DD11EE0022096E0E7
:100F4000216B31F8022BC2602163E08E0138E0860C
:100F5000E08E00285CD0206881688907F0D4FFF714
:100F60009FFBA0EB0800A842F2D303207FE000BF64
:100F7000FFF796FBE08E00284AD020688168890739
:100F8000F6D5216B31F8022BC2602163E08E013867
:100F9000E086E08E0028F0D13AE000BF39B1397820
:100FA0000173206B01302063E08E0138E086E08E13
:100FB00070B3681C0BD11BE0216B09780173206BA7
:100FC00001302063E08E0138E086E08E00B32068B7
:100FD00081688907F0D4FFF763FBA0EB0800A84203
:100FE000F3D3032043E000BFFFF75AFBE08E78B154
:100FF000206881688907F7D5216B09780173206B18
:1010000001302063E08E0138E086E08E0028EFD1C9
:1010100040F20800C2F20000006849F68171C1F296
:101020005E61A0FB0101480D4FF47A7148430290C4
:101030006068B0F5827F23D1204680212A4643464E
:1010400001F07EFE28B1606D40F020006065202038
:101050006065A06838B9002001902068C1680191DE
:10106000806801900198606D002818BF0120002160
:1010700084F8519084F8501003B0BDE8F08300BFAD
:1010800002980028E5D00298013802902068806814
:101090000006DED502980028DBD0029801380290C5
:1010A000206880680006D4D502980028D1D0029824
:1010B00001380290206880680006CAD5029800288E
:1010C000C7D0029801380290206880680006D7D403
:1010D000BFE70000411E0020B0EB116F1CBF0120D4
:1010E00070474EF21002CEF2000251604EF62351CC
:1010F000CEF20001F0230B70072190601160704761
:10110000FEE700002DE9F04F93B0E02800F2938055
:101110000C46B1F5987F00F28E8040F27007C2F263
:1011200000070546D7F8008000F1070B2A209A46F1
:10113000A2F1200904F10F0601F09AFCC5F3072083
:1011400001F020FCE8B2109001F01CFCCBF307206A
:1011500001F018FC5FFA8BF0129001F013FC2B20C9
:1011600001F086FCC4F3072001F00CFCE0B201F0B2
:1011700009FCC6F3072001F005FCF0B201F002FC07
:101180002C2001F075FC5FFA89F0BAF1000F4FEAEC
:10119000001353D042F67470C0F60000C4184FF02C
:1011A000FF3500BF601990F90160F007404608BFA5
:1011B0004FF6FF70386001F00BFCB007404658BF97
:1011C0004FF6FF70386001F003FC7007404658BFCF
:1011D0004FF6FF70386001F0FBFB3007404658BF08
:1011E0004FF6FF70386001F0F3FBF006404658BF41
:1011F0004FF6FF70386001F0EBFBB006404658BF79
:101200004FF6FF70386001F0E3FB7006404658BFB0
:101210004FF6FF70386001F0DBFB4046B6F1FF3F50
:10122000C8BF4FF6FF70386001F0D2FB01350F2DBB
:10123000B8D1C7F8008013B0BDE8F08F280A05F1D7
:10124000010C11900E944FEA1C20AC1C0390200A54
:10125000EA1C0590100A0790291D681D4FEA112A03
:101260004FEA102EC0B20A905FFA8AF00990C8B215
:101270000890079842F67479C0B20790D0B20690F1
:101280000598C0F60009C0B20590E0B2049003983A
:1012900006354B44C0B20F932B0A03905FFA8CF0D3
:1012A0004FEA1B2BDBB2029011985FFA8BF6DDF848
:1012B00038B00D93EBB2109DDDF848A00C935FFAA7
:1012C0008EF3C0B24FF0000900960B93019009E035
:1012D00060B2B0F1FF3F40F3638109F10109B9F158
:1012E000100FA6D00F980BEB090110F809401291CE
:1012F000E0074FEA1120119010D1A0073FD46007FA
:101300006AD4200700F19680E00600F1C180A006B3
:1013100000F1EC806006DBD516E100BF2A2001F069
:10132000A7FB019E304601F02DFB284601F02AFB69
:10133000304601F027FB284601F024FB2B2001F06A
:1013400097FB119856465FFA80FA504601F01AFB57
:1013500012985FFA80FB584601F014FB5046B246E3
:1013600001F010FB5846DDF838B001F00BFB2C20E3
:1013700001F07EFB386801F02BFBA007BFD52A20C7
:1013800001F076FB039D284601F0FCFA029E3046F0
:1013900001F0F8FA284601F0F5FA304601F0F2FAC9
:1013A0002B2001F065FB1198C6B2304601F0EAFA35
:1013B0001298C5B2284601F0E5FA304601F0E2FA8B
:1013C0002846109D01F0DEFA2C2001F051FB386810
:1013D00001F0FEFA600794D52A2001F049FB059D33
:1013E000284601F0CFFA049E304601F0CBFA284699
:1013F00001F0C8FA304601F0C5FA2B2001F038FBA5
:101400001198C5B2284601F0BDFA1298C6B230460E
:1014100001F0B8FA2846109D01F0B4FA304601F008
:10142000B1FA2C2001F024FB386801F0D1FA200732
:101430007FF56AAF2A2001F01BFB079D284601F0CB
:10144000A1FA069E304601F09DFA284601F09AFA6C
:10145000304601F097FA2B2001F00AFB1198C5B233
:10146000284601F08FFA1298C6B2304601F08AFA87
:101470002846109D01F086FA304601F083FA2C20B0
:1014800001F0F6FA386801F0A3FAE0067FF53FAF05
:101490002A2001F0EDFA099D284601F073FA089E12
:1014A000304601F06FFA284601F06CFA304601F040
:1014B00069FA2B2001F0DCFA1198C5B2284601F038
:1014C00061FA1298C6B2304601F05CFA2846109DC7
:1014D00001F058FA304601F055FA2C2001F0C8FA14
:1014E000386801F075FAA0067FF514AF2A2001F0E4
:1014F000BFFA0B9D284601F045FA0A9E304601F0DE
:1015000041FA284601F03EFA304601F03BFA2B2022
:1015100001F0AEFA1198C5B2284601F033FA1298DC
:10152000C6B2304601F02EFA2846109D01F02AFA84
:10153000304601F027FA2C2001F09AFA386801F0C1
:1015400047FA60067FF5C4AE2A2001F091FA0D9D9E
:10155000284601F017FA0C9E304601F013FA28468F
:1015600001F010FA304601F00DFA2B2001F080FA5C
:101570001198C5B2284601F005FA1298C6B2304655
:1015800001F000FA2846109D01F0FCF9304601F008
:10159000F9F92C2001F06CFA386801F019FA97E695
:1015A0002A2001F065FA009C204601F0EBF9504634
:1015B00001F0E8F9204601F0E5F9504601F0E2F9C2
:1015C0002B2001F055FA1198C5B2284601F0DAF93E
:1015D0001298C6B2304601F0D5F92846109D01F0A8
:1015E000D1F9304601F0CEF92C2001F041FA3868EB
:1015F00001F0EEF909F10109B9F1100F7FF472AEB3
:1016000017E6000070B5144601220D460646FFF7A6
:1016100041F8204601F052FA304629460022FFF7F1
:1016200039F840F60044C4F202042046802100222A
:10163000FFF730F8204640210022FFF72BF8204624
:1016400020210022FFF726F8204610210022FFF774
:1016500021F8204608210022FFF71CF8204604212B
:101660000022FFF717F8204602210022FFF712F8A8
:10167000204601210022BDE87040FFF70BB80000B2
:101680002DE9F04782B0054640F200080020002115
:10169000EF2240F23F13C4F2020801F005F9404680
:1016A00010210022FEF7F6FF08F50060102101224C
:1016B000FEF7F0FF40F274062F0A4FF49634C2F2A0
:1016C00000060DF106090DF1070A00BF3046494634
:1016D00001224FF47A738DF80670FFF7D1FB304684
:1016E000514601224FF47A738DF80750FFF7C8FB7B
:1016F000013CEBD1404610210122FEF7CBFF02B0A6
:10170000BDE8F0872DE9F04F81B00024C4F2020457
:1017100004F500652846202100224FF00008FEF75E
:10172000B9FF64204FF0640AFEF7BEFE2846202170
:1017300001224FF0010BFEF7ADFF3220FEF7B4FEA1
:10174000204610210022FEF7A5FF28461021002286
:10175000FEF7A0FF40F27406C2F200064FF0110936
:101760000DF10301304601224FF47A738DF8039096
:10177000FFF786FB204610210122FEF78BFF204653
:1017800010210022FEF786FF284610210122FEF7D5
:1017900081FF0DF10301304601224FF47A738DF879
:1017A0000380FFF76DFB204610210122FEF772FF38
:1017B000204610210022FEF76DFF2846102100224E
:1017C000FEF768FFCF208DF803000DF103013046CE
:1017D00001224FF47A73FFF753FB204610210122B8
:1017E000FEF758FF204610210022FEF753FF28463F
:1017F00010210122FEF74EFF0DF1030130460122B8
:101800004FF47A738DF80380FFF73AFB20461021DE
:101810000122FEF73FFF204610210022FEF73AFF8B
:10182000284610210122FEF735FFC1208DF8030064
:101830000DF10301304601224FF47A73FFF720FBCC
:10184000204610210122FEF725FF2046102100220C
:10185000FEF720FF284610210122FEF71BFF30274C
:101860000DF10301304601224FF47A738DF80370B5
:10187000FFF706FB204610210122FEF70BFF204652
:1018800010210022FEF706FF284610210022FEF755
:1018900001FFED208DF803000DF103013046012218
:1018A0004FF47A73FFF7ECFA204610210122FEF77D
:1018B000F1FE204610210022FEF7ECFE2846102102
:1018C0000122FEF7E7FE0DF10301304601224FF43D
:1018D0007A738DF803A0FFF7D3FA20461021012276
:1018E000FEF7D8FE204610210022FEF7D3FE284640
:1018F00010210122FEF7CEFE03208DF803000DF12A
:101900000301304601224FF47A73FFF7B9FA2046FB
:1019100010210122FEF7BEFE204610210022FEF714
:10192000B9FE284610210122FEF7B4FE12208DF8E0
:1019300003000DF10301304601224FF47A73FFF7E3
:101940009FFA204610210122FEF7A4FE2046102116
:101950000022FEF79FFE284610210122FEF79AFE84
:1019600081208DF803000DF10301304601224FF470
:101970007A73FFF785FA204610210122FEF78AFECE
:10198000204610210022FEF785FE28461021002265
:10199000FEF780FEE8208DF803000DF103013046CC
:1019A00001224FF47A73FFF76BFA204610210122CF
:1019B000FEF770FE204610210022FEF76BFE28463F
:1019C00010210122FEF766FE85208DF803000DF13F
:1019D0000301304601224FF47A73FFF751FA204693
:1019E00010210122FEF756FE204610210022FEF7AC
:1019F00051FE284610210122FEF74CFE0DF1030195
:101A0000304601224FF47A738DF80390FFF738FACD
:101A1000204610210122FEF73DFE20461021002223
:101A2000FEF738FE284610210122FEF733FE78200B
:101A30008DF803000DF10301304601224FF47A7353
:101A4000FFF71EFA204610210122FEF723FE204652
:101A500010210022FEF71EFE284610210022FEF76C
:101A600019FEF6208DF803000DF103013046012226
:101A70004FF47A73FFF704FA204610210122FEF793
:101A800009FE204610210022FEF704FE2846102100
:101A90000122FEF7FFFD0DF10301304601224FF454
:101AA0007A738DF803B04FF0010BFFF7E9F9204688
:101AB00010210122FEF7EEFD204610210022FEF744
:101AC000E9FD284610210122FEF7E4FD0DF1030196
:101AD000304601224FF47A738DF80370FFF7D0F986
:101AE000204610210122FEF7D5FD204610210022BC
:101AF000FEF7D0FD284610210122FEF7CBFD0DF1A7
:101B00000301304601224FF47A738DF80380FFF70A
:101B1000B7F9204610210122FEF7BCFD2046102116
:101B20000022FEF7B7FD284610210022FEF7B2FD85
:101B3000CB208DF803000DF10301304601224FF454
:101B40007A73FFF79DF9204610210122FEF7A2FDCE
:101B5000204610210022FEF79DFD2846102101227B
:101B6000FEF798FD39208DF803000DF10301304692
:101B700001224FF47A73FFF783F9204610210122E6
:101B8000FEF788FD204610210022FEF783FD28463F
:101B900010210122FEF77EFD2C208DF803000DF1AF
:101BA0000301304601224FF47A73FFF769F92046AA
:101BB00010210122FEF76EFD204610210022FEF7C3
:101BC00069FD284610210122FEF764FD0DF1030195
:101BD000304601224FF47A738DF80380FFF750F9F5
:101BE000204610210122FEF755FD2046102100223B
:101BF000FEF750FD284610210122FEF74BFD342050
:101C00008DF803000DF10301304601224FF47A7381
:101C1000FFF736F9204610210122FEF73BFD204652
:101C200010210022FEF736FD284610210122FEF782
:101C300031FD05208DF803000DF10301304601222E
:101C40004FF47A73FFF71CF9204610210122FEF7AA
:101C500021FD204610210022FEF71CFD2846102100
:101C60000022FEF717FDF7208DF803000DF10301A8
:101C7000304601224FF47A73FFF702F92046102113
:101C80000122FEF707FD204610210022FEF702FD8B
:101C9000284610210122FEF7FDFC20270DF103014B
:101CA000304601224FF47A738DF80370FFF7E8F89D
:101CB000204610210122FEF7EDFC204610210022D3
:101CC000FEF7E8FC284610210022FEF7E3FCEA209C
:101CD0008DF803000DF10301304601224FF47A73B1
:101CE000FFF7CEF8204610210122FEF7D3FC204654
:101CF00010210022FEF7CEFC284610210122FEF71B
:101D0000C9FC0DF10301304601224FF47A738DF8BE
:101D10000380FFF7B5F8204610210122FEF7BAFC38
:101D2000204610210022FEF7B5FC28461021012292
:101D3000FEF7B0FC0DF10301304601224FF47A7337
:101D40008DF80380FFF79CF8204610210122FEF752
:101D5000A1FC204610210022FEF79CFC2846102101
:101D60000022FEF797FCC0208DF803000DF103015F
:101D7000304601224FF47A73FFF782F82046102193
:101D80000122FEF787FC204610210022FEF782FC8C
:101D9000284610210122FEF77DFC0DF1030130469B
:101DA00001224FF47A738DF80370FFF769F820462B
:101DB00010210122FEF76EFC204610210022FEF7C2
:101DC00069FC284610210022FEF764FCC1208DF832
:101DD00003000DF10301304601224FF47A73FFF73F
:101DE0004FF8204610210122FEF754FC2046102116
:101DF0000022FEF74FFC284610210122FEF74AFC84
:101E00000DF10301304601224FF47A738DF80390EF
:101E1000FFF736F8204610210122FEF73BFC204652
:101E200010210022FEF736FC284610210022FEF782
:101E300031FCC5208DF803000DF10301304601226D
:101E40004FF47A73FFF71CF8204610210122FEF7A9
:101E500021FC204610210022FEF71CFC2846102100
:101E60000122FEF717FC31208DF803000DF103016C
:101E7000304601224FF47A73FFF702F82046102112
:101E80000122FEF707FC204610210022FEF702FC8B
:101E9000284610210122FEF7FDFB3C208DF80300AF
:101EA0000DF10301304601224FF47A73FEF7E8FF8B
:101EB000204610210122FEF7EDFB204610210022D2
:101EC000FEF7E8FB284610210022FEF7E3FBC720BF
:101ED0008DF803000DF10301304601224FF47A73AF
:101EE000FEF7CEFF204610210122FEF7D3FB20464D
:101EF00010210022FEF7CEFB284610210122FEF71A
:101F0000C9FBA9208DF803000DF103013046012221
:101F10004FF47A73FEF7B4FF204610210122FEF73A
:101F2000B9FB204610210022FEF7B4FB2846102101
:101F30000022FEF7AFFB3A208DF803000DF10301FC
:101F4000304601224FF47A73FEF79AFF20461021A3
:101F50000122FEF79FFB204610210022FEF79AFB8C
:101F6000284610210122FEF795FB55208DF803002D
:101F70000DF10301304601224FF47A73FEF780FF22
:101F8000204610210122FEF785FB20461021002269
:101F9000FEF780FB284610210022FEF77BFB4FF066
:101FA000360A0DF10301304601224FF47A738DF8A1
:101FB00003A0FEF765FF204610210122FEF76AFB11
:101FC000204610210022FEF765FB28461021012241
:101FD000FEF760FB48208DF803000DF10301304649
:101FE00001224FF47A73FEF74BFF204610210122A5
:101FF000FEF750FB204610210022FEF74BFB28463F
:1020000010210022FEF746FBB1208DF803000DF1F0
:102010000301304601224FF47A73FEF731FF204668
:1020200010210122FEF736FB204610210022FEF788
:1020300031FB284610210122FEF72CFB0DF1030194
:10204000304601224FF47A738DF80380FEF718FFB3
:10205000204610210122FEF71DFB20461021002200
:10206000FEF718FB284610210122FEF713FB18206B
:102070008DF803000DF10301304601224FF47A730D
:10208000FEF7FEFE204610210122FEF703FB20464C
:1020900010210022FEF7FEFA284610210022FEF74A
:1020A000F9FAB4208DF803000DF103013046012246
:1020B0004FF47A73FEF7E4FE204610210122FEF76A
:1020C000E9FA204610210022FEF7E4FA2846102102
:1020D0000122FEF7DFFA0DF10301304601224FF431
:1020E0007A738DF80380FEF7CBFE20461021012283
:1020F000FEF7D0FA204610210022FEF7CBFA284640
:1021000010210122FEF7C6FA0DF10301304601222B
:102110004FF47A738DF80380FEF7B2FE204610214B
:102120000122FEF7B7FA204610210022FEF7B2FA8C
:10213000284610210022FEF7ADFAF2208DF80300A8
:102140000DF10301304601224FF47A73FEF798FE39
:10215000204610210122FEF79DFA20461021002280
:10216000FEF798FA284610210122FEF793FA0DF1A6
:102170000301304601224FF47A738DF80380FEF795
:102180007FFE204610210122FEF784FA204610210E
:102190000022FEF77FFA284610210022FEF77AFA85
:1021A00026208DF803000DF10301304601224FF483
:1021B0007A73FEF765FE204610210122FEF76AFAC7
:1021C000204610210022FEF765FA28461021012240
:1021D000FEF760FA0DF10301304601224FF47A73E5
:1021E0008DF803B0FEF74CFE204610210122FEF7C9
:1021F00051FA204610210022FEF74CFA2846102101
:102200000022FEF747FAE0208DF803000DF10301EC
:10221000304601224FF47A73FEF732FE2046102139
:102220000122FEF737FA204610210022FEF732FA8B
:10223000284610210122FEF72DFA4FF00F090DF16B
:102240000301304601224FF47A738DF80390FEF7B4
:1022500017FE204610210122FEF71CFA204610210D
:102260000022FEF717FA284610210122FEF712FA83
:1022700017208DF803000DF10301304601224FF4C1
:102280007A73FEF7FDFD204610210122FEF702FAC7
:10229000204610210022FEF7FDF9284610210122D8
:1022A000FEF7F8F914208DF803000DF10301304614
:1022B00001224FF47A73FEF7E3FD2046102101223C
:1022C000FEF7E8F9204610210022FEF7E3F9284640
:1022D00010210122FEF7DEF909208DF803000DF12F
:1022E0000301304601224FF47A73FEF7C9FD204600
:1022F00010210122FEF7CEF9204610210022FEF720
:10230000C9F9284610210122FEF7C4F90C208DF8E6
:1023100003000DF10301304601224FF47A73FEF7FA
:10232000AFFD204610210122FEF7B4F9204610210E
:102330000022FEF7AFF9284610210122FEF7AAF984
:102340004FF0060B0DF10301304601224FF47A7372
:102350008DF803B0FEF794FD204610210122FEF710
:1023600099F9204610210022FEF794F92846102101
:102370000122FEF78FF943208DF803000DF10301D0
:10238000304601224FF47A73FEF77AFD2046102181
:102390000122FEF77FF9204610210022FEF77AF98C
:1023A000284610210122FEF775F975208DF80300EB
:1023B0000DF10301304601224FF47A73FEF760FD00
:1023C000204610210122FEF765F920461021002247
:1023D000FEF760F9284610210122FEF75BF90DF1A6
:1023E0000301304601224FF47A738DF803A0FEF703
:1023F00047FD204610210122FEF74CF9204610210E
:102400000022FEF747F9284610210122FEF742F983
:1024100008270DF10301304601224FF47A738DF83D
:102420000370FEF72DFD204610210122FEF732F940
:10243000204610210022FEF72DF928461021012206
:10244000FEF728F913208DF803000DF10301304643
:1024500001224FF47A73FEF713FD2046102101226A
:10246000FEF718F9204610210022FEF713F928463E
:1024700010210122FEF70EF905208DF803000DF161
:102480000301304601224FF47A73FEF7F9FC20462F
:1024900010210122FEF7FEF8204610210022FEF74F
:1024A000F9F8284610210122FEF7F4F810208DF8E3
:1024B00003000DF10301304601224FF47A73FEF759
:1024C000DFFC204610210122FEF7E4F8204610210F
:1024D0000022FEF7DFF8284610210122FEF7DAF885
:1024E0004FF00B0A0DF10301304601224FF47A73CD
:1024F0008DF803A0FEF7C4FC204610210122FEF750
:10250000C9F8204610210022FEF7C4F82846102101
:102510000122FEF7BFF80DF10301304601224FF40E
:102520007A738DF80370FEF7ABFC20461021012270
:10253000FEF7B0F8204610210022FEF7ABF828463F
:1025400010210022FEF7A6F8E1208DF803000DF11E
:102550000301304601224FF47A73FEF791FC2046C6
:1025600010210122FEF796F8204610210022FEF7E6
:1025700091F8284610210122FEF78CF80DF1030195
:10258000304601224FF47A738DF80380FEF778FC11
:10259000204610210122FEF77DF82046102100225E
:1025A000FEF778F8284610210122FEF773F81F2065
:1025B0008DF803000DF10301304601224FF47A73C8
:1025C000FEF75EFC204610210122FEF763F820464C
:1025D00010210022FEF75EF8284610210122FEF7A6
:1025E00059F823208DF803000DF103013046012234
:1025F0004FF47A73FEF744FC204610210122FEF7C7
:1026000049F8204610210022FEF744F82846102100
:102610000122FEF73FF803208DF803000DF10301BE
:10262000304601224FF47A73FEF72AFC204610212F
:102630000122FEF72FF8204610210022FEF72AF88B
:10264000284610210122FEF725F80E208DF8030000
:102650000DF10301304601224FF47A73FEF710FCAE
:10266000204610210122FEF715F8204610210022F5
:10267000FEF710F8284610210122FEF70BF804207F
:102680008DF803000DF10301304601224FF47A73F7
:10269000FEF7F6FB204610210122FDF7FBFF204646
:1026A00010210022FDF7F6FF284610210122FDF738
:1026B000F1FF39208DF803000DF1030130460122AE
:1026C0004FF47A73FEF7DCFB204610210122FDF760
:1026D000E1FF204610210022FDF7DCFF28461021F3
:1026E0000122FDF7D7FF25208DF803000DF103012E
:1026F000304601224FF47A73FEF7C2FB20461021C8
:102700000122FDF7C7FF204610210022FDF7C2FF7E
:10271000284610210122FDF7BDFF4D208DF8030052
:102720000DF10301304601224FF47A73FEF7A8FB46
:10273000204610210122FDF7ADFF20461021002286
:10274000FDF7A8FF284610210122FDF7A3FF0DF198
:102750000301304601224FF47A738DF803B0FEF77F
:102760008FFB204610210122FDF794FF2046102107
:102770000022FDF78FFF284610210122FDF78AFF76
:102780000D208DF803000DF10301304601224FF4B6
:102790007A73FEF775FB204610210122FDF77AFFC0
:1027A000204610210022FDF775FF28461021012246
:1027B000FDF770FF0DF10301304601224FF47A73EB
:1027C0008DF803A0FEF75CFB204610210122FDF7E7
:1027D00061FF204610210022FDF75CFF28461021F2
:1027E0000122FDF757FF33208DF803000DF103019F
:1027F000304601224FF47A73FEF742FB2046102147
:102800000122FDF747FF204610210022FDF742FF7D
:10281000284610210122FDF73DFF37208DF80300E7
:102820000DF10301304601224FF47A73FEF728FBC5
:10283000204610210122FDF72DFF20461021002205
:10284000FDF728FF284610210122FDF723FF0DF197
:102850000301304601224FF47A738DF80390FEF79E
:102860000FFB204610210122FDF714FF2046102106
:102870000022FDF70FFF284610210022FDF70AFF76
:1028800029208DF803000DF10301304601224FF499
:102890007A73FEF7F5FA204610210122FDF7FAFEC1
:1028A00001B0BDE8F08F00002DE9F04782B00024B0
:1028B000C4F2020417468A4605462046102100222B
:1028C0009846FDF7E7FE04F5006630461021002229
:1028D000FDF7E0FE40F274092A20C2F200098DF8EB
:1028E00005000DF10501484601224FF47A73FEF709
:1028F000C7FA204610210122FDF7CCFE284600F041
:1029000067F8384600F064F8204610210022FDF7F1
:10291000C1FE304610210022FDF7BCFE2B208DF8B1
:1029200006000DF10601484601224FF47A73FEF7C6
:10293000A7FA204610210122FDF7ACFE504600F018
:1029400047F8404600F044F8204610210022FDF7E9
:10295000A1FE304610210022FDF79CFE2C208DF8B0
:1029600007000DF10701484601224FF47A73FEF784
:1029700087FA204610210122FDF78CFE02B0BDE847
:10298000F0870000B0B582B00025C4F2020504460D
:10299000284610210022FDF77DFE05F5006010217C
:1029A0000122FDF777FE40F27400C2F200000DF143
:1029B000070101224FF47A738DF80740FEF760FAA1
:1029C000284610210122FDF765FE02B0B0BD0000CF
:1029D000F0B581B00024C4F202040546204610215F
:1029E0000022FDF757FE04F5006630461021012253
:1029F000FDF750FE2046102100222F0AFDF74AFE67
:102A0000304610210122FDF745FE8DF8027040F29C
:102A10007407C2F200070DF10201384601224FF49B
:102A20007A73FEF72DFA204610210122FDF732FEBF
:102A3000204610210022FDF72DFE304610210122F4
:102A4000FDF728FE0DF10301384601224FF47A7399
:102A50008DF80350FEF714FA204610210122FDF7ED
:102A600019FE204610210122FDF714FE01B0F0BD31
:102A7000B0B582B00025C4F20205044628461021F4
:102A80000022FDF707FE05F5006010210022FDF78A
:102A900001FE40F27400C2F200000DF107010122B4
:102AA0004FF47A738DF80740FEF7EAF928461021B3
:102AB0000122FDF7EFFD02B0B0BD0000092888BF7C
:102AC00070472DE9F0471CA10A5C1EA10D5C20A1F6
:102AD0000F5C22A10C5C24A111F800A025A140F6F6
:102AE000004611F8009026A1C4F2020611F80080F9
:102AF00030468021FDF7CEFD304640212A46FDF7C5
:102B0000C9FD304620213A46FDF7C4FD304610216C
:102B10002246FDF7BFFD304608215246FDF7BAFDBB
:102B2000304604214A46FDF7B5FD304602214246B3
:102B3000BDE8F047FDF7AEBD010001010001010154
:102B4000010100000101010101000001010100007B
:102B50000101000101010101010100000100010169
:102B6000000101000101000001000100000001005E
:102B7000010000000100000001010100010100004E
:102B80000000010101010100010100002DE9F04FE9
:102B900087B0002443F6300006940194C4F202008A
:102BA000016840F6000941F0800101600168C4F24B
:102BB000020901F08001019101990194016800224C
:102BC00041F004010160016801F0040101910199E3
:102BD0000194016841F002010160016801F0020105
:102BE000019101990194016841F0080101600168B7
:102BF00001F00801019101990194016841F001017E
:102C00000160006841F6305100F001000190019828
:102C10004846FDF73FFDA9F58066304641F20401C4
:102C20000022FDF737FDA9F5006840464FF48061AA
:102C30000022FDF72FFD09F580652846FF210022BF
:102C4000FDF728FD302002AF02904FF0010A4FF04F
:102C5000020B48463946CDE903A4CDF814B0FDF780
:102C600045FC41F20400CDE9020A30463946CDE97F
:102C7000044BFDF73BFC4FF4F05002904FF48810EA
:102C8000CDE9030A28463946FDF730FC4FF4E850F9
:102C9000CDE9020A48463946CDE90444FDF726FC51
:102CA0004FF48060CDE9020A40463946CDE904443C
:102CB000FDF71CFCFF20CDE9020A28463946CDE984
:102CC0000444FDF713FC172000210022FDF76CFDE2
:102CD0001720FDF755FD282000210022FDF764FD97
:102CE0002820FDF74DFD07B0BDE8F08F80B540F21C
:102CF000740043F60001C2F20000C4F200014FF478
:102D0000827200234FF4007C80E80E000A21C0E9A3
:102D10000333C0E9053CC361C0E90833C0E90A31A7
:102D2000FEF71EF8002808BF80BDBDE88040FDF713
:102D30008FBB0000FEE70000FEE7000070470000C8
:102D40002DE9F04182B01E4690460D460446FDF73F
:102D5000A7FC301A00EB0807FDF7A2FC40F20801BF
:102D6000C2F200010968C1F3CB31794301912168B6
:102D70008A682A40AA4227D1064618F101001FD0CE
:102D8000FDF78EFC801BB84222D2019801990028E1
:102D9000A1F1010101912168896808BF074601EA94
:102DA0000500A842ECD00FE088682840A8420BD16B
:102DB00088682840A84207D188682840A84203D1E3
:102DC00088682840A842EFD0002002B0BDE8F0811A
:102DD000D4E900014268B1F5827F22F0E00242604E
:102DE0000AD1A168B1F5004F02D0B1F5806F03D1CF
:102DF000016821F040010160A16AB1F5005F07D1CF
:102E0000016821F400510160016841F40051016042
:102E1000012084F85100002084F85000032002B003
:102E2000BDE8F08170470000FDF740BC4EF68850C9
:102E3000CEF20000016841F47001016070470000AB
:102E4000FEE7000092B047F20005C4F20005FDF76E
:102E50003BFC06AC04F108002821FDF77DFA0026B2
:102E600043F640000596CDE90366CDE9016600967C
:102E7000C4F202000168012741F08051016000683E
:102E800000F08050009000980096286840F4804040
:102E90002860286800F48040009000984FF480304B
:102EA0000790204606970C96FDF7A0FD20B1EFF3A2
:102EB000108072B6FEE700BF0F20CDE9010701A820
:102EC0000021CDE903660596FDF7AAFC20B1EFF3DA
:102ED000108072B6FEE700BFFFF758FEFFF706FF4F
:102EE000FEF710FC05F5CA3004210122FDF7D2FBE4
:102EF00005F5CC3020210122FDF7CCFB4FF47840C2
:102F0000FEF7BEFB05A0042100F00CF80020002114
:102F100000220023FDF7A2FAF8E700BF61626364B4
:102F20000000000070B5002908BF70BD451EC1EB50
:102F30000116002415F8012F204600210023FEF77A
:102F4000E1F80F34A642F5D170BDF1EE100A4FF64C
:102F5000FF71C0F2C03120EA010040F04070E1EEA4
:102F6000100A704700000000000000000102030486
:102F70000607080900000000000000000000000033
:102F80000000000000000008080808080808000009
:102F90001818000000486C24120000000000000017
:102FA000000000000000002424247F1212127F126F
:102FB000121200000000081C2A2A0A0C1828282ACD
:102FC0002A1C080800000022251515152A585454FB
:102FD000542200000000000C1212120A762529115A
:102FE000916E0000000606040300000000000000CF
:102FF0000000000000402010100808080808081011
:1030000010204000000204080810101010101008D2
:10301000080402000000000008086B1C1C6B080874
:103020000000000000000000080808087F080808E9
:103030000800000000000000000000000000000088
:10304000060604030000000000000000FE0000006F
:103050000000000000000000000000000000000070
:1030600006060000000080404020201010080804E0
:10307000040202000000001824424242424242423E
:1030800024180000000000080E08080808080808B6
:10309000083E00000000003C42424220201008048C
:1030A000427E00000000003C424220182040404286
:1030B000221C0000000000203028242422227E2030
:1030C000207800000000007E0202021A26404042E2
:1030D000221C0000000000382402021A264242424C
:1030E000241800000000007E2222101008080808A2
:1030F000080800000000003C4242422418244242DA
:10310000423C000000000018244242426458404003
:10311000241C00000000000000001818000000003F
:103120001818000000000000000000080000000067
:1031300000080804000000402010080402040810E1
:10314000204000000000000000007F0000007F0021
:1031500000000000000000020408102040201008B9
:10316000040200000000003C4242464020101000D3
:10317000181800000000001C225A555555552D42C4
:10318000221C00000000000808181414243C2242ED
:1031900042E700000000001F2222221E224242427B
:1031A000221F00000000007C424201010101014297
:1031B000221C00000000001F2242424242424242C2
:1031C000221F00000000003F4212121E1212024293
:1031D000423F00000000003F4212121E1212020283
:1031E000020700000000003C22220101017121229F
:1031F000221C0000000000E7424242427E4242425E
:1032000042E700000000003E080808080808080817
:10321000083E00000000007C10101010101010106C
:103220001010110F0000007722120A0E0A1212224B
:1032300022770000000000070202020202020202DE
:10324000427F000000000077363636362A2A2A2AC6
:103250002A6B0000000000E346464A4A525252627E
:10326000624700000000001C2241414141414141B0
:10327000221C00000000003F424242423E02020285
:10328000020700000000001C2241414141414D5312
:10329000321C60000000003F4242423E12122222D5
:1032A00042C700000000007C424202041820404255
:1032B000423E00000000007F49080808080808088E
:1032C000081C0000000000E74242424242424242E3
:1032D000423C0000000000E742422224241414185B
:1032E000080800000000006B49494949555536223D
:1032F00022220000000000E7422424181818242489
:1033000042E7000000000077222214140808080891
:10331000081C00000000007E212010100804044258
:10332000423F000000780808080808080808080854
:1033300008087800000002020404080808101020A1
:1033400020204040001E10101010101010101010FF
:1033500010101E00003844000000000000000000B3
:10336000000000000000000000000000000000005D
:10337000000000FF00060800000000000000000040
:1033800000000000000000000000003C42784442C1
:1033900042FC0000000000030202021A26424242E0
:1033A000261A00000000000000000038440202025B
:1033B00044380000000000604040407844424242EF
:1033C00064D80000000000000000003C427E0202C1
:1033D000423C0000000000F08808087E0808080849
:1033E000083E0000000000000000007C22221C02B9
:1033F0003C42423C000000030202023A4642424282
:1034000042E700000000000C0C00000E080808084D
:10341000083E00000000003030000038202020204E
:103420002020221E0000000302020272120A16125D
:10343000227700000000000E0808080808080808A5
:10344000083E0000000000000000007F929292926F
:1034500092B70000000000000000003B46424242DC
:1034600042E70000000000000000003C42424242EF
:10347000423C0000000000000000001B26424242C7
:10348000221E020700000000000000784442424271
:10349000447840E000000000000000774C04040481
:1034A000041F0000000000000000007C42023C40BD
:1034B000423E0000000000000008083E080808081E
:1034C0000830000000000000000000634242424259
:1034D00062DC000000000000000000E74224241429
:1034E0000808000000000000000000EB49495555A5
:1034F00022220000000000000000007624181818A6
:10350000246E000000000000000000E742242414A4
:1035100018080807000000000000007E22100808BC
:10352000447E000000C020202020201020202020E9
:103530002020C000101010101010101010101010CB
:1035400010101010000608080808081008080808DD
:10355000080806000C32C200000000000000000055
:103560000000000088350008000000201000000066
:10357000C40100089835000810000020C0060000B3
:10358000E001000800000000010000001000000041
:083590000024F400000000001B
:040000050800018965
:00000001FF
