:020000040800F2
:10000000D006002029020008513700081D180008FA
:100010004D3700082104000859380008000000008E
:100020000000000000000000000000003D38000853
:10003000250400080000000055370008413800087A
:10004000430200084302000843020008430200087C
:10005000430200084302000843020008430200086C
:10006000430200084302000843020008430200085C
:10007000430200084302000843020008430200084C
:10008000430200084302000843020008430200083C
:100090004302000843020008430200084904000824
:1000A000430200084302000843020008430200081C
:1000B000430200084302000843020008430200080C
:1000C00043020008430200084302000843020008FC
:1000D00043020008430200084302000843020008EC
:1000E00029040008430200084302000843020008F4
:1000F00043020008430200084302000843020008CC
:1001000043020008430200084302000843020008BB
:1001100043020008430200084302000843020008AB
:10012000430200084302000843020008430200089B
:10013000430200084302000843020008430200088B
:10014000430200084302000843020008430200087B
:10015000430200084302000843020008430200086B
:10016000430200084302000843020008430200085B
:100170004302000843020008430200080000000098
:10018000430200084302000800F002F800F03CF8C7
:100190000AA090E8000C82448344AAF10107DA45E2
:1001A00001D100F031F8AFF2090EBAE80F0013F0F8
:1001B000010F18BFFB1A43F00103184798490000CC
:1001C000B8490000103A24BF78C878C1FAD852075D
:1001D00024BF30C830C144BF04680C6070470000C1
:1001E0000023002400250026103A28BF78C1FBD840
:1001F000520728BF30C148BF0B6070471FB503F0DE
:10020000E3FB1FBD10B510BD00F0D0F81146FFF79D
:10021000F5FF03F023FB00F0EEF803B4FFF7F2FF65
:1002200003BC00F0F5F80000094880470948004782
:10023000FEE7FEE7FEE7FEE7FEE7FEE7FEE7FEE796
:10024000FEE7FEE704480549054A064B70470000F3
:100250004538000889010008D0000020D0060020A1
:10026000D0020020D002002053EA020C00F0698086
:100270002DE9F04B4FF00006002B1FBFB3FA83F5BA
:1002800003FA05F424FA05F65E4012BF1643B2FAEB
:1002900082F502FA05F4C5F120051EBF22FA05FC1D
:1002A00044EA0C04203556EA044C4FEA144418BFC3
:1002B000641C4FF000084FF00009904271EB030CF2
:1002C00039D3002919BFB1FA81F701FA07F6B0FA5C
:1002D00080F700FA07F6C7F120071EBF20FA07FCD7
:1002E00046EA0C062037B6FBF4FCA7EB0507103FE7
:1002F00007F01F0BCBF120062CFA06F60CFA0BFBCD
:1003000044BFB3460026202FA4BF5E464FF0000B2B
:100310005BEA060C08BF4FF0010B19EB0B0948EB29
:100320000608ABFB027C06FB02CC0BFB03CCC01B1C
:1003300071EB0C01C1E70B46024641464846BDE859
:10034000F08B13B5084318BF4FF0FF300146AFF3F1
:100350000080BDE81C4070474FF0000200B5134616
:1003600094469646203922BFA0E80C50A0E80C50D5
:10037000B1F12001BFF4F7AF090728BFA0E80C5086
:1003800048BF0CC05DF804EB890028BF40F8042B7F
:1003900008BF704748BF20F8022B11F0804F18BFEC
:1003A00000F8012B7047704770477047754600F0A2
:1003B0002BF8AE4605006946534620F007008546F7
:1003C00018B020B5FFF73EFFBDE820404FF0000613
:1003D0004FF000074FF000084FF0000BAC46ACE8C0
:1003E000C009ACE8C009ACE8C009ACE8C00921F01C
:1003F00007018D46704710B50446AFF300802046D4
:10040000BDE81040FFF709BF00487047100000200A
:1004100001491820ABBEFEE726000200704700002D
:10042000FEE700007047000080B54FF4806000F0E8
:10043000DFFB4FF4006000F0DBFB4FF48050BDE8C1
:10044000804000F0D5BB00004FF4007000F0D0BB3E
:10045000EFF3108072B600BFFEE70000F0B581B088
:1004600040F60007C4F2020715460E460246A7F5FD
:1004700000604FF480611C4601F06AFD38464FF47D
:100480008061324601F064FD38464FF400612A462F
:1004900001F05EFD38464FF48051224601B0BDE8C0
:1004A000F04001F055BD00002DE9F04F9BB01C4617
:1004B000249B15461A780193002A1A9100F0748340
:1004C0004FF60061C0F20F0101F5F87100910AE0EA
:1004D00018230221019F19987A5C39441844002A94
:1004E000019100F0618351B2B1F1FF3F199040F3E7
:1004F0008D804FF60061C0F20F0101EB0211202A3E
:100500004FF00002009B88BF01EA0302411CA54294
:10051000189100F1020140F0E7821791C11C169179
:10052000011D1591411D1491811D00F1070843F62D
:10053000F210C0F6000086184FF0000A139105E093
:100540000AF1010ABAF1100F00F02B8316F90A70B4
:100550001A98B7F1FF3F00EB0A0917DD5FFA87FB36
:100560005FEA4B601CD45FEA8B6021D45FEACB600A
:1005700026D45FEA0B702BD45FEA4B7030D45FEA6D
:100580008B7035D45FEACB70DAD039E019984946E0
:100590002A4600F00DFB5FFA87FB5FEA4B60E2D56D
:1005A000189849462A4600F003FB5FEA8B60DDD5C8
:1005B000179849462A4600F0FBFA5FEACB60D8D587
:1005C000169849462A4600F0F3FA5FEA0B70D3D535
:1005D000159849462A4600F0EBFA5FEA4B70CED5F3
:1005E000149849462A4600F0E3FA5FEA8B70C9D5B1
:1005F000139849462A4600F0DBFA5FEACB709FD099
:10060000404649462A4600F0D3FA99E700F108012E
:10061000029100F110010B91411C0991811C08917C
:10062000C11C0791011D0691411D0591811D049179
:10063000C11D039100F109010A9100F10A01129113
:1006400000F10B010C9100F10C01139100F10D016F
:100650000D9100F10E01149100F10F010E9100F1C6
:100660001101159100F11201189100F1130111917E
:1006700000F11401179100F1150144F2D3591091C2
:1006800000F1160117304FF0000BC0F6000916916B
:100690000F9007E00BF1010BBBF1280F09F14A099C
:1006A0003FF416AF4A2044F2D3510BFB00F0C0F6E2
:1006B0000001085C019909788842EBD144F2D350DB
:1006C000C0F600004A210BFB0100019940784978EF
:1006D0008842DFD14FF0000A0AE000BF0F98394688
:1006E0002A4600F065FA0AF1010ABAF1180FD1D0D2
:1006F0000AEB4A0009EB000898F802601A9970B2F8
:10070000A54201EB0A0721D1B0F1FF3F66DD70067B
:100710006BD4B00670D4F00676D430077CD4700762
:1007200000F18280B00700F18780F00740F08C80F4
:1007300098F90300B0F1FF3FC6B240F39180A542A3
:1007400044D1700600F19E80A1E000BF2A46B0F1BE
:10075000FF3FC8BF22461998394600F029FA7006B3
:100760000998394654BF22462A4600F021FAB006BD
:100770000898394654BF22462A4600F019FAF00676
:100780000798394654BF22462A4600F011FA30072E
:100790000698394654BF22462A4600F009FA7007E7
:1007A0000598394654BF22462A4600F001FAB007A0
:1007B0000498394654BF22462A4600F0F9F9F0075A
:1007C00042D103983946224641E000BF029839469B
:1007D000224600F0EDF970064BD553E019983946E2
:1007E0002A4600F0E5F9700693D5099839462A465D
:1007F00000F0DEF9B0068ED5089839462A4600F09A
:10080000D7F9F0067FF589AF079839462A4600F0F8
:10081000CFF930077FF583AF069839462A4600F0B6
:10082000C7F970077FF57EAF059839462A4600F074
:10083000BFF9B0077FF579AF049839462A4600F032
:10084000B7F9F0073FF474AF039839462A4600F031
:10085000AFF998F90300B0F1FF3FC6B23FF76FAFB1
:10086000029839462A4600F0A3F970060AD4A54238
:100870000DD00A983946224600F09AF9B0060DD4F8
:100880001AE000BF0A9839462A4600F091F9B006EE
:1008900004D4A54210D1F0060AD51DE012983946BD
:1008A0002A4600F085F9F00616D4A5420BD100BF08
:1008B000300718D51CE000BF12983946224600F0D8
:1008C00077F9F00608D40C983946224600F070F902
:1008D00030070DD41AE000BF0C9839462A4600F0C4
:1008E00067F9300704D4A54210D170070AD51DE07E
:1008F000139839462A4600F05BF9700716D4A542D2
:100900000BD100BFB00718D51CE000BF13983946C3
:10091000224600F04DF9700708D40D98394622465A
:1009200000F046F9B0070DD422E000BF0D9839461B
:100930002A4600F03DF9B00704D4A54218D1F007CB
:100940000AD02FE0149839462A4600F031F9F00712
:1009500028D1A54213D100BF98F90400B0F1FF3FA0
:10096000C6B22ADDA54215D170062FD542E000BFE0
:1009700014983946224600F01BF9F00712D10E9860
:100980003946224600F014F998F90400B0F1FF3F0F
:10099000C6B21FDD0B983946224600F009F97006F1
:1009A00020D527E00E9839462A4600F001F998F93B
:1009B0000400B0F1FF3FC6B2D4DC0B9839462A469A
:1009C00000F0F6F8700615D4A5420BD1B00618D584
:1009D0001CE000BF0B9839462A4600F0E9F8700683
:1009E00008D400BF15983946224600F0E1F8B00659
:1009F0000CD419E0159839462A4600F0D9F8B0060B
:100A000004D4A54210D1F0060AD51DE01898394645
:100A10002A4600F0CDF8F00616D4A5420BD100BF4F
:100A2000300718D51CE000BF18983946224600F060
:100A3000BFF8F00608D411983946224600F0B8F8FD
:100A400030070DD41AE000BF119839462A4600F04D
:100A5000AFF8300704D4A54210D170070AD51DE0C5
:100A6000179839462A4600F0A3F8700716D4A54215
:100A70000BD100BFB00718D51EE000BF179839464C
:100A8000224600F095F8700708D41098394622469F
:100A900000F08EF8B0070FD41AE000BF1098394666
:100AA0002A4600F085F8B00706D4A54210D1F00719
:100AB0007FF414AE17E600BF169839462A4600F0B8
:100AC00077F8F0077FF40AAEA5423FF40CAE07E0DA
:100AD00016983946224600F06BF8F0077FF4FEAD19
:100AE0000F9839462246FCE51791C11C1691011D4D
:100AF0001591411D00F1060800F1070943F6F210B7
:100B0000C0F6000086184FF0000B149116F90B7018
:100B10001A98224600EB0B0A002F48BF2A46199864
:100B2000514600F045F878061898514654BF2246C1
:100B30002A4600F03DF8FFB2B8061798514654BF58
:100B400022462A4600F034F8F8061698514654BF5B
:100B500022462A4600F02CF838071598514654BF13
:100B600022462A4600F024F878071498514654BFCC
:100B700022462A4600F01CF8B8074046514654BFAA
:100B800022462A4600F014F8F807484651460CBFA2
:100B900022462A4600F00CF80BF1010BBBF1100FB6
:100BA000B4D10823012195E41BB0BDE8F08F00000B
:100BB00010B5144602F08CFB2046BDE8104002F050
:100BC00013BC0000B0B5044600F0F8F8054640F24A
:100BD0000000C2F200000078611C18BF044400BF8E
:100BE00000F0ECF8401BA042FAD3B0BD7047000003
:100BF00043F61441C4F201010A68024214BF0860BE
:100C00007047FFF7F3BF00002DE9F04F82B000F10D
:100C10003E4241F6004502F1FF77C4F20205082288
:100C200043F6004E4FEAB726A84208BF0722C4F297
:100C3000010E072E38BF4FEAB722012500260027F4
:100C40004FF00008009208E008F101080437B8F1FD
:100C5000100F06F1020600F0A7800C6805FA08F9EB
:100C600014EA090FF0D0D1F804B003220BF0030C02
:100C7000ACF10104B240012C6FEA020A10D882687C
:100C8000CC6802EA0A02B440224382604268CBF395
:100C9000001422EA090204FA08F42243426005E043
:100CA000BCF1030F02D14FF0030C20E0C2688C6846
:100CB00002EA0A02B4402243BCF1020FC26016D11C
:100CC0006FF0030202EA58020244D2F820C007F093
:100CD0001C050F230C69AB402CEA030304FA05F54D
:100CE0002B431362D1F804B001250BF0030C02680A
:100CF0000CFA06F302EA0A021A431BF4403F0260B0
:100D0000A2D0002243F644030192C4F202031A68FF
:100D10004FF6084C42F480421A601A68CFF6FF7C06
:100D200002F480420192019A28F00302724452F8C0
:100D30000C3007F00C050F24AC40A343009C04FAD0
:100D400005F52B4342F80C30DEF808204B6842EAE8
:100D5000090543F60C4CDC0258BF22EA0905CEF81F
:100D60000850C4F2010CDCF800209C0242EA09059C
:100D700058BF22EA0905CCF80050DEF804209C0395
:100D800042EA090558BF22EA0905CEF80450DEF808
:100D90000020DB0342EA090558BF22EA0905CEF824
:100DA0000050012550E700BF02B0BDE8F08F000001
:100DB000002A08BF090481617047000040F2CC009E
:100DC000C2F200000068704740F2000040F2CC011F
:100DD000C2F20000C2F2000100780A681044086004
:100DE0007047000080B543F60040C4F2020001687D
:100DF00041F400710160016841F4806101600168A3
:100E000041F480710160032000F088F80F2000F0A9
:100E100005F800F027F8002080BD000070B540F212
:100E20000006C2F2000640F208013278C2F2000168
:100E30004FF47A730968B3FBF2F20446B1FBF2F1A6
:100E4000084600F0D5FC0F2C4FF0010508D838B942
:100E50004FF0FF3021460022002500F033F8746087
:100E6000284670BD82B0002043F640010190C4F2D4
:100E700002014A6842F480424A604A6802F48042B1
:100E80000192019A0090086840F08050086008685C
:100E900000F080500090009802B07047002848BFD2
:100EA0007047C1B200F01F00012202FA00F04EF2BA
:100EB0000012CEF2000242EAD10121F003010860E3
:100EC0007047000010B54EF60C5CCEF2000CDCF85A
:100ED0000030C3F3022E8EF00704042C28BF042434
:100EE000BEF103034FF0FF3E0EFA04F438BF0023B7
:100EF000A14399400EFA03F39A43114300F00F0205
:100F000000F160430901043A03F564436244002898
:100F100048BF02F10C03197010BD00004EF60C51D1
:100F2000CEF200010A684FF6FF031A4060F30A226E
:100F300042F0806040F0FD70086070472DE9F0419C
:100F4000002800F08B8043F60808C4F2020804462B
:100F5000D8F8F8030D4600F00700884207D288F859
:100F6000F853D8F8F80300F00700A84276D12068BB
:100F7000810717D5410705D5D8F8001041F4E05195
:100F8000C8F80010010705D5D8F8001041F46041F9
:100F9000C8F80010D8F80010A26821F0F001114341
:100FA000C8F80010C0073FD1D8F8F80300F00700D8
:100FB000A84207D988F8F853D8F8F80300F00700DA
:100FC000A8424BD12068410707D5D8F80010E26845
:100FD00021F4E0511143C8F80010000708D5D8F8F3
:100FE0000000216920F4604040EAC100C8F8000018
:100FF00000F054F8D8F8001043F6E212C1F30311E0
:10100000C0F60002515C40F2080220FA01F140F201
:101010000400C2F200000068C2F200021160FFF793
:10102000FDFE0020BDE8F0816068811E022907D224
:1010300058F8081C89015CBF0120BDE8F08111E06F
:10104000012807D158F8081C89035CBF0120BDE8BE
:10105000F08107E058F8081C890703D40120BDE897
:10106000F08100BFD8F8001021F003010843C8F850
:101070000000FFF7A3FE064641F28837D8F80000CB
:10108000616800F00C00B0EB810F8DD0FFF796FE89
:10109000801BB842F2D90320BDE8F08110B543F6B9
:1010A0000404C4F20204606800F00C0008280BD0AD
:1010B000042819BF42F20040C0F2F40047F6400095
:1010C000C0F27D1010BD00BF20682168236849026E
:1010D00047F64001C0F27D1100F03F02C3F38810D3
:1010E0005CBF42F20041C0F2F401A1FB0001002309
:1010F000FFF7BAF821680222C1F3014102EB410176
:10110000B0FBF1F010BD00002DE9F04182B00028E5
:1011100068D00446007843F60006C007C4F2020611
:101120000BD0B06800F00C00042840F09F803068BD
:10113000800302D56068002854D0207880071AD533
:10114000B06810F00C0F09D0B06800F00C0008284F
:1011500040F0A6807068400200F1A28030688007ED
:1011600002D5E06801283DD13068216920F0F800FF
:1011700040EAC10030602078000737D4207840076B
:101180004CD4A56955B3B06800F00C00082840F0B5
:10119000BB80012D26D07068E16900F480028A428C
:1011A00020D1216A00F03F028A421BD147F6C0716C
:1011B000626A0140B1EB821F14D1A16A4FF6FF733E
:1011C000C903994300F44032A1F580318A4209D124
:1011D000E16A00F07060B0EB016F03D1002002B053
:1011E000BDE8F081012002B0BDE8F081606900280F
:1011F00040F20000C4F2472076D00121C0F8801EE2
:10120000FFF7DCFD054600BF706F8007B6D4FFF71F
:10121000D5FD401B0228F7D9DDE000BF306C10F08F
:1012200080580AD100200190306C40F0805030642A
:10123000306C00F080500190019847F20007C4F232
:1012400000073868C00541D4386840F480703860C1
:10125000FFF7B4FD054600BF3868C00536D4FFF778
:10126000ADFD401B0228F7D9B5E000BFB06800F023
:101270000C00082803D1706840023FF558AF606841
:10128000B0F5803F07D0B0F5A02F40F08D803068DA
:1012900040F480203060306840F4803030608DE071
:1012A000E068002852D00020C4F2472001210160EC
:1012B000FFF784FD054600BF306880073FF554AF57
:1012C000FFF77CFD401B0228F6D984E0A0680128C6
:1012D00005D005284ED1306F40F004003067306FE4
:1012E00040F0010030674FE00021C0F8801EFFF79A
:1012F00065FD0546706F80077FF540AFFFF75EFD27
:10130000401B0228F6D966E00027C4F247270020D8
:101310003866FFF753FD022D05460BD1306880017A
:101320005ED5FFF74BFD401B02284FF00300F5D9B7
:1013300055E700BF306880017FF550AFFFF73EFDF5
:10134000401B02284FF00300F4D948E70020C4F204
:10135000472000210160FFF731FD05463068800716
:101360007FF509AFFFF72AFD401B02284FF003006D
:10137000F4D934E7316F002821F001013167316F72
:1013800021F0040131674DD0FFF718FD054641F209
:10139000883700BF306F800756D4FFF70FFD401B22
:1013A000B842F7D917E000BF3168002821F4803136
:1013B0003160316821F4802131604FD0FFF7FEFCAD
:1013C000054600BF306880033FF5B7AEFFF7F6FC77
:1013D000401B6428F6D9032002B0BDE8F08100BFAD
:1013E00004F11C052FCD084340EA8210D9034FF6C3
:1013F000FF729143A1F5803140EA056008437060B7
:1014000001203866FFF7DAFC044600BF306880012F
:101410003FF5E4AEFFF7D2FC001B02284FF00300BB
:10142000F4D9DCE6FFF7CAFC054641F2883700BF75
:10143000306F800708D5FFF7C1FC401BB8424FF062
:101440000300F5D9CBE600BFB8F1000F7FF499AEE9
:10145000306C20F08050306493E600BFFFF7AEFCA4
:10146000054600BF306880037FF567AEFFF7A6FC36
:10147000401B64284FF00300F4D9B0E670B538B1D2
:101480000446406A30B10020206104F1140007E0F6
:10149000012070BD6068B0F5827F03D004F11C00AC
:1014A000002101600026A66294F8510020B9204670
:1014B00084F8506000F03CF8022084F8510094E871
:1014C0000F0001F48271056802F4044225F0400522
:1014D0000560114403F400622369114403F0020221
:1014E0006369114403F00102A369E569114403F43F
:1014F0000072114405F03802256A114405F080029B
:10150000A56A114305F4005211430160626A042187
:1015100001EA134102F0100211444160C16921F453
:101520000061C1610120666584F85100304670BDDC
:1015300080B586B0016843F60000C4F20000814225
:1015400002D006B080BD00BF002143F630020191F9
:10155000C4F20202136900F5E63043F480431361DC
:10156000136903F480430193019B0191136843F0D5
:1015700002031360126802F002020192019A4FF412
:10158000604201920222CDE902210321049105214A
:10159000059101A9FFF738FB06B080BD2DE9F043A6
:1015A00083B0044690F85000012803D1022003B014
:1015B000BDE8F0834FF001091D4616460F4684F83A
:1015C0005090FFF7FBFB94F85110012944D180465D
:1015D000002F4FF0010018BF002E00F0D68003202E
:1015E000002184F8510061652763A686E686A16321
:1015F000A187E187A0682164B0F5004F206861648D
:1016000007D1016821F040010160016841F4804187
:1016100001600168490603D4016841F0400101609E
:101620006168731EE268B1FA81F1B3FA83F3490984
:101630005B09B2F5006F41EA03013DD131B137F8E2
:10164000021BC1602763E08E0138E086E08E00282F
:101650006CD0681C0DD11EE0022096E0216B31F8A1
:10166000022BC2602163E08E0138E086E08E002804
:101670005CD0206881688907F0D4FFF79FFBA0EB5E
:101680000800A842F2D303207FE000BFFFF796FBDB
:10169000E08E00284AD0206881688907F6D5216B42
:1016A00031F8022BC2602163E08E0138E086E08EC3
:1016B0000028F0D13AE000BF39B139780173206BCE
:1016C00001302063E08E0138E086E08E70B3681C44
:1016D0000BD11BE0216B09780173206B0130206373
:1016E000E08E0138E086E08E00B3206881688907CB
:1016F000F0D4FFF763FBA0EB0800A842F3D303206C
:1017000043E000BFFFF75AFBE08E78B120688168A4
:101710008907F7D5216B09780173206B01302063AD
:10172000E08E0138E086E08E0028EFD140F208001C
:10173000C2F20000006849F68171C1F25E61A0FB4F
:101740000101480D4FF47A71484302906068B0F58A
:10175000827F23D1204680212A46434601F0FCFFA8
:1017600028B1606D40F02000606520206065A068B1
:1017700038B9002001902068C1680191806801900B
:101780000198606D002818BF0120002184F8519055
:1017900084F8501003B0BDE8F08300BF0298002821
:1017A000E5D0029801380290206880680006DED5F6
:1017B00002980028DBD002980138029020688068E7
:1017C0000006D4D502980028D1D0029801380290A2
:1017D000206880680006CAD502980028C7D0029801
:1017E00001380290206880680006D7D4BFE7000067
:1017F000411E0020B0EB116F1CBF012070474EF25C
:101800001002CEF2000251604EF62351CEF20001DA
:10181000F0230B700721906011607047FEE7000015
:101820002DE9F04F93B0E02800F293800C46B1F51B
:10183000987F00F28E8040F27007C2F200070546E2
:10184000D7F8008000F1070B2A209A46A2F1200960
:1018500004F10F0601F018FEC5F3072001F09EFD0C
:10186000E8B2109001F09AFDCBF3072001F096FD4D
:101870005FFA8BF0129001F091FD2B2001F004FE35
:10188000C4F3072001F08AFDE0B201F087FDC6F342
:10189000072001F083FDF0B201F080FD2C2001F063
:1018A000F3FD5FFA89F0BAF1000F4FEA001353D04D
:1018B00043F6E370C0F60000C4184FF0FF3500BFD8
:1018C000601990F90160F007404608BF4FF6FF70BD
:1018D000386001F089FDB007404658BF4FF6FF70F1
:1018E000386001F081FD7007404658BF4FF6FF7029
:1018F000386001F079FD3007404658BF4FF6FF7061
:10190000386001F071FDF006404658BF4FF6FF7099
:10191000386001F069FDB006404658BF4FF6FF70D1
:10192000386001F061FD7006404658BF4FF6FF7009
:10193000386001F059FD4046B6F1FF3FC8BF4FF691
:10194000FF70386001F050FD01350F2DB8D1C7F898
:10195000008013B0BDE8F08F280A05F1010C11904A
:101960000E944FEA1C20AC1C0390200AEA1C059040
:10197000100A0790291D681D4FEA112A4FEA102E00
:10198000C0B20A905FFA8AF00990C8B2089007982E
:1019900043F6E379C0B20790D0B206900598C0F63E
:1019A0000009C0B20590E0B20490039806354B449C
:1019B000C0B20F932B0A03905FFA8CF04FEA1B2BF7
:1019C000DBB2029011985FFA8BF6DDF838B00D9318
:1019D000EBB2109DDDF848A00C935FFA8EF3C0B215
:1019E0004FF0000900960B93019009E060B2B0F14E
:1019F000FF3F40F3638109F10109B9F1100FA6D04F
:101A00000F980BEB090110F809401291E0074FEA1B
:101A10001120119010D1A0073FD460076AD420078D
:101A200000F19680E00600F1C180A00600F1EC8094
:101A30006006DBD516E100BF2A2001F025FD019EDE
:101A4000304601F0ABFC284601F0A8FC304601F01E
:101A5000A5FC284601F0A2FC2B2001F015FD1198F1
:101A600056465FFA80FA504601F098FC12985FFAE9
:101A700080FB584601F092FC5046B24601F08EFCC5
:101A80005846DDF838B001F089FC2C2001F0FCFC50
:101A9000386801F0A9FCA007BFD52A2001F0F4FCAA
:101AA000039D284601F07AFC029E304601F076FC48
:101AB000284601F073FC304601F070FC2B2001F049
:101AC000E3FC1198C6B2304601F068FC1298C5B22A
:101AD000284601F063FC304601F060FC2846109D6A
:101AE00001F05CFC2C2001F0CFFC386801F07CFC9C
:101AF000600794D52A2001F0C7FC059D284601F017
:101B00004DFC049E304601F049FC284601F046FC9D
:101B1000304601F043FC2B2001F0B6FC1198C5B211
:101B2000284601F03BFC1298C6B2304601F036FC64
:101B30002846109D01F032FC304601F02FFC2C208D
:101B400001F0A2FC386801F04FFC20077FF56AAF76
:101B50002A2001F099FC079D284601F01FFC069EF3
:101B6000304601F01BFC284601F018FC304601F01D
:101B700015FC2B2001F088FC1198C5B2284601F015
:101B80000DFC1298C6B2304601F008FC2846109DA4
:101B900001F004FC304601F001FC2C2001F074FC43
:101BA000386801F021FCE0067FF53FAF2A2001F004
:101BB0006BFC099D284601F0F1FB089E304601F0C0
:101BC000EDFB284601F0EAFB304601F0E7FB2B2055
:101BD00001F05AFC1198C5B2284601F0DFFB1298BB
:101BE000C6B2304601F0DAFB2846109D01F0D6FB64
:101BF000304601F0D3FB2C2001F046FC386801F0A0
:101C0000F3FBA0067FF514AF2A2001F03DFC0B9DED
:101C1000284601F0C3FB0A9E304601F0BFFB284670
:101C200001F0BCFB304601F0B9FB2B2001F02CFC8D
:101C30001198C5B2284601F0B1FB1298C6B23046E1
:101C400001F0ACFB2846109D01F0A8FB304601F0E6
:101C5000A5FB2C2001F018FC386801F0C5FB6006DC
:101C60007FF5C4AE2A2001F00FFC0D9D284601F03F
:101C700095FB0C9E304601F091FB284601F08EFB4F
:101C8000304601F08BFB2B2001F0FEFB1198C5B212
:101C9000284601F083FB1298C6B2304601F07EFB65
:101CA0002846109D01F07AFB304601F077FB2C208E
:101CB00001F0EAFB386801F097FB97E62A2001F073
:101CC000E3FB009C204601F069FB504601F066FBF7
:101CD000204601F063FB504601F060FB2B2001F031
:101CE000D3FB1198C5B2284601F058FB1298C6B232
:101CF000304601F053FB2846109D01F04FFB304663
:101D000001F04CFB2C2001F0BFFB386801F06CFBAC
:101D100009F10109B9F1100F7FF472AE17E6000066
:101D20002DE9F04F81B02DED048B86B0059014980D
:101D3000B0EE408A0D46BDEEC09A4FEA500A002A26
:101D40000393049158D0901E02905042914619EE90
:101D5000104A0026C7B242F210784FF0000B1CE088
:101D60000120B4FBF0F04CF6CD41CCF6CC41A0FB09
:101D70000112D10801EB8101A0EB4101059841F06E
:101D8000300106FB0A00149BCAB22946FFF748FD42
:101D900001364E450BF1010B30D06FEA0B00C0B29B
:101DA000B842DDD00299F043891BC9B2032900EB88
:101DB000090101D2012009E001F0FC020023012009
:101DC0000433DDB2954200FB08F0F9D1049D11F017
:101DD0000301C6D0012903D100EB80004000C0E719
:101DE0004FF47A72424302294FF0640108BF00FBAE
:101DF00001F21046B5E700BF4FF000090598149BAB
:101E000019FB0A0029462E22FFF70AFD0399002933
:101E100000F09880481E0290C0B2032801F0030031
:101E200002D20A2198B91CE001F0FC06002301222D
:101E300042F2107704331146DAB2B24201FB07F2E4
:101E4000F8D148F2A063C0F20103594348B1012818
:101E500006D0642301EB81025943022808BF5100D8
:101E60000A46039800286DD0B8EEC90A01EE102A80
:101E7000059938EE400AB8EE411A20EE010A053104
:101E8000BDEEC00A0591811E404210EE104A4FF08F
:101E90000008C6B242F210774FF0000B019120E02B
:101EA0000120B4FBF0F04CF6CD41CCF6CC41A0FBC8
:101EB0000112D10801EB8101059AA0EB410108EB69
:101EC000090000FB0A2041F03001149BCAB22946E8
:101ED000FFF7A6FC039808F1010880450BF1010B00
:101EE00030D06FEA0B00C0B2B042D9D00198A0EB5D
:101EF0000800C0B203280298A0EB080102D201201A
:101F00000AE000BF01F0FC02002301200433DDB22F
:101F1000954207FB00F0F9D1049D11F00301C0D0F8
:101F2000012903D100EB80004000BAE74FF47A7238
:101F3000424302294FF0640108BF00FB01F2104642
:101F4000AFE700BF06B0BDEC048B01B0BDE8F08F79
:101F500070B5144601220D460646FEF729FF2046BD
:101F600001F0B8FA304629460022FEF721FF40F67C
:101F70000044C4F20204204680210022FEF718FF2C
:101F8000204640210022FEF713FF20462021002298
:101F9000FEF70EFF204610210022FEF709FF204623
:101FA00008210022FEF704FF204604210022FEF74C
:101FB000FFFE204602210022FEF7FAFE2046012104
:101FC0000022BDE87040FEF7F3BE00002DE9F047A7
:101FD00082B0054640F2000800200021EF2240F2C6
:101FE0003F13C4F2020801F005F940461021002217
:101FF000FEF7DEFE08F5006010210122FEF7D8FE94
:1020000040F274062F0A4FF49634C2F200060DF126
:1020100006090DF1070A00BF3046494601224FF478
:102020007A738DF80670FFF7B9FA304651460122EF
:102030004FF47A738DF80750FFF7B0FA013CEBD1FB
:10204000404610210122FEF7B3FE02B0BDE8F08742
:102050002DE9F04F81B00024C4F2020404F50065BC
:102060002846202100224FF00008FEF7A1FE642040
:102070004FF0640AFEF7A6FD2846202101224FF00A
:10208000010BFEF795FE3220FEF79CFD2046102145
:102090000022FEF78DFE284610210022FEF788FE62
:1020A00040F27406C2F200064FF011090DF103016F
:1020B000304601224FF47A738DF80390FFF76EFAE1
:1020C000204610210122FEF773FE20461021002237
:1020D000FEF76EFE284610210122FEF769FE0DF183
:1020E0000301304601224FF47A738DF80380FFF725
:1020F00055FA204610210122FEF75AFE20461021F3
:102100000022FEF755FE284610210022FEF750FE61
:10211000CF208DF803000DF10301304601224FF46A
:102120007A73FFF73BFA204610210122FEF740FEAA
:10213000204610210022FEF73BFE284610210122F6
:10214000FEF736FE0DF10301304601224FF47A739B
:102150008DF80380FFF722FA204610210122FEF7B6
:1021600027FE204610210022FEF722FE28461021DD
:102170000122FEF71DFEC1208DF803000DF10301C1
:10218000304601224FF47A73FFF708FA20461021F7
:102190000122FEF70DFE204610210022FEF708FE68
:1021A000284610210122FEF703FE30270DF103011E
:1021B000304601224FF47A738DF80370FFF7EEF981
:1021C000204610210122FEF7F3FD204610210022B7
:1021D000FEF7EEFD284610210022FEF7E9FDED2076
:1021E0008DF803000DF10301304601224FF47A739C
:1021F000FFF7D4F9204610210122FEF7D9FD204631
:1022000010210022FEF7D4FD284610210122FEF7FE
:10221000CFFD0DF10301304601224FF47A738DF8A2
:1022200003A0FFF7BBF9204610210122FEF7C0FDF5
:10223000204610210022FEF7BBFD28461021012276
:10224000FEF7B6FD03208DF803000DF103013046C3
:1022500001224FF47A73FFF7A1F9204610210122E1
:10226000FEF7A6FD204610210022FEF7A1FD28461C
:1022700010210122FEF79CFD12208DF803000DF1C4
:102280000301304601224FF47A73FFF787F92046A5
:1022900010210122FEF78CFD204610210022FEF7BE
:1022A00087FD284610210122FEF782FD81208DF84E
:1022B00003000DF10301304601224FF47A73FFF75A
:1022C0006DF9204610210122FEF772FD20461021F3
:1022D0000022FEF76DFD284610210022FEF768FD62
:1022E000E8208DF803000DF10301304601224FF480
:1022F0007A73FFF753F9204610210122FEF758FDAB
:10230000204610210022FEF753FD2846102101220D
:10231000FEF74EFD85208DF803000DF103013046D8
:1023200001224FF47A73FFF739F920461021012278
:10233000FEF73EFD204610210022FEF739FD28461B
:1023400010210122FEF734FD0DF103013046012278
:102350004FF47A738DF80390FFF720F9204610218F
:102360000122FEF725FD204610210022FEF720FD68
:10237000284610210122FEF71BFD78208DF803006E
:102380000DF10301304601224FF47A73FFF706F98D
:10239000204610210122FEF70BFD204610210022CD
:1023A000FEF706FD284610210022FEF701FDF6206B
:1023B0008DF803000DF10301304601224FF47A73CA
:1023C000FFF7ECF8204610210122FEF7F1FC204631
:1023D00010210022FEF7ECFC284610210122FEF716
:1023E000E7FC0DF10301304601224FF47A738DF8BA
:1023F00003B04FF0010BFFF7D1F820461021012266
:10240000FEF7D6FC204610210022FEF7D1FC28461C
:1024100010210122FEF7CCFC0DF103013046012210
:102420004FF47A738DF80370FFF7B8F82046102147
:102430000122FEF7BDFC204610210022FEF7B8FC69
:10244000284610210122FEF7B3FC0DF103013046AE
:1024500001224FF47A738DF80380FFF79FF820462E
:1024600010210122FEF7A4FC204610210022FEF7D5
:102470009FFC284610210022FEF79AFCCB208DF805
:1024800003000DF10301304601224FF47A73FFF788
:1024900085F8204610210122FEF78AFC20461021F3
:1024A0000022FEF785FC284610210122FEF780FC61
:1024B00039208DF803000DF10301304601224FF45D
:1024C0007A73FFF76BF8204610210122FEF770FCAB
:1024D000204610210022FEF76BFC28461021012225
:1024E000FEF766FC2C208DF803000DF10301304649
:1024F00001224FF47A73FFF751F820461021012290
:10250000FEF756FC204610210022FEF751FC28461B
:1025100010210122FEF74CFC0DF10301304601228F
:102520004FF47A738DF80380FFF738F820461021B6
:102530000122FEF73DFC204610210022FEF738FC68
:10254000284610210122FEF733FC34208DF80300C9
:102550000DF10301304601224FF47A73FFF71EF8A4
:10256000204610210122FEF723FC204610210022E4
:10257000FEF71EFC284610210122FEF719FC05205B
:102580008DF803000DF10301304601224FF47A73F8
:10259000FFF704F8204610210122FEF709FC20462F
:1025A00010210022FEF704FC284610210022FEF72D
:1025B000FFFBF7208DF803000DF1030130460122E7
:1025C0004FF47A73FEF7EAFF204610210122FEF74E
:1025D000EFFB204610210022FEF7EAFB28461021DF
:1025E0000122FEF7E5FB20270DF103013046012211
:1025F0004FF47A738DF80370FEF7D0FF2046102158
:102600000122FEF7D5FB204610210022FEF7D0FB69
:10261000284610210022FEF7CBFBEA208DF80300AC
:102620000DF10301304601224FF47A73FEF7B6FF35
:10263000204610210122FEF7BBFB2046102100227C
:10264000FEF7B6FB284610210122FEF7B1FB0DF183
:102650000301304601224FF47A738DF80380FEF7B0
:102660009DFF204610210122FEF7A2FB20461021EB
:102670000022FEF79DFB284610210122FEF798FB61
:102680000DF10301304601224FF47A738DF8038077
:10269000FEF784FF204610210122FEF789FB204629
:1026A00010210022FEF784FB284610210022FEF7AD
:1026B0007FFBC0208DF803000DF10301304601229D
:1026C0004FF47A73FEF76AFF204610210122FEF7CD
:1026D0006FFB204610210022FEF76AFB28461021DE
:1026E0000122FEF765FB0DF10301304601224FF494
:1026F0007A738DF80370FEF751FF204610210122F6
:10270000FEF756FB204610210022FEF751FB28461B
:1027100010210022FEF74CFBC1208DF803000DF1C3
:102720000301304601224FF47A73FEF737FF20464B
:1027300010210122FEF73CFB204610210022FEF76B
:1027400037FB284610210122FEF732FB0DF1030171
:10275000304601224FF47A738DF80390FEF71EFF86
:10276000204610210122FEF723FB204610210022E3
:10277000FEF71EFB284610210022FEF719FBC5209C
:102780008DF803000DF10301304601224FF47A73F6
:10279000FEF704FF204610210122FEF709FB204628
:1027A00010210022FEF704FB284610210122FEF72B
:1027B000FFFA31208DF803000DF1030130460122AC
:1027C0004FF47A73FEF7EAFE204610210122FEF74D
:1027D000EFFA204610210022FEF7EAFA28461021DF
:1027E0000122FEF7E5FA3C208DF803000DF103010C
:1027F000304601224FF47A73FEF7D0FE20461021B6
:102800000122FEF7D5FA204610210022FEF7D0FA69
:10281000284610210022FEF7CBFAC7208DF80300CE
:102820000DF10301304601224FF47A73FEF7B6FE34
:10283000204610210122FEF7BBFA2046102100227B
:10284000FEF7B6FA284610210122FEF7B1FAA920B8
:102850008DF803000DF10301304601224FF47A7325
:10286000FEF79CFE204610210122FEF7A1FA204629
:1028700010210022FEF79CFA284610210022FEF7C4
:1028800097FA3A208DF803000DF10301304601223A
:102890004FF47A73FEF782FE204610210122FEF7E4
:1028A00087FA204610210022FEF782FA28461021DE
:1028B0000122FEF77DFA55208DF803000DF103018A
:1028C000304601224FF47A73FEF768FE204610214D
:1028D0000122FEF76DFA204610210022FEF768FA69
:1028E000284610210022FEF763FA4FF0360A0DF158
:1028F0000301304601224FF47A738DF803A0FEF7EE
:102900004DFE204610210122FEF752FA20461021EA
:102910000022FEF74DFA284610210122FEF748FA60
:1029200048208DF803000DF10301304601224FF4D9
:102930007A73FEF733FE204610210122FEF738FAA3
:10294000204610210022FEF733FA284610210022EB
:10295000FEF72EFAB1208DF803000DF10301304689
:1029600001224FF47A73FEF719FE2046102101224E
:10297000FEF71EFA204610210022FEF719FA28461B
:1029800010210122FEF714FA0DF103013046012255
:102990004FF47A738DF80380FEF700FE2046102175
:1029A0000122FEF705FA204610210022FEF700FA68
:1029B000284610210122FEF7FBF918208DF80300AC
:1029C0000DF10301304601224FF47A73FEF7E6FD64
:1029D000204610210122FEF7EBF9204610210022AB
:1029E000FEF7E6F9284610210022FEF7E1F9B420AF
:1029F0008DF803000DF10301304601224FF47A7384
:102A0000FEF7CCFD204610210122FEF7D1F9204629
:102A100010210022FEF7CCF9284610210122FEF7F2
:102A2000C7F90DF10301304601224FF47A738DF896
:102A30000380FEF7B3FD204610210122FEF7B8F90E
:102A4000204610210022FEF7B3F92846102101226A
:102A5000FEF7AEF90DF10301304601224FF47A730F
:102A60008DF80380FEF79AFD204610210122FEF723
:102A70009FF9204610210022FEF79AF928461021DE
:102A80000022FEF795F9F2208DF803000DF1030105
:102A9000304601224FF47A73FEF780FD2046102164
:102AA0000122FEF785F9204610210022FEF780F969
:102AB000284610210122FEF77BF90DF10301304673
:102AC00001224FF47A738DF80380FEF767FD2046EC
:102AD00010210122FEF76CF9204610210022FEF79A
:102AE00067F9284610210022FEF762F926208DF8AA
:102AF00003000DF10301304601224FF47A73FEF713
:102B00004DFD204610210122FEF752F920461021EA
:102B10000022FEF74DF9284610210122FEF748F960
:102B20000DF10301304601224FF47A738DF803B0A2
:102B3000FEF734FD204610210122FEF739F9204628
:102B400010210022FEF734F9284610210022FEF75A
:102B50002FF9E0208DF803000DF10301304601222A
:102B60004FF47A73FEF71AFD204610210122FEF77A
:102B70001FF9204610210022FEF71AF928461021DD
:102B80000122FEF715F94FF00F090DF10301304650
:102B900001224FF47A738DF80390FEF7FFFC204674
:102BA00010210122FEF704F9204610210022FEF731
:102BB000FFF8284610210122FEF7FAF817208DF8B9
:102BC00003000DF10301304601224FF47A73FEF742
:102BD000E5FC204610210122FEF7EAF820461021EC
:102BE0000022FEF7E5F8284610210122FEF7E0F862
:102BF00014208DF803000DF10301304601224FF43B
:102C00007A73FEF7CBFC204610210122FEF7D0F8A4
:102C1000204610210022FEF7CBF828461021012281
:102C2000FEF7C6F809208DF803000DF103013046C8
:102C300001224FF47A73FEF7B1FC204610210122E5
:102C4000FEF7B6F8204610210022FEF7B1F828461C
:102C500010210122FEF7ACF80C208DF803000DF1D5
:102C60000301304601224FF47A73FEF797FC2046A9
:102C700010210122FEF79CF8204610210022FEF7C9
:102C800097F8284610210122FEF792F84FF0060B24
:102C90000DF10301304601224FF47A738DF803B031
:102CA000FEF77CFC204610210122FEF781F8204629
:102CB00010210022FEF77CF8284610210122FEF7A1
:102CC00077F843208DF803000DF10301304601220F
:102CD0004FF47A73FEF762FC204610210122FEF7C2
:102CE00067F8204610210022FEF762F828461021DE
:102CF0000122FEF75DF875208DF803000DF1030148
:102D0000304601224FF47A73FEF748FC204610212A
:102D10000122FEF74DF8204610210022FEF748F868
:102D2000284610210122FEF743F80DF10301304639
:102D300001224FF47A738DF803A0FEF72FFC204692
:102D400010210122FEF734F8204610210022FEF760
:102D50002FF8284610210122FEF72AF808270DF146
:102D60000301304601224FF47A738DF80370FEF7A9
:102D700015FC204610210122FEF71AF820461021EA
:102D80000022FEF715F8284610210122FEF710F860
:102D900013208DF803000DF10301304601224FF49A
:102DA0007A73FEF7FBFB204610210122FEF700F8A4
:102DB000204610210022FDF7FBFF284610210122AA
:102DC000FDF7F6FF05208DF803000DF103013046F5
:102DD00001224FF47A73FEF7E1FB20461021012215
:102DE000FDF7E6FF204610210022FDF7E1FF28460F
:102DF00010210122FDF7DCFF10208DF803000DF1FA
:102E00000301304601224FF47A73FEF7C7FB2046D8
:102E100010210122FDF7CCFF204610210022FDF7F2
:102E2000C7FF284610210122FDF7C2FF4FF00B0A11
:102E30000DF10301304601224FF47A738DF803A09F
:102E4000FEF7ACFB204610210122FDF7B1FF204622
:102E500010210022FDF7ACFF284610210122FDF7CA
:102E6000A7FF0DF10301304601224FF47A738DF86C
:102E70000370FEF793FB204610210122FDF798FF17
:102E8000204610210022FDF793FF28461021002242
:102E9000FDF78EFFE1208DF803000DF103013046B0
:102EA00001224FF47A73FEF779FB204610210122AC
:102EB000FDF77EFF204610210022FDF779FF28460E
:102EC00010210122FDF774FF0DF1030130460122AC
:102ED0004FF47A738DF80380FEF760FB20461021D3
:102EE0000122FDF765FF204610210022FDF760FF5B
:102EF000284610210122FDF75BFF1F208DF80300FB
:102F00000DF10301304601224FF47A73FEF746FBC0
:102F1000204610210122FDF74BFF20461021002200
:102F2000FDF746FF284610210122FDF741FF23202F
:102F30008DF803000DF10301304601224FF47A733E
:102F4000FEF72CFB204610210122FDF731FF204621
:102F500010210022FDF72CFF284610210122FDF749
:102F600027FF03208DF803000DF1030130460122F5
:102F70004FF47A73FEF712FB204610210122FDF771
:102F800017FF204610210022FDF712FF28461021CE
:102F90000122FDF70DFF0E208DF803000DF1030156
:102FA000304601224FF47A73FEF7F8FA20461021DA
:102FB0000122FDF7FDFE204610210022FDF7F8FE5C
:102FC000284610210122FDF7F3FE04208DF80300AE
:102FD0000DF10301304601224FF47A73FEF7DEFA59
:102FE000204610210122FDF7E3FE20461021002299
:102FF000FDF7DEFE284610210122FDF7D9FE39201B
:103000008DF803000DF10301304601224FF47A736D
:10301000FEF7C4FA204610210122FDF7C9FE204622
:1030200010210022FDF7C4FE284610210122FDF7E1
:10303000BFFE25208DF803000DF10301304601226B
:103040004FF47A73FEF7AAFA204610210122FDF709
:10305000AFFE204610210022FDF7AAFE28461021CF
:103060000122FDF7A5FE4D208DF803000DF10301AF
:10307000304601224FF47A73FEF790FA2046102171
:103080000122FDF795FE204610210022FDF790FE5B
:10309000284610210122FDF78BFE0DF10301304679
:1030A00001224FF47A738DF803B0FEF777FA2046C9
:1030B00010210122FDF77CFE204610210022FDF7A1
:1030C00077FE284610210122FDF772FE0D208DF8B3
:1030D00003000DF10301304601224FF47A73FEF72D
:1030E0005DFA204610210122FDF762FE20461021E4
:1030F0000022FDF75DFE284610210122FDF758FE53
:103100000DF10301304601224FF47A738DF803A0CC
:10311000FEF744FA204610210122FDF749FE204621
:1031200010210022FDF744FE284610210122FDF760
:103130003FFE33208DF803000DF1030130460122DC
:103140004FF47A73FEF72AFA204610210122FDF788
:103150002FFE204610210022FDF72AFE28461021CE
:103160000122FDF725FE37208DF803000DF1030144
:10317000304601224FF47A73FEF710FA20461021F0
:103180000122FDF715FE204610210022FDF710FE5A
:10319000284610210122FDF70BFE0DF103013046F8
:1031A00001224FF47A738DF80390FEF7F7F9204669
:1031B00010210122FDF7FCFD204610210022FDF721
:1031C000F7FD284610210022FDF7F2FD29208DF899
:1031D00003000DF10301304601224FF47A73FEF72C
:1031E000DDF9204610210122FDF7E2FD01B0BDE826
:1031F000F08F00002DE9F04782B00024C4F20204F1
:1032000017468A4605462046102100229846FDF7BB
:10321000CFFD04F50066304610210022FDF7C8FD01
:1032200040F274092A20C2F200098DF805000DF160
:103230000501484601224FF47A73FEF7AFF92046A4
:1032400010210122FDF7B4FD284600F0CDF83846E4
:1032500000F0CAF8204610210022FDF7A9FD3046F3
:1032600010210022FDF7A4FD2B208DF806000DF1A2
:103270000601484601224FF47A73FEF78FF9204683
:1032800010210122FDF794FD504600F0ADF84046B4
:1032900000F0AAF8204610210022FDF789FD3046F3
:1032A00010210022FDF784FD2C208DF807000DF180
:1032B0000701484601224FF47A73FEF76FF9204662
:1032C00010210122FDF774FD02B0BDE8F087000077
:1032D0002DE9F04182B00024C4F20204884605467C
:1032E000204610210022FDF763FD04F500663046FC
:1032F00010210022FDF75CFD40F274072A20C2F283
:1033000000078DF805000DF10501384601224FF444
:103310007A73FEF743F9204610210122FDF748FD9C
:10332000284600F061F8204610210022FDF740FDFC
:10333000304610210022FDF73BFD2B208DF80600C2
:103340000DF10601384601224FF47A73FEF726F993
:10335000204610210122FDF72BFD404600F044F8E5
:10336000204610210022FDF723FD304610210022C7
:10337000FDF71EFD2C208DF807000DF107013846E2
:1033800001224FF47A73FEF709F920461021012239
:10339000FDF70EFD02B0BDE8F0810000B0B582B0CF
:1033A0000025C4F202050446284610210022FDF73C
:1033B000FFFC05F5006010210122FDF7F9FC40F249
:1033C0007400C2F200000DF1070101224FF47A737C
:1033D0008DF80740FEF7E2F8284610210122FDF79C
:1033E000E7FC02B0B0BD0000F0B581B00024C4F22B
:1033F00002040546204610210022FDF7D9FC04F501
:103400000066304610210122FDF7D2FC2046102133
:1034100000222F0AFDF7CCFC304610210122FDF7D7
:10342000C7FC8DF8027040F27407C2F200070DF17C
:103430000201384601224FF47A73FEF7AFF82046B6
:1034400010210122FDF7B4FC204610210022FDF7D7
:10345000AFFC304610210122FDF7AAFC0DF103015B
:10346000384601224FF47A738DF80350FEF796F830
:10347000204610210122FDF79BFC2046102101224D
:10348000FDF796FC01B0F0BDB0B582B00025C4F2E6
:1034900002050446284610210022FDF789FC05F5A7
:1034A000006010210022FDF783FC40F27400C2F29C
:1034B00000000DF1070101224FF47A738DF80740E7
:1034C000FEF76CF8284610210122FDF771FC02B0CE
:1034D000B0BD0000092888BF70472DE9F0471CA146
:1034E0000A5C1EA10D5C20A10F5C22A10C5C24A132
:1034F00011F800A025A140F6004611F8009026A181
:10350000C4F2020611F8008030468021FDF750FC1D
:10351000304640212A46FDF74BFC304620213A46F2
:10352000FDF746FC304610212246FDF741FC3046AF
:1035300008215246FDF73CFC304604214A46FDF77F
:1035400037FC304602214246BDE8F047FDF730BC6B
:10355000010001010001010101010000010101015F
:103560000100000101010000010100010101010150
:103570000101000001000101000101000101000042
:103580000100010000000100010000000100000036
:103590000101010001010000000001010101010021
:1035A000010100002DE9F04F87B0002443F6300000
:1035B00006940194C4F20200016840F6000941F04B
:1035C000800101600168C4F2020901F080010191EB
:1035D000019901940168002241F004010160016831
:1035E00001F00401019101990194016841F0020187
:1035F0000160016801F002010191019901940168E3
:1036000041F008010160016801F008010191019990
:103610000194016841F001010160006841F63051F8
:1036200000F00100019001984846FDF7C1FBA9F5A3
:103630008066304641F204010022FDF7B9FBA9F58E
:10364000006840464FF480610022FDF7B1FB09F5A8
:1036500080652846FF210022FDF7AAFB302002AF3B
:1036600002904FF0010A4FF0020B48463946CDE96F
:1036700003A4CDF814B0FDF7C7FA41F20400CDE978
:10368000020A30463946CDE9044BFDF7BDFA4FF446
:10369000F05002904FF48810CDE9030A28463946CD
:1036A000FDF7B2FA4FF4E850CDE9020A4846394630
:1036B000CDE90444FDF7A8FA4FF48060CDE9020A91
:1036C00040463946CDE90444FDF79EFAFF20CDE996
:1036D000020A28463946CDE90444FDF795FA172039
:1036E00000210022FDF7EEFB1720FDF7D7FB282075
:1036F00000210022FDF7E6FB2820FDF7CFFB07B0F5
:10370000BDE8F08F80B540F2740043F60001C2F2CC
:103710000000C4F200014FF4827200234FF4007CD9
:1037200080E80E000A21C0E90333C0E9053CC3610B
:10373000C0E90833C0E90A31FDF7A0FE002808BF40
:1037400080BDBDE88040FCF783BE0000FEE70000BE
:10375000FEE70000704700002DE9F04182B01E46F0
:1037600090460D460446FDF729FB301A00EB08078A
:10377000FDF724FB40F20801C2F200010968C1F321
:10378000CB317943019121688A682A40AA4227D126
:10379000064618F101001FD0FDF710FB801BB84250
:1037A00022D2019801990028A1F10101019121681B
:1037B000896808BF074601EA0500A842ECD00FE07F
:1037C00088682840A8420BD188682840A84207D1C1
:1037D00088682840A84203D188682840A842EFD0D2
:1037E000002002B0BDE8F081D4E900014268B1F5E3
:1037F000827F22F0E00242600AD1A168B1F5004F59
:1038000002D0B1F5806F03D1016821F04001016061
:10381000A16AB1F5005F07D1016821F40051016090
:10382000016841F400510160012084F8510000203A
:1038300084F85000032002B0BDE8F081704700001A
:10384000FDF7C2BA4EF68850CEF20000016841F48E
:103850007001016070470000FEE7000094B047F27D
:103860000005C4F20005FDF7BDFA08AC04F108003C
:103870002821FCF771FD002643F640000796CDE9AC
:103880000566CDE903660296C4F2020001680127CD
:1038900041F080510160006800F080500290029871
:1038A0000296286840F480402860286800F4804030
:1038B000029002984FF480300990204608970E96A7
:1038C000FDF722FC20B1EFF3108072B6FEE700BFD7
:1038D0000F20CDE9030703A80021CDE9056607966F
:1038E000FDF72CFB20B1EFF3108072B6FEE700BFAE
:1038F000FFF758FEFFF706FFFEF7AAFB05F5CA30F3
:1039000004210122FDF754FA05F5CC3020210122D3
:10391000FDF74EFA4FF47840FEF758FB16A700204B
:10392000322100224FF6FF730097FCF7BDFD16A76A
:103930000020502100224FF6FF730097FCF7B4FDE2
:1039400017A70020782100224FF6FF730097FCF79D
:10395000ABFD1027B2EE040AAA207821042202232C
:103960000097FEF7DDF900BF0020002100220023B0
:10397000FCF774FDF8E700BF584A545520496E66BD
:103980006F6D6174696F6E0053696E676C652D436E
:10399000686970204578706572696D656E740000A5
:1039A00043757272656E742054656D7065726174D2
:1039B00075726561616161414141414141416161AE
:1039C0006161613A00000000F1EE100A4FF6FF71EC
:1039D000C0F2C03120EA010040F04070E1EE100A70
:1039E0007047000000000000000001020304060709
:1039F00008090000000000000000000000000000B6
:103A00000000001010101010101010100000101006
:103A1000000000006C6C2424000000000100000085
:103A200000000024242424FE48484848FC9090903C
:103A3000900000103C549290503814121292547816
:103A400010000000225C94A8481010242A525488C8
:103A50000000000030484850206E54948C888A74CE
:103A600000000000303010100000000000000000D6
:103A70000000000408101020202020202010100832
:103A80000400008040202010101010101020204052
:103A9000800000000000105438103854100000005E
:103AA000000000000010101010FE10101010000098
:103AB00000000000000000000000000000001010E6
:103AC000200000000000000000FE000000000000D8
:103AD00000000000000000000000000000001010C6
:103AE00000000000040408081010202040408080DE
:103AF00000000000384482828282828282824438BE
:103B00000000000010701010101010101010107C29
:103B1000000000003844828204081020408284FCA7
:103B20000000000038448202043804020282443853
:103B300000000000040C141424244444FE04040E69
:103B400000000000FC808080B8C482020282847879
:103B5000000000003C428280B8C4828282824438E5
:103B6000000000007E4282040408080810101010B3
:103B70000000000038448282443844828282443803
:103B800000000000384482828282463A0282443831
:103B900000000000000010100000000010100000E5
:103BA00000000000000010100000000000101020B5
:103BB0000000000000000618608060180600000089
:103BC0000000000000000000FE0000FE00000000F9
:103BD000000000000000C0300C020C30C0000000EB
:103BE00000000038448282020408101010001010F7
:103BF000000000003844829AAAAAAAAAAA96804283
:103C00003C00000010101028282844447C4444EE56
:103C100000000000FC424242427C4242424242FCDE
:103C2000000000003C448280808080808282443892
:103C300000000000F844424242424242424244F8FC
:103C400000000000FC444240447C4440404244FCAC
:103C500000000000FC444240447C4440404040F0AE
:103C600000000000344C828080808E8484844C3438
:103C700000000000EE444444447C4444444444EE88
:103C8000000000007C101010101010101010107C9C
:103C9000000000003E080808080808080888887026
:103CA00000000000EE44484850605048484444EE4C
:103CB00000000000E040404040404040404244FCA2
:103CC00000000000C6446C6C6C545454444444EEF0
:103CD00000000000CE4464646454544C4C4C44E4F2
:103CE00000000000384482828282828282824438CC
:103CF00000000000F844424242447840404040E026
:103D000000000000384482828282828282BA443C6F
:103D100002000000F048444444487048444444E6EB
:103D2000000000003C44828040300C020282447853
:103D3000000000007C549210101010101010103869
:103D400000000000EE4444444444444444444438A5
:103D500000000000EE444444442828282810101095
:103D600000000000EE445454545454542828282889
:103D700000000000EE44442828101028284444EE97
:103D800000000000EE4444282828101010101038BD
:103D9000000000007E44840808102020408284FC3B
:103DA0000000001C10101010101010101010101037
:103DB0001C000000EE445454FE5454542828282873
:103DC00000000070101010101010101010101010C3
:103DD0007000003048840000000000000000000077
:103DE00000000000000000000000000000000000D3
:103DF000FE00004020000000000000000000000065
:103E000000000000000000007884047C84848C762C
:103E100000000000C04040405864424242426458A2
:103E2000000000000000000038448080808044389A
:103E3000000000000C040404344C848484844C3658
:103E40000000000000000000788484FC80808478FA
:103E50000000000018242020F820202020202070BE
:103E600000000000000000003A444478807C828218
:103E70007C000000C040404058644444444444EE48
:103E8000000000001010000030101010101010384A
:103E900000000000101000003010101010101090E2
:103EA00060000000C04040405C485060504844EE14
:103EB00000000000301010101011101010101039F8
:103EC0000000000000000000ACD29292929292D6C4
:103ED000000000000000000058E44444444444EE64
:103EE00000000000000000003844828282824438D2
:103EF0000000000000000000D864424242645840C4
:103F0000E000000000000000364C8484844C34043F
:103F10000E000000000000006C30202020202070E7
:103F20000000000000000000788884601884447855
:103F30000000000000202020F8202020202024184D
:103F40000000000000000000C64242424242463AE1
:103F50000000000000000000EE4444282828101053
:103F60000000000000000000EE44445454282828BB
:103F70000000000000000000EE442810102844EE6D
:103F80000000000000000000EE444428281010A0AB
:103F9000C0000000000000007E448810204284FC25
:103FA0000000000C101010101060101010101010F5
:103FB0000C00001010101010101010101010101025
:103FC000100000C0202020202018202020202020A9
:103FD000C00000000000000000728C000000000023
:103FE00000000000000000000000000000000000D1
:103FF0000000000000000808080808080800001871
:1040000018000000486C24120000000000000000AE
:104010000000000000002424247F1212127F1212DC
:104020001200000000081C2A2A0A0C1828282A2A34
:104030001C080800000022251515152A5854545450
:104040002200000000000C1212120A76252911919C
:104050006E000000060604030000000000000000DF
:104060000000000040201010080808080808101080
:10407000204000000204080810101010101008085A
:104080000402000000000008086B1C1C6B080800FC
:1040900000000000000000080808087F0808080861
:1040A000000000000000000000000000000000060A
:1040B0000604030000000000000000FE00000000F5
:1040C00000000000000000000000000000000006EA
:1040D0000600000000804040202010100808040462
:1040E000020200000000182442424242424242249E
:1040F000180000000000080E080808080808080852
:104100003E00000000003C424242202010080442D1
:104110007E00000000003C42422018204040422225
:104120001C0000000000203028242422227E2020B1
:104130007800000000007E0202021A26404042225F
:104140001C0000000000382402021A2642424224C9
:104150001800000000007E2222101008080808083D
:104160000800000000003C4242422418244242421F
:104170003C000000000018244242426458404024A1
:104180001C000000000000000018180000000018CB
:1041900018000000000000000000080000000000FF
:1041A0000808040000004020100804020408102041
:1041B0004000000000000000007F0000007F0000C1
:1041C0000000000000000204081020402010080435
:1041D0000200000000003C4242464020101000183F
:1041E0001800000000001C225A555555552D42223A
:1041F0001C00000000000808181414243C2242424D
:10420000E700000000001F2222221E22424242221A
:104210001F00000000007C42420101010101422216
:104220001C00000000001F22424242424242422241
:104230001F00000000003F4212121E1212024242F2
:104240003F00000000003F4212121E121202020242
:104250000700000000003C222201010171212222FE
:104260001C0000000000E7424242427E42424242BD
:10427000E700000000003E080808080808080808D1
:104280003E00000000007C101010101010101010E4
:1042900010110F0000007722120A0E0A12122222B9
:1042A000770000000000070202020202020202423E
:1042B0007F000000000077363636362A2A2A2A2A5E
:1042C0006B0000000000E346464A4A5252526262C6
:1042D0004700000000001C22414141414141412270
:1042E0001C00000000003F424242423E0202020225
:1042F0000700000000001C2241414141414D533262
:104300001C60000000003F4242423E121222224244
:10431000C700000000007C424202041820404242D4
:104320003E00000000007F49080808080808080847
:104330001C0000000000E742424242424242424228
:104340003C0000000000E742422224241414180814
:104350000800000000006B494949495555362222A2
:10436000220000000000E7422424181818242442E8
:10437000E70000000000772222141408080808084B
:104380001C00000000007E2120101008040442429E
:104390003F0000007808080808080808080808080E
:1043A0000878000000020204040808081010202009
:1043B000204040001E10101010101010101010108F
:1043C000101E000038440000000000000000000043
:1043D00000000000000000000000000000000000DD
:1043E0000000FF00060800000000000000000000C0
:1043F000000000000000000000003C4278444242FF
:10440000FC0000000000030202021A26424242267B
:104410001A000000000000000000384402020244BC
:10442000380000000000604040407844424242644E
:10443000D80000000000000000003C427E02024262
:104440003C0000000000F08808087E080808080802
:104450003E0000000000000000007C22221C023C04
:1044600042423C000000030202023A4642424242FB
:10447000E700000000000C0C00000E080808080807
:104480003E000000000030300000382020202020B6
:1044900020221E0000000302020272120A161222DB
:1044A0007700000000000E0808080808080808083F
:1044B0003E0000000000000000007F929292929265
:1044C000B70000000000000000003B4642424242AC
:1044D000E70000000000000000003C42424242426F
:1044E0003C0000000000000000001B264242422267
:1044F0001E020700000000000000784442424244CF
:104500007840E000000000000000774C0404040440
:104510001F0000000000000000007C42023C4042FE
:104520003E0000000000000008083E0808080808D7
:10453000300000000000000000006342424242627E
:10454000DC000000000000000000E7422424140802
:1045500008000000000000000000EB49495555220A
:104560002200000000000000000076241818182423
:104570006E000000000000000000E7422424141830
:10458000080807000000000000007E221008084410
:104590007E000000C020202020201020202020208D
:1045A00020C000101010101010101010101010105B
:1045B0001010100006080808080810080808080865
:1045C0000806000C32C200000000000000000000DD
:1045D000000000B4BF000000000000020100063F20
:1045E000C00C3FE01803001002003336603726206D
:1045F0003E66301C643018642031FEE03F1FC01C52
:104600000C00000C000704003E07F00001C0000091
:1046100000000000000000000000000000C9AB0026
:10462000000000000001FE0003E3000703000C038C
:10463000001C3F003BFFC03F30600C30200C30209E
:104640000C10200C10600FFFC0083F00080000088D
:1046500000600E3FE007FC000000000000000000CA
:1046600000000000000000CCEE0000000000000090
:10467000030000FFE00C07F00C06000CFF803FF089
:10468000E01FC0600CFE300CCC3004F83004FF207A
:1046900004C0201FFE603EC06001FFF001FFF0007B
:1046A000606000400000000000000000000000000A
:1046B00000B3E4000000000000002000003000070C
:1046C000FFF03FFFE00300000601800C01800801BD
:1046D000C01807E00FFE7007E000020600060400A5
:1046E0000404000404000C06700C07E00000000045
:1046F0000000000000000000000000B2E200000026
:1047000000000000003039FC301FCC300706B00F2D
:1047100006F01907B03137B03136F01F27F00167C6
:10472000F001E5F001E1F00041F00CF8B03CD830C8
:10473000008C30008030000000000000000000000D
:104740000000000000CAD400000000000008036060
:104750000C03700C0330003FE0003F800801003C78
:104760000180047F80047D800C00800C10C00C1040
:10477000C00C18400C1C600F7E60067030000030CA
:10478000000000000000000000000000000000CE5B
:10479000C400000000C00000E00000700001FFE065
:1047A0001FFFC0180100000300000600000E0000FB
:1047B0001C000E180007300001E00000F00000FCB3
:1047C00000018F000303C00201E0000000000000B0
:1047D000000000000000000000D7D600000000002C
:1047E00000002000003F0031FFE03FC020380030D3
:1047F00030FE2033C660100200000C0000180000DC
:104800001800000C0007FFE03FFFE0000400000C70
:1048100000000C000000000000000000000000008C
:10482000000000CFD400000000000007FF000F03CD
:10483000C00C00401FF8601800600800400E01C066
:1048400007FF000000000184000184001987800F29
:104850008CE0078C2000CC0003FFE01FFFC00000AD
:1048600000000000000000000000000000CABE00C0
:1048700000000000000E00001FFFC0007FE00000ED
:1048800000000000000000000000003FC03FFFE00B
:104890000030000030000030000613000C13C00C84
:1048A00018F01818001818000000000000000000A0
:1048B00000000000000000CDBC0000000000000768
:1048C000FF000F03801CC0C019FC6011C6603306D6
:1048D0002033E63036FF30301FF030703030FC309F
:1048E000339F3036002010E060187C400E01C0037A
:1048F000FF00003800000000000000000000000081
:1049000000C6AC00000000000008180018080018DD
:104910000800180800180C201FFFF01FF8001800EE
:104920000010000010F8001FFE001E03001003001E
:104930001003001003001003001802000000000024
:104940000000000000000000000000CFD4000000C4
:1049500000000007FF000F03C00C00401FF86018A4
:1049600000600800400E01C007FF00000000018445
:10497000000184001987800F8CE0078C2000CC0098
:1049800003FFE01FFFC00000000000000000000067
:104990000000000000CABE0000000000000E000081
:1049A0001FFFC0007FE000000000000000000000CA
:1049B0000000003FC03FFFE000300000300000304A
:1049C000000613000C13C00C18F01818001818007B
:1049D000000000000000000000000000000000B423
:1049E000A50000000000000601800FC1801E61804C
:1049F000304FC020CFE0078D303FC930337930339E
:104A000079303FFB3037FF203267E03FE3803FE300
:104A1000C03263603267F0304FB000000000000029
:104A2000000000000000000000C3FE0000000000C5
:104A3000000030C000FFF00C79C00C1F800C7FE03C
:104A40003FE0600CC0300CFC3004C03007C0301EAA
:104A500060603C3FC0041C00047FE000FFE00030C9
:104A6000C0006060000000000000000000000000C6
:104A7000000000CAE40000000000000C03800C0FDE
:104A8000C0081C703F70001F9FC0101FC0100000A6
:104A9000367C3017E6301FE3B0067FB00277F007B0
:104AA000E3F03F7FF01336F003263003263000009A
:104AB00000000000000000000000000000C8EB0043
:104AC000000000000006000003800001C00000E0BC
:104AD0000000700000780000CC0000C600018300D8
:104AE0000301800700C00600E00C007018003018B9
:104AF0000000300000000000000000000000000086
:104B000000000000000000000000000000000000A5
:104B10000000000000000000000000000000000095
:104B20000000000000000000000000000000000085
:104B30000000000000000000000000000000000075
:104B40000000000000000000000000000000000065
:104B500000000000784B000800000020100000005A
:104B6000C4010008884B000810000020C0060000A7
:104B7000E00100080000000001000000100000003B
:084B80000024F4000000000015
:040000050800018965
:00000001FF
